{
	"contracts/1_ExecutableOracle.sol": {
		"ExecutableOracle": {
			"abi": [
				{
					"inputs": [],
					"stateMutability": "nonpayable",
					"type": "constructor"
				},
				{
					"anonymous": false,
					"inputs": [
						{
							"indexed": true,
							"internalType": "address[]",
							"name": "accounts",
							"type": "address[]"
						},
						{
							"indexed": false,
							"internalType": "bytes32",
							"name": "batchHeaderHash",
							"type": "bytes32"
						},
						{
							"indexed": false,
							"internalType": "uint128",
							"name": "blobIndex",
							"type": "uint128"
						},
						{
							"indexed": false,
							"internalType": "uint256",
							"name": "blobEventId",
							"type": "uint256"
						}
					],
					"name": "BlobIndexSettled",
					"type": "event"
				},
				{
					"anonymous": false,
					"inputs": [
						{
							"indexed": true,
							"internalType": "address",
							"name": "user",
							"type": "address"
						},
						{
							"indexed": true,
							"internalType": "address",
							"name": "tokenAddress",
							"type": "address"
						},
						{
							"indexed": false,
							"internalType": "uint256",
							"name": "amount",
							"type": "uint256"
						},
						{
							"indexed": false,
							"internalType": "uint256",
							"name": "tokenId",
							"type": "uint256"
						},
						{
							"indexed": false,
							"internalType": "string",
							"name": "tokenType",
							"type": "string"
						},
						{
							"indexed": false,
							"internalType": "uint256",
							"name": "bridgeEventId",
							"type": "uint256"
						}
					],
					"name": "Bridge",
					"type": "event"
				},
				{
					"inputs": [
						{
							"internalType": "address",
							"name": "tokenAddress",
							"type": "address"
						},
						{
							"internalType": "address",
							"name": "user",
							"type": "address"
						},
						{
							"internalType": "uint256",
							"name": "tokenId",
							"type": "uint256"
						}
					],
					"name": "ERC721AlreadyStored",
					"outputs": [
						{
							"internalType": "bool",
							"name": "",
							"type": "bool"
						}
					],
					"stateMutability": "view",
					"type": "function"
				},
				{
					"inputs": [
						{
							"internalType": "address",
							"name": "",
							"type": "address"
						}
					],
					"name": "blobIndices",
					"outputs": [
						{
							"internalType": "bytes32",
							"name": "batchHeaderHash",
							"type": "bytes32"
						},
						{
							"internalType": "uint128",
							"name": "blobIndex",
							"type": "uint128"
						}
					],
					"stateMutability": "view",
					"type": "function"
				},
				{
					"inputs": [
						{
							"internalType": "address",
							"name": "",
							"type": "address"
						}
					],
					"name": "ethBalance",
					"outputs": [
						{
							"internalType": "uint256",
							"name": "",
							"type": "uint256"
						}
					],
					"stateMutability": "view",
					"type": "function"
				},
				{
					"inputs": [
						{
							"internalType": "address",
							"name": "user",
							"type": "address"
						}
					],
					"name": "getBlobIndex",
					"outputs": [
						{
							"internalType": "bytes32",
							"name": "batchHeaderHash",
							"type": "bytes32"
						},
						{
							"internalType": "uint128",
							"name": "blobIndex",
							"type": "uint128"
						}
					],
					"stateMutability": "view",
					"type": "function"
				},
				{
					"inputs": [
						{
							"internalType": "address",
							"name": "tokenAddress",
							"type": "address"
						},
						{
							"internalType": "address",
							"name": "user",
							"type": "address"
						}
					],
					"name": "getERC20Balance",
					"outputs": [
						{
							"internalType": "uint256",
							"name": "",
							"type": "uint256"
						}
					],
					"stateMutability": "view",
					"type": "function"
				},
				{
					"inputs": [
						{
							"internalType": "address",
							"name": "tokenAddress",
							"type": "address"
						},
						{
							"internalType": "address",
							"name": "user",
							"type": "address"
						}
					],
					"name": "getERC721Holdings",
					"outputs": [
						{
							"internalType": "uint256[]",
							"name": "",
							"type": "uint256[]"
						}
					],
					"stateMutability": "view",
					"type": "function"
				},
				{
					"inputs": [
						{
							"internalType": "address",
							"name": "user",
							"type": "address"
						}
					],
					"name": "getEthBalance",
					"outputs": [
						{
							"internalType": "uint256",
							"name": "",
							"type": "uint256"
						}
					],
					"stateMutability": "view",
					"type": "function"
				},
				{
					"inputs": [],
					"name": "owner",
					"outputs": [
						{
							"internalType": "address",
							"name": "",
							"type": "address"
						}
					],
					"stateMutability": "view",
					"type": "function"
				},
				{
					"inputs": [
						{
							"internalType": "address",
							"name": "",
							"type": "address"
						}
					],
					"name": "quorums",
					"outputs": [
						{
							"internalType": "bool",
							"name": "isActive",
							"type": "bool"
						},
						{
							"internalType": "uint256",
							"name": "memberCount",
							"type": "uint256"
						}
					],
					"stateMutability": "view",
					"type": "function"
				},
				{
					"inputs": [
						{
							"internalType": "address",
							"name": "tokenAddress",
							"type": "address"
						},
						{
							"internalType": "address",
							"name": "to",
							"type": "address"
						},
						{
							"internalType": "uint256",
							"name": "amount",
							"type": "uint256"
						}
					],
					"name": "releaseERC20",
					"outputs": [],
					"stateMutability": "nonpayable",
					"type": "function"
				},
				{
					"inputs": [
						{
							"internalType": "address",
							"name": "tokenAddress",
							"type": "address"
						},
						{
							"internalType": "address",
							"name": "to",
							"type": "address"
						},
						{
							"internalType": "uint256",
							"name": "tokenId",
							"type": "uint256"
						}
					],
					"name": "releaseERC721",
					"outputs": [],
					"stateMutability": "nonpayable",
					"type": "function"
				},
				{
					"inputs": [
						{
							"internalType": "address[]",
							"name": "accounts",
							"type": "address[]"
						},
						{
							"components": [
								{
									"internalType": "bytes32",
									"name": "batchHeaderHash",
									"type": "bytes32"
								},
								{
									"internalType": "uint128",
									"name": "blobIndex",
									"type": "uint128"
								}
							],
							"internalType": "struct ExecutableOracle.BlobIndex",
							"name": "blobIndex",
							"type": "tuple"
						}
					],
					"name": "settleBlobIndex",
					"outputs": [],
					"stateMutability": "nonpayable",
					"type": "function"
				},
				{
					"inputs": [
						{
							"internalType": "address",
							"name": "tokenAddress",
							"type": "address"
						},
						{
							"internalType": "uint256",
							"name": "amount",
							"type": "uint256"
						}
					],
					"name": "storeERC20",
					"outputs": [],
					"stateMutability": "nonpayable",
					"type": "function"
				},
				{
					"inputs": [
						{
							"internalType": "address",
							"name": "tokenAddress",
							"type": "address"
						},
						{
							"internalType": "uint256",
							"name": "tokenId",
							"type": "uint256"
						}
					],
					"name": "storeERC721",
					"outputs": [],
					"stateMutability": "nonpayable",
					"type": "function"
				},
				{
					"inputs": [
						{
							"internalType": "address",
							"name": "user",
							"type": "address"
						},
						{
							"internalType": "bool",
							"name": "vote",
							"type": "bool"
						},
						{
							"components": [
								{
									"internalType": "bytes32",
									"name": "batchHeaderHash",
									"type": "bytes32"
								},
								{
									"internalType": "uint128",
									"name": "blobIndex",
									"type": "uint128"
								}
							],
							"internalType": "struct ExecutableOracle.BlobIndex",
							"name": "blobIndex",
							"type": "tuple"
						}
					],
					"name": "voteOnBlobIndex",
					"outputs": [],
					"stateMutability": "nonpayable",
					"type": "function"
				},
				{
					"inputs": [
						{
							"internalType": "address payable",
							"name": "to",
							"type": "address"
						},
						{
							"internalType": "uint256",
							"name": "amount",
							"type": "uint256"
						}
					],
					"name": "withdrawETH",
					"outputs": [],
					"stateMutability": "nonpayable",
					"type": "function"
				},
				{
					"stateMutability": "payable",
					"type": "receive"
				}
			],
			"devdoc": {
				"kind": "dev",
				"methods": {},
				"version": 1
			},
			"evm": {
				"assembly": "    /* \"contracts/1_ExecutableOracle.sol\":501:6187  contract ExecutableOracle {... */\n  mstore(0x40, 0x80)\n    /* \"contracts/1_ExecutableOracle.sol\":1777:1826  constructor() {... */\n  callvalue\n  dup1\n  iszero\n  tag_1\n  jumpi\n  0x00\n  dup1\n  revert\ntag_1:\n  pop\n    /* \"contracts/1_ExecutableOracle.sol\":1809:1819  msg.sender */\n  caller\n    /* \"contracts/1_ExecutableOracle.sol\":1801:1806  owner */\n  0x00\n  dup1\n    /* \"contracts/1_ExecutableOracle.sol\":1801:1819  owner = msg.sender */\n  0x0100\n  exp\n  dup2\n  sload\n  dup2\n  0xffffffffffffffffffffffffffffffffffffffff\n  mul\n  not\n  and\n  swap1\n  dup4\n  0xffffffffffffffffffffffffffffffffffffffff\n  and\n  mul\n  or\n  swap1\n  sstore\n  pop\n    /* \"contracts/1_ExecutableOracle.sol\":501:6187  contract ExecutableOracle {... */\n  dataSize(sub_0)\n  dup1\n  dataOffset(sub_0)\n  0x00\n  codecopy\n  0x00\n  return\nstop\n\nsub_0: assembly {\n        /* \"contracts/1_ExecutableOracle.sol\":501:6187  contract ExecutableOracle {... */\n      mstore(0x40, 0x80)\n      jumpi(tag_1, lt(calldatasize, 0x04))\n      shr(0xe0, calldataload(0x00))\n      dup1\n      0x6d1dbc48\n      gt\n      tag_19\n      jumpi\n      dup1\n      0xc003a3a4\n      gt\n      tag_20\n      jumpi\n      dup1\n      0xc003a3a4\n      eq\n      tag_15\n      jumpi\n      dup1\n      0xc3a8962c\n      eq\n      tag_16\n      jumpi\n      dup1\n      0xd8265846\n      eq\n      tag_17\n      jumpi\n      dup1\n      0xd8f3790f\n      eq\n      tag_18\n      jumpi\n      jump(tag_2)\n    tag_20:\n      dup1\n      0x6d1dbc48\n      eq\n      tag_11\n      jumpi\n      dup1\n      0x81473c64\n      eq\n      tag_12\n      jumpi\n      dup1\n      0x8da5cb5b\n      eq\n      tag_13\n      jumpi\n      dup1\n      0xb108d36d\n      eq\n      tag_14\n      jumpi\n      jump(tag_2)\n    tag_19:\n      dup1\n      0x4782f779\n      gt\n      tag_21\n      jumpi\n      dup1\n      0x4782f779\n      eq\n      tag_7\n      jumpi\n      dup1\n      0x483f96be\n      eq\n      tag_8\n      jumpi\n      dup1\n      0x4d2301cc\n      eq\n      tag_9\n      jumpi\n      dup1\n      0x6cd533d8\n      eq\n      tag_10\n      jumpi\n      jump(tag_2)\n    tag_21:\n      dup1\n      0x1a1d4011\n      eq\n      tag_3\n      jumpi\n      dup1\n      0x2dccf71c\n      eq\n      tag_4\n      jumpi\n      dup1\n      0x32a93efb\n      eq\n      tag_5\n      jumpi\n      dup1\n      0x36393627\n      eq\n      tag_6\n      jumpi\n      jump(tag_2)\n    tag_1:\n      jumpi(tag_2, calldatasize)\n        /* \"contracts/1_ExecutableOracle.sol\":2233:2242  msg.value */\n      callvalue\n        /* \"contracts/1_ExecutableOracle.sol\":2207:2217  ethBalance */\n      0x06\n        /* \"contracts/1_ExecutableOracle.sol\":2207:2229  ethBalance[msg.sender] */\n      0x00\n        /* \"contracts/1_ExecutableOracle.sol\":2218:2228  msg.sender */\n      caller\n        /* \"contracts/1_ExecutableOracle.sol\":2207:2229  ethBalance[msg.sender] */\n      0xffffffffffffffffffffffffffffffffffffffff\n      and\n      0xffffffffffffffffffffffffffffffffffffffff\n      and\n      dup2\n      mstore\n      0x20\n      add\n      swap1\n      dup2\n      mstore\n      0x20\n      add\n      0x00\n      keccak256\n      0x00\n        /* \"contracts/1_ExecutableOracle.sol\":2207:2242  ethBalance[msg.sender] += msg.value */\n      dup3\n      dup3\n      sload\n      tag_24\n      swap2\n      swap1\n      tag_25\n      jump\t// in\n    tag_24:\n      swap3\n      pop\n      pop\n      dup2\n      swap1\n      sstore\n      pop\n        /* \"contracts/1_ExecutableOracle.sol\":2269:2270  1 */\n      0x01\n        /* \"contracts/1_ExecutableOracle.sol\":2252:2265  bridgeCounter */\n      dup1\n      0x00\n        /* \"contracts/1_ExecutableOracle.sol\":2252:2270  bridgeCounter += 1 */\n      dup3\n      dup3\n      sload\n      tag_26\n      swap2\n      swap1\n      tag_25\n      jump\t// in\n    tag_26:\n      swap3\n      pop\n      pop\n      dup2\n      swap1\n      sstore\n      pop\n        /* \"contracts/1_ExecutableOracle.sol\":2312:2313  0 */\n      0x00\n        /* \"contracts/1_ExecutableOracle.sol\":2285:2351  Bridge(msg.sender, address(0), msg.value, 0, \"ETH\", bridgeCounter) */\n      0xffffffffffffffffffffffffffffffffffffffff\n      and\n        /* \"contracts/1_ExecutableOracle.sol\":2292:2302  msg.sender */\n      caller\n        /* \"contracts/1_ExecutableOracle.sol\":2285:2351  Bridge(msg.sender, address(0), msg.value, 0, \"ETH\", bridgeCounter) */\n      0xffffffffffffffffffffffffffffffffffffffff\n      and\n      0xd470274636139438aa953eb5783fde481a87a2312194bd215b7d10558d19b43b\n        /* \"contracts/1_ExecutableOracle.sol\":2316:2325  msg.value */\n      callvalue\n        /* \"contracts/1_ExecutableOracle.sol\":2327:2328  0 */\n      0x00\n        /* \"contracts/1_ExecutableOracle.sol\":2337:2350  bridgeCounter */\n      sload(0x01)\n        /* \"contracts/1_ExecutableOracle.sol\":2285:2351  Bridge(msg.sender, address(0), msg.value, 0, \"ETH\", bridgeCounter) */\n      mload(0x40)\n      tag_27\n      swap4\n      swap3\n      swap2\n      swap1\n      tag_28\n      jump\t// in\n    tag_27:\n      mload(0x40)\n      dup1\n      swap2\n      sub\n      swap1\n      log3\n        /* \"contracts/1_ExecutableOracle.sol\":501:6187  contract ExecutableOracle {... */\n      stop\n    tag_2:\n      0x00\n      dup1\n      revert\n        /* \"contracts/1_ExecutableOracle.sol\":5591:5954  function settleBlobIndex(address[] calldata accounts, BlobIndex calldata blobIndex) external onlyOwner {... */\n    tag_3:\n      callvalue\n      dup1\n      iszero\n      tag_29\n      jumpi\n      0x00\n      dup1\n      revert\n    tag_29:\n      pop\n      tag_30\n      0x04\n      dup1\n      calldatasize\n      sub\n      dup2\n      add\n      swap1\n      tag_31\n      swap2\n      swap1\n      tag_32\n      jump\t// in\n    tag_31:\n      tag_33\n      jump\t// in\n    tag_30:\n      stop\n        /* \"contracts/1_ExecutableOracle.sol\":5960:6185  function getBlobIndex(address user) external view returns(bytes32 batchHeaderHash, uint128 blobIndex) {... */\n    tag_4:\n      callvalue\n      dup1\n      iszero\n      tag_34\n      jumpi\n      0x00\n      dup1\n      revert\n    tag_34:\n      pop\n      tag_35\n      0x04\n      dup1\n      calldatasize\n      sub\n      dup2\n      add\n      swap1\n      tag_36\n      swap2\n      swap1\n      tag_37\n      jump\t// in\n    tag_36:\n      tag_38\n      jump\t// in\n    tag_35:\n      mload(0x40)\n      tag_39\n      swap3\n      swap2\n      swap1\n      tag_40\n      jump\t// in\n    tag_39:\n      mload(0x40)\n      dup1\n      swap2\n      sub\n      swap1\n      return\n        /* \"contracts/1_ExecutableOracle.sol\":1106:1147  mapping(address => Quorum) public quorums */\n    tag_5:\n      callvalue\n      dup1\n      iszero\n      tag_41\n      jumpi\n      0x00\n      dup1\n      revert\n    tag_41:\n      pop\n      tag_42\n      0x04\n      dup1\n      calldatasize\n      sub\n      dup2\n      add\n      swap1\n      tag_43\n      swap2\n      swap1\n      tag_37\n      jump\t// in\n    tag_43:\n      tag_44\n      jump\t// in\n    tag_42:\n      mload(0x40)\n      tag_45\n      swap3\n      swap2\n      swap1\n      tag_46\n      jump\t// in\n    tag_45:\n      mload(0x40)\n      dup1\n      swap2\n      sub\n      swap1\n      return\n        /* \"contracts/1_ExecutableOracle.sol\":1052:1100  mapping(address => BlobIndex) public blobIndices */\n    tag_6:\n      callvalue\n      dup1\n      iszero\n      tag_47\n      jumpi\n      0x00\n      dup1\n      revert\n    tag_47:\n      pop\n      tag_48\n      0x04\n      dup1\n      calldatasize\n      sub\n      dup2\n      add\n      swap1\n      tag_49\n      swap2\n      swap1\n      tag_37\n      jump\t// in\n    tag_49:\n      tag_50\n      jump\t// in\n    tag_48:\n      mload(0x40)\n      tag_51\n      swap3\n      swap2\n      swap1\n      tag_40\n      jump\t// in\n    tag_51:\n      mload(0x40)\n      dup1\n      swap2\n      sub\n      swap1\n      return\n        /* \"contracts/1_ExecutableOracle.sol\":5193:5444  function withdrawETH(address payable to, uint256 amount) public onlyOwner {... */\n    tag_7:\n      callvalue\n      dup1\n      iszero\n      tag_52\n      jumpi\n      0x00\n      dup1\n      revert\n    tag_52:\n      pop\n      tag_53\n      0x04\n      dup1\n      calldatasize\n      sub\n      dup2\n      add\n      swap1\n      tag_54\n      swap2\n      swap1\n      tag_55\n      jump\t// in\n    tag_54:\n      tag_56\n      jump\t// in\n    tag_53:\n      stop\n        /* \"contracts/1_ExecutableOracle.sol\":5450:5585  function voteOnBlobIndex(address user, bool vote, BlobIndex calldata blobIndex) external {... */\n    tag_8:\n      callvalue\n      dup1\n      iszero\n      tag_57\n      jumpi\n      0x00\n      dup1\n      revert\n    tag_57:\n      pop\n      tag_58\n      0x04\n      dup1\n      calldatasize\n      sub\n      dup2\n      add\n      swap1\n      tag_59\n      swap2\n      swap1\n      tag_60\n      jump\t// in\n    tag_59:\n      tag_61\n      jump\t// in\n    tag_58:\n      stop\n        /* \"contracts/1_ExecutableOracle.sol\":2364:2473  function getEthBalance(address user) external view returns (uint256) {... */\n    tag_9:\n      callvalue\n      dup1\n      iszero\n      tag_62\n      jumpi\n      0x00\n      dup1\n      revert\n    tag_62:\n      pop\n      tag_63\n      0x04\n      dup1\n      calldatasize\n      sub\n      dup2\n      add\n      swap1\n      tag_64\n      swap2\n      swap1\n      tag_37\n      jump\t// in\n    tag_64:\n      tag_65\n      jump\t// in\n    tag_63:\n      mload(0x40)\n      tag_66\n      swap2\n      swap1\n      tag_67\n      jump\t// in\n    tag_66:\n      mload(0x40)\n      dup1\n      swap2\n      sub\n      swap1\n      return\n        /* \"contracts/1_ExecutableOracle.sol\":3947:4256  function releaseERC20(address tokenAddress, address to, uint256 amount) public onlyOwner {... */\n    tag_10:\n      callvalue\n      dup1\n      iszero\n      tag_68\n      jumpi\n      0x00\n      dup1\n      revert\n    tag_68:\n      pop\n      tag_69\n      0x04\n      dup1\n      calldatasize\n      sub\n      dup2\n      add\n      swap1\n      tag_70\n      swap2\n      swap1\n      tag_71\n      jump\t// in\n    tag_70:\n      tag_72\n      jump\t// in\n    tag_69:\n      stop\n        /* \"contracts/1_ExecutableOracle.sol\":2634:2795  function getERC721Holdings(address tokenAddress, address user) external view returns(uint256[] memory) {... */\n    tag_11:\n      callvalue\n      dup1\n      iszero\n      tag_73\n      jumpi\n      0x00\n      dup1\n      revert\n    tag_73:\n      pop\n      tag_74\n      0x04\n      dup1\n      calldatasize\n      sub\n      dup2\n      add\n      swap1\n      tag_75\n      swap2\n      swap1\n      tag_76\n      jump\t// in\n    tag_75:\n      tag_77\n      jump\t// in\n    tag_74:\n      mload(0x40)\n      tag_78\n      swap2\n      swap1\n      tag_79\n      jump\t// in\n    tag_78:\n      mload(0x40)\n      dup1\n      swap2\n      sub\n      swap1\n      return\n        /* \"contracts/1_ExecutableOracle.sol\":3595:3941  function ERC721AlreadyStored(address tokenAddress, address user, uint256 tokenId) public view returns (bool) {... */\n    tag_12:\n      callvalue\n      dup1\n      iszero\n      tag_80\n      jumpi\n      0x00\n      dup1\n      revert\n    tag_80:\n      pop\n      tag_81\n      0x04\n      dup1\n      calldatasize\n      sub\n      dup2\n      add\n      swap1\n      tag_82\n      swap2\n      swap1\n      tag_71\n      jump\t// in\n    tag_82:\n      tag_83\n      jump\t// in\n    tag_81:\n      mload(0x40)\n      tag_84\n      swap2\n      swap1\n      tag_85\n      jump\t// in\n    tag_84:\n      mload(0x40)\n      dup1\n      swap2\n      sub\n      swap1\n      return\n        /* \"contracts/1_ExecutableOracle.sol\":533:553  address public owner */\n    tag_13:\n      callvalue\n      dup1\n      iszero\n      tag_86\n      jumpi\n      0x00\n      dup1\n      revert\n    tag_86:\n      pop\n      tag_87\n      tag_88\n      jump\t// in\n    tag_87:\n      mload(0x40)\n      tag_89\n      swap2\n      swap1\n      tag_90\n      jump\t// in\n    tag_89:\n      mload(0x40)\n      dup1\n      swap2\n      sub\n      swap1\n      return\n        /* \"contracts/1_ExecutableOracle.sol\":2805:3152  function storeERC20(address tokenAddress, uint256 amount) public {... */\n    tag_14:\n      callvalue\n      dup1\n      iszero\n      tag_91\n      jumpi\n      0x00\n      dup1\n      revert\n    tag_91:\n      pop\n      tag_92\n      0x04\n      dup1\n      calldatasize\n      sub\n      dup2\n      add\n      swap1\n      tag_93\n      swap2\n      swap1\n      tag_94\n      jump\t// in\n    tag_93:\n      tag_95\n      jump\t// in\n    tag_92:\n      stop\n        /* \"contracts/1_ExecutableOracle.sol\":3158:3589  function storeERC721(address tokenAddress, uint256 tokenId) public {... */\n    tag_15:\n      callvalue\n      dup1\n      iszero\n      tag_96\n      jumpi\n      0x00\n      dup1\n      revert\n    tag_96:\n      pop\n      tag_97\n      0x04\n      dup1\n      calldatasize\n      sub\n      dup2\n      add\n      swap1\n      tag_98\n      swap2\n      swap1\n      tag_94\n      jump\t// in\n    tag_98:\n      tag_99\n      jump\t// in\n    tag_97:\n      stop\n        /* \"contracts/1_ExecutableOracle.sol\":2479:2628  function getERC20Balance(address tokenAddress, address user) external view returns (uint256) {... */\n    tag_16:\n      callvalue\n      dup1\n      iszero\n      tag_100\n      jumpi\n      0x00\n      dup1\n      revert\n    tag_100:\n      pop\n      tag_101\n      0x04\n      dup1\n      calldatasize\n      sub\n      dup2\n      add\n      swap1\n      tag_102\n      swap2\n      swap1\n      tag_76\n      jump\t// in\n    tag_102:\n      tag_103\n      jump\t// in\n    tag_101:\n      mload(0x40)\n      tag_104\n      swap2\n      swap1\n      tag_67\n      jump\t// in\n    tag_104:\n      mload(0x40)\n      dup1\n      swap2\n      sub\n      swap1\n      return\n        /* \"contracts/1_ExecutableOracle.sol\":4262:4763  function releaseERC721(address tokenAddress, address to, uint256 tokenId) public onlyOwner {... */\n    tag_17:\n      callvalue\n      dup1\n      iszero\n      tag_105\n      jumpi\n      0x00\n      dup1\n      revert\n    tag_105:\n      pop\n      tag_106\n      0x04\n      dup1\n      calldatasize\n      sub\n      dup2\n      add\n      swap1\n      tag_107\n      swap2\n      swap1\n      tag_71\n      jump\t// in\n    tag_107:\n      tag_108\n      jump\t// in\n    tag_106:\n      stop\n        /* \"contracts/1_ExecutableOracle.sol\":1153:1198  mapping(address => uint256) public ethBalance */\n    tag_18:\n      callvalue\n      dup1\n      iszero\n      tag_109\n      jumpi\n      0x00\n      dup1\n      revert\n    tag_109:\n      pop\n      tag_110\n      0x04\n      dup1\n      calldatasize\n      sub\n      dup2\n      add\n      swap1\n      tag_111\n      swap2\n      swap1\n      tag_37\n      jump\t// in\n    tag_111:\n      tag_112\n      jump\t// in\n    tag_110:\n      mload(0x40)\n      tag_113\n      swap2\n      swap1\n      tag_67\n      jump\t// in\n    tag_113:\n      mload(0x40)\n      dup1\n      swap2\n      sub\n      swap1\n      return\n        /* \"contracts/1_ExecutableOracle.sol\":5591:5954  function settleBlobIndex(address[] calldata accounts, BlobIndex calldata blobIndex) external onlyOwner {... */\n    tag_33:\n        /* \"contracts/1_ExecutableOracle.sol\":1885:1890  owner */\n      0x00\n      dup1\n      sload\n      swap1\n      0x0100\n      exp\n      swap1\n      div\n      0xffffffffffffffffffffffffffffffffffffffff\n      and\n        /* \"contracts/1_ExecutableOracle.sol\":1871:1890  msg.sender == owner */\n      0xffffffffffffffffffffffffffffffffffffffff\n      and\n        /* \"contracts/1_ExecutableOracle.sol\":1871:1881  msg.sender */\n      caller\n        /* \"contracts/1_ExecutableOracle.sol\":1871:1890  msg.sender == owner */\n      0xffffffffffffffffffffffffffffffffffffffff\n      and\n      eq\n        /* \"contracts/1_ExecutableOracle.sol\":1863:1908  require(msg.sender == owner, \"Not the owner\") */\n      tag_115\n      jumpi\n      mload(0x40)\n      0x08c379a000000000000000000000000000000000000000000000000000000000\n      dup2\n      mstore\n      0x04\n      add\n      tag_116\n      swap1\n      tag_117\n      jump\t// in\n    tag_116:\n      mload(0x40)\n      dup1\n      swap2\n      sub\n      swap1\n      revert\n    tag_115:\n        /* \"contracts/1_ExecutableOracle.sol\":5709:5715  uint i */\n      0x00\n        /* \"contracts/1_ExecutableOracle.sol\":5704:5808  for (uint i = 0; i < accounts.length; i++) {... */\n    tag_119:\n        /* \"contracts/1_ExecutableOracle.sol\":5725:5733  accounts */\n      dup4\n      dup4\n        /* \"contracts/1_ExecutableOracle.sol\":5725:5740  accounts.length */\n      swap1\n      pop\n        /* \"contracts/1_ExecutableOracle.sol\":5721:5722  i */\n      dup2\n        /* \"contracts/1_ExecutableOracle.sol\":5721:5740  i < accounts.length */\n      lt\n        /* \"contracts/1_ExecutableOracle.sol\":5704:5808  for (uint i = 0; i < accounts.length; i++) {... */\n      iszero\n      tag_120\n      jumpi\n        /* \"contracts/1_ExecutableOracle.sol\":5788:5797  blobIndex */\n      dup2\n        /* \"contracts/1_ExecutableOracle.sol\":5761:5772  blobIndices */\n      0x04\n        /* \"contracts/1_ExecutableOracle.sol\":5761:5785  blobIndices[accounts[i]] */\n      0x00\n        /* \"contracts/1_ExecutableOracle.sol\":5773:5781  accounts */\n      dup7\n      dup7\n        /* \"contracts/1_ExecutableOracle.sol\":5782:5783  i */\n      dup6\n        /* \"contracts/1_ExecutableOracle.sol\":5773:5784  accounts[i] */\n      dup2\n      dup2\n      lt\n      tag_122\n      jumpi\n      tag_123\n      tag_124\n      jump\t// in\n    tag_123:\n    tag_122:\n      swap1\n      pop\n      0x20\n      mul\n      add\n      0x20\n      dup2\n      add\n      swap1\n      tag_125\n      swap2\n      swap1\n      tag_37\n      jump\t// in\n    tag_125:\n        /* \"contracts/1_ExecutableOracle.sol\":5761:5785  blobIndices[accounts[i]] */\n      0xffffffffffffffffffffffffffffffffffffffff\n      and\n      0xffffffffffffffffffffffffffffffffffffffff\n      and\n      dup2\n      mstore\n      0x20\n      add\n      swap1\n      dup2\n      mstore\n      0x20\n      add\n      0x00\n      keccak256\n        /* \"contracts/1_ExecutableOracle.sol\":5761:5797  blobIndices[accounts[i]] = blobIndex */\n      dup2\n      dup2\n      tag_126\n      swap2\n      swap1\n      tag_127\n      jump\t// in\n    tag_126:\n      swap1\n      pop\n      pop\n        /* \"contracts/1_ExecutableOracle.sol\":5742:5745  i++ */\n      dup1\n      dup1\n      0x01\n      add\n      swap2\n      pop\n      pop\n        /* \"contracts/1_ExecutableOracle.sol\":5704:5808  for (uint i = 0; i < accounts.length; i++) {... */\n      jump(tag_119)\n    tag_120:\n      pop\n        /* \"contracts/1_ExecutableOracle.sol\":5838:5839  1 */\n      0x01\n        /* \"contracts/1_ExecutableOracle.sol\":5817:5834  settlementCounter */\n      0x02\n      0x00\n        /* \"contracts/1_ExecutableOracle.sol\":5817:5839  settlementCounter += 1 */\n      dup3\n      dup3\n      sload\n      tag_128\n      swap2\n      swap1\n      tag_25\n      jump\t// in\n    tag_128:\n      swap3\n      pop\n      pop\n      dup2\n      swap1\n      sstore\n      pop\n        /* \"contracts/1_ExecutableOracle.sol\":5871:5879  accounts */\n      dup3\n      dup3\n        /* \"contracts/1_ExecutableOracle.sol\":5854:5947  BlobIndexSettled(accounts, blobIndex.batchHeaderHash, blobIndex.blobIndex, settlementCounter) */\n      mload(0x40)\n      tag_129\n      swap3\n      swap2\n      swap1\n      tag_130\n      jump\t// in\n    tag_129:\n      mload(0x40)\n      dup1\n      swap2\n      sub\n      swap1\n      keccak256\n      0x5c7813536a7e7b7f95eaf9fcfa83da5ceec6c6237454ad0bcc625ff3794ff619\n        /* \"contracts/1_ExecutableOracle.sol\":5881:5890  blobIndex */\n      dup3\n        /* \"contracts/1_ExecutableOracle.sol\":5881:5906  blobIndex.batchHeaderHash */\n      0x00\n      add\n      calldataload\n        /* \"contracts/1_ExecutableOracle.sol\":5908:5917  blobIndex */\n      dup4\n        /* \"contracts/1_ExecutableOracle.sol\":5908:5927  blobIndex.blobIndex */\n      0x20\n      add\n      0x20\n      dup2\n      add\n      swap1\n      tag_131\n      swap2\n      swap1\n      tag_132\n      jump\t// in\n    tag_131:\n        /* \"contracts/1_ExecutableOracle.sol\":5929:5946  settlementCounter */\n      sload(0x02)\n        /* \"contracts/1_ExecutableOracle.sol\":5854:5947  BlobIndexSettled(accounts, blobIndex.batchHeaderHash, blobIndex.blobIndex, settlementCounter) */\n      mload(0x40)\n      tag_133\n      swap4\n      swap3\n      swap2\n      swap1\n      tag_134\n      jump\t// in\n    tag_133:\n      mload(0x40)\n      dup1\n      swap2\n      sub\n      swap1\n      log2\n        /* \"contracts/1_ExecutableOracle.sol\":5591:5954  function settleBlobIndex(address[] calldata accounts, BlobIndex calldata blobIndex) external onlyOwner {... */\n      pop\n      pop\n      pop\n      jump\t// out\n        /* \"contracts/1_ExecutableOracle.sol\":5960:6185  function getBlobIndex(address user) external view returns(bytes32 batchHeaderHash, uint128 blobIndex) {... */\n    tag_38:\n        /* \"contracts/1_ExecutableOracle.sol\":6018:6041  bytes32 batchHeaderHash */\n      0x00\n        /* \"contracts/1_ExecutableOracle.sol\":6043:6060  uint128 blobIndex */\n      dup1\n        /* \"contracts/1_ExecutableOracle.sol\":6093:6104  blobIndices */\n      0x04\n        /* \"contracts/1_ExecutableOracle.sol\":6093:6110  blobIndices[user] */\n      0x00\n        /* \"contracts/1_ExecutableOracle.sol\":6105:6109  user */\n      dup5\n        /* \"contracts/1_ExecutableOracle.sol\":6093:6110  blobIndices[user] */\n      0xffffffffffffffffffffffffffffffffffffffff\n      and\n      0xffffffffffffffffffffffffffffffffffffffff\n      and\n      dup2\n      mstore\n      0x20\n      add\n      swap1\n      dup2\n      mstore\n      0x20\n      add\n      0x00\n      keccak256\n        /* \"contracts/1_ExecutableOracle.sol\":6093:6126  blobIndices[user].batchHeaderHash */\n      0x00\n      add\n      sload\n        /* \"contracts/1_ExecutableOracle.sol\":6141:6152  blobIndices */\n      0x04\n        /* \"contracts/1_ExecutableOracle.sol\":6141:6158  blobIndices[user] */\n      0x00\n        /* \"contracts/1_ExecutableOracle.sol\":6153:6157  user */\n      dup6\n        /* \"contracts/1_ExecutableOracle.sol\":6141:6158  blobIndices[user] */\n      0xffffffffffffffffffffffffffffffffffffffff\n      and\n      0xffffffffffffffffffffffffffffffffffffffff\n      and\n      dup2\n      mstore\n      0x20\n      add\n      swap1\n      dup2\n      mstore\n      0x20\n      add\n      0x00\n      keccak256\n        /* \"contracts/1_ExecutableOracle.sol\":6141:6168  blobIndices[user].blobIndex */\n      0x01\n      add\n      0x00\n      swap1\n      sload\n      swap1\n      0x0100\n      exp\n      swap1\n      div\n      0xffffffffffffffffffffffffffffffff\n      and\n        /* \"contracts/1_ExecutableOracle.sol\":6072:6178  return (... */\n      swap2\n      pop\n      swap2\n      pop\n        /* \"contracts/1_ExecutableOracle.sol\":5960:6185  function getBlobIndex(address user) external view returns(bytes32 batchHeaderHash, uint128 blobIndex) {... */\n      swap2\n      pop\n      swap2\n      jump\t// out\n        /* \"contracts/1_ExecutableOracle.sol\":1106:1147  mapping(address => Quorum) public quorums */\n    tag_44:\n      mstore(0x20, 0x05)\n      dup1\n      0x00\n      mstore\n      keccak256(0x00, 0x40)\n      0x00\n      swap2\n      pop\n      swap1\n      pop\n      dup1\n      0x03\n      add\n      0x00\n      swap1\n      sload\n      swap1\n      0x0100\n      exp\n      swap1\n      div\n      0xff\n      and\n      swap1\n      dup1\n      0x04\n      add\n      sload\n      swap1\n      pop\n      dup3\n      jump\t// out\n        /* \"contracts/1_ExecutableOracle.sol\":1052:1100  mapping(address => BlobIndex) public blobIndices */\n    tag_50:\n      mstore(0x20, 0x04)\n      dup1\n      0x00\n      mstore\n      keccak256(0x00, 0x40)\n      0x00\n      swap2\n      pop\n      swap1\n      pop\n      dup1\n      0x00\n      add\n      sload\n      swap1\n      dup1\n      0x01\n      add\n      0x00\n      swap1\n      sload\n      swap1\n      0x0100\n      exp\n      swap1\n      div\n      0xffffffffffffffffffffffffffffffff\n      and\n      swap1\n      pop\n      dup3\n      jump\t// out\n        /* \"contracts/1_ExecutableOracle.sol\":5193:5444  function withdrawETH(address payable to, uint256 amount) public onlyOwner {... */\n    tag_56:\n        /* \"contracts/1_ExecutableOracle.sol\":1885:1890  owner */\n      0x00\n      dup1\n      sload\n      swap1\n      0x0100\n      exp\n      swap1\n      div\n      0xffffffffffffffffffffffffffffffffffffffff\n      and\n        /* \"contracts/1_ExecutableOracle.sol\":1871:1890  msg.sender == owner */\n      0xffffffffffffffffffffffffffffffffffffffff\n      and\n        /* \"contracts/1_ExecutableOracle.sol\":1871:1881  msg.sender */\n      caller\n        /* \"contracts/1_ExecutableOracle.sol\":1871:1890  msg.sender == owner */\n      0xffffffffffffffffffffffffffffffffffffffff\n      and\n      eq\n        /* \"contracts/1_ExecutableOracle.sol\":1863:1908  require(msg.sender == owner, \"Not the owner\") */\n      tag_137\n      jumpi\n      mload(0x40)\n      0x08c379a000000000000000000000000000000000000000000000000000000000\n      dup2\n      mstore\n      0x04\n      add\n      tag_138\n      swap1\n      tag_117\n      jump\t// in\n    tag_138:\n      mload(0x40)\n      dup1\n      swap2\n      sub\n      swap1\n      revert\n    tag_137:\n        /* \"contracts/1_ExecutableOracle.sol\":5295:5316  address(this).balance */\n      selfbalance\n        /* \"contracts/1_ExecutableOracle.sol\":5285:5291  amount */\n      dup2\n        /* \"contracts/1_ExecutableOracle.sol\":5285:5316  amount <= address(this).balance */\n      gt\n      iszero\n        /* \"contracts/1_ExecutableOracle.sol\":5277:5341  require(amount <= address(this).balance, \"Insufficient balance\") */\n      tag_140\n      jumpi\n      mload(0x40)\n      0x08c379a000000000000000000000000000000000000000000000000000000000\n      dup2\n      mstore\n      0x04\n      add\n      tag_141\n      swap1\n      tag_142\n      jump\t// in\n    tag_141:\n      mload(0x40)\n      dup1\n      swap2\n      sub\n      swap1\n      revert\n    tag_140:\n        /* \"contracts/1_ExecutableOracle.sol\":5369:5379  ethBalance */\n      0x06\n        /* \"contracts/1_ExecutableOracle.sol\":5369:5383  ethBalance[to] */\n      0x00\n        /* \"contracts/1_ExecutableOracle.sol\":5380:5382  to */\n      dup4\n        /* \"contracts/1_ExecutableOracle.sol\":5369:5383  ethBalance[to] */\n      0xffffffffffffffffffffffffffffffffffffffff\n      and\n      0xffffffffffffffffffffffffffffffffffffffff\n      and\n      dup2\n      mstore\n      0x20\n      add\n      swap1\n      dup2\n      mstore\n      0x20\n      add\n      0x00\n      keccak256\n      sload\n        /* \"contracts/1_ExecutableOracle.sol\":5359:5365  amount */\n      dup2\n        /* \"contracts/1_ExecutableOracle.sol\":5359:5383  amount <= ethBalance[to] */\n      gt\n      iszero\n        /* \"contracts/1_ExecutableOracle.sol\":5351:5408  require(amount <= ethBalance[to], \"Insufficient balance\") */\n      tag_143\n      jumpi\n      mload(0x40)\n      0x08c379a000000000000000000000000000000000000000000000000000000000\n      dup2\n      mstore\n      0x04\n      add\n      tag_144\n      swap1\n      tag_142\n      jump\t// in\n    tag_144:\n      mload(0x40)\n      dup1\n      swap2\n      sub\n      swap1\n      revert\n    tag_143:\n        /* \"contracts/1_ExecutableOracle.sol\":5418:5420  to */\n      dup2\n        /* \"contracts/1_ExecutableOracle.sol\":5418:5429  to.transfer */\n      0xffffffffffffffffffffffffffffffffffffffff\n      and\n        /* \"contracts/1_ExecutableOracle.sol\":5418:5437  to.transfer(amount) */\n      0x08fc\n        /* \"contracts/1_ExecutableOracle.sol\":5430:5436  amount */\n      dup3\n        /* \"contracts/1_ExecutableOracle.sol\":5418:5437  to.transfer(amount) */\n      swap1\n      dup2\n      iszero\n      mul\n      swap1\n      mload(0x40)\n      0x00\n      mload(0x40)\n      dup1\n      dup4\n      sub\n      dup2\n      dup6\n      dup9\n      dup9\n      call\n      swap4\n      pop\n      pop\n      pop\n      pop\n      iszero\n      dup1\n      iszero\n      tag_146\n      jumpi\n      returndatasize\n      0x00\n      dup1\n      returndatacopy\n      revert(0x00, returndatasize)\n    tag_146:\n      pop\n        /* \"contracts/1_ExecutableOracle.sol\":5193:5444  function withdrawETH(address payable to, uint256 amount) public onlyOwner {... */\n      pop\n      pop\n      jump\t// out\n        /* \"contracts/1_ExecutableOracle.sol\":5450:5585  function voteOnBlobIndex(address user, bool vote, BlobIndex calldata blobIndex) external {... */\n    tag_61:\n      pop\n      pop\n      pop\n      jump\t// out\n        /* \"contracts/1_ExecutableOracle.sol\":2364:2473  function getEthBalance(address user) external view returns (uint256) {... */\n    tag_65:\n        /* \"contracts/1_ExecutableOracle.sol\":2424:2431  uint256 */\n      0x00\n        /* \"contracts/1_ExecutableOracle.sol\":2450:2460  ethBalance */\n      0x06\n        /* \"contracts/1_ExecutableOracle.sol\":2450:2466  ethBalance[user] */\n      0x00\n        /* \"contracts/1_ExecutableOracle.sol\":2461:2465  user */\n      dup4\n        /* \"contracts/1_ExecutableOracle.sol\":2450:2466  ethBalance[user] */\n      0xffffffffffffffffffffffffffffffffffffffff\n      and\n      0xffffffffffffffffffffffffffffffffffffffff\n      and\n      dup2\n      mstore\n      0x20\n      add\n      swap1\n      dup2\n      mstore\n      0x20\n      add\n      0x00\n      keccak256\n      sload\n        /* \"contracts/1_ExecutableOracle.sol\":2443:2466  return ethBalance[user] */\n      swap1\n      pop\n        /* \"contracts/1_ExecutableOracle.sol\":2364:2473  function getEthBalance(address user) external view returns (uint256) {... */\n      swap2\n      swap1\n      pop\n      jump\t// out\n        /* \"contracts/1_ExecutableOracle.sol\":3947:4256  function releaseERC20(address tokenAddress, address to, uint256 amount) public onlyOwner {... */\n    tag_72:\n        /* \"contracts/1_ExecutableOracle.sol\":1885:1890  owner */\n      0x00\n      dup1\n      sload\n      swap1\n      0x0100\n      exp\n      swap1\n      div\n      0xffffffffffffffffffffffffffffffffffffffff\n      and\n        /* \"contracts/1_ExecutableOracle.sol\":1871:1890  msg.sender == owner */\n      0xffffffffffffffffffffffffffffffffffffffff\n      and\n        /* \"contracts/1_ExecutableOracle.sol\":1871:1881  msg.sender */\n      caller\n        /* \"contracts/1_ExecutableOracle.sol\":1871:1890  msg.sender == owner */\n      0xffffffffffffffffffffffffffffffffffffffff\n      and\n      eq\n        /* \"contracts/1_ExecutableOracle.sol\":1863:1908  require(msg.sender == owner, \"Not the owner\") */\n      tag_150\n      jumpi\n      mload(0x40)\n      0x08c379a000000000000000000000000000000000000000000000000000000000\n      dup2\n      mstore\n      0x04\n      add\n      tag_151\n      swap1\n      tag_117\n      jump\t// in\n    tag_151:\n      mload(0x40)\n      dup1\n      swap2\n      sub\n      swap1\n      revert\n    tag_150:\n        /* \"contracts/1_ExecutableOracle.sol\":4087:4093  amount */\n      dup1\n        /* \"contracts/1_ExecutableOracle.sol\":4054:4066  ERC20Balance */\n      0x07\n        /* \"contracts/1_ExecutableOracle.sol\":4054:4070  ERC20Balance[to] */\n      0x00\n        /* \"contracts/1_ExecutableOracle.sol\":4067:4069  to */\n      dup5\n        /* \"contracts/1_ExecutableOracle.sol\":4054:4070  ERC20Balance[to] */\n      0xffffffffffffffffffffffffffffffffffffffff\n      and\n      0xffffffffffffffffffffffffffffffffffffffff\n      and\n      dup2\n      mstore\n      0x20\n      add\n      swap1\n      dup2\n      mstore\n      0x20\n      add\n      0x00\n      keccak256\n        /* \"contracts/1_ExecutableOracle.sol\":4054:4084  ERC20Balance[to][tokenAddress] */\n      0x00\n        /* \"contracts/1_ExecutableOracle.sol\":4071:4083  tokenAddress */\n      dup6\n        /* \"contracts/1_ExecutableOracle.sol\":4054:4084  ERC20Balance[to][tokenAddress] */\n      0xffffffffffffffffffffffffffffffffffffffff\n      and\n      0xffffffffffffffffffffffffffffffffffffffff\n      and\n      dup2\n      mstore\n      0x20\n      add\n      swap1\n      dup2\n      mstore\n      0x20\n      add\n      0x00\n      keccak256\n      sload\n        /* \"contracts/1_ExecutableOracle.sol\":4054:4093  ERC20Balance[to][tokenAddress] > amount */\n      gt\n        /* \"contracts/1_ExecutableOracle.sol\":4046:4118  require(ERC20Balance[to][tokenAddress] > amount, \"Insufficient balance\") */\n      tag_153\n      jumpi\n      mload(0x40)\n      0x08c379a000000000000000000000000000000000000000000000000000000000\n      dup2\n      mstore\n      0x04\n      add\n      tag_154\n      swap1\n      tag_142\n      jump\t// in\n    tag_154:\n      mload(0x40)\n      dup1\n      swap2\n      sub\n      swap1\n      revert\n    tag_153:\n        /* \"contracts/1_ExecutableOracle.sol\":4143:4155  tokenAddress */\n      dup3\n        /* \"contracts/1_ExecutableOracle.sol\":4136:4165  IERC20(tokenAddress).transfer */\n      0xffffffffffffffffffffffffffffffffffffffff\n      and\n      0xa9059cbb\n        /* \"contracts/1_ExecutableOracle.sol\":4166:4168  to */\n      dup4\n        /* \"contracts/1_ExecutableOracle.sol\":4170:4176  amount */\n      dup4\n        /* \"contracts/1_ExecutableOracle.sol\":4136:4177  IERC20(tokenAddress).transfer(to, amount) */\n      mload(0x40)\n      dup4\n      0xffffffff\n      and\n      0xe0\n      shl\n      dup2\n      mstore\n      0x04\n      add\n      tag_155\n      swap3\n      swap2\n      swap1\n      tag_156\n      jump\t// in\n    tag_155:\n      0x20\n      mload(0x40)\n      dup1\n      dup4\n      sub\n      dup2\n      0x00\n      dup8\n      gas\n      call\n      iszero\n      dup1\n      iszero\n      tag_158\n      jumpi\n      returndatasize\n      0x00\n      dup1\n      returndatacopy\n      revert(0x00, returndatasize)\n    tag_158:\n      pop\n      pop\n      pop\n      pop\n      mload(0x40)\n      returndatasize\n      not(0x1f)\n      0x1f\n      dup3\n      add\n      and\n      dup3\n      add\n      dup1\n      0x40\n      mstore\n      pop\n      dup2\n      add\n      swap1\n      tag_159\n      swap2\n      swap1\n      tag_160\n      jump\t// in\n    tag_159:\n        /* \"contracts/1_ExecutableOracle.sol\":4128:4197  require(IERC20(tokenAddress).transfer(to, amount), \"Transfer failed\") */\n      tag_161\n      jumpi\n      mload(0x40)\n      0x08c379a000000000000000000000000000000000000000000000000000000000\n      dup2\n      mstore\n      0x04\n      add\n      tag_162\n      swap1\n      tag_163\n      jump\t// in\n    tag_162:\n      mload(0x40)\n      dup1\n      swap2\n      sub\n      swap1\n      revert\n    tag_161:\n        /* \"contracts/1_ExecutableOracle.sol\":4241:4247  amount */\n      dup1\n        /* \"contracts/1_ExecutableOracle.sol\":4207:4219  ERC20Balance */\n      0x07\n        /* \"contracts/1_ExecutableOracle.sol\":4207:4223  ERC20Balance[to] */\n      0x00\n        /* \"contracts/1_ExecutableOracle.sol\":4220:4222  to */\n      dup5\n        /* \"contracts/1_ExecutableOracle.sol\":4207:4223  ERC20Balance[to] */\n      0xffffffffffffffffffffffffffffffffffffffff\n      and\n      0xffffffffffffffffffffffffffffffffffffffff\n      and\n      dup2\n      mstore\n      0x20\n      add\n      swap1\n      dup2\n      mstore\n      0x20\n      add\n      0x00\n      keccak256\n        /* \"contracts/1_ExecutableOracle.sol\":4207:4237  ERC20Balance[to][tokenAddress] */\n      0x00\n        /* \"contracts/1_ExecutableOracle.sol\":4224:4236  tokenAddress */\n      dup6\n        /* \"contracts/1_ExecutableOracle.sol\":4207:4237  ERC20Balance[to][tokenAddress] */\n      0xffffffffffffffffffffffffffffffffffffffff\n      and\n      0xffffffffffffffffffffffffffffffffffffffff\n      and\n      dup2\n      mstore\n      0x20\n      add\n      swap1\n      dup2\n      mstore\n      0x20\n      add\n      0x00\n      keccak256\n      0x00\n        /* \"contracts/1_ExecutableOracle.sol\":4207:4247  ERC20Balance[to][tokenAddress] -= amount */\n      dup3\n      dup3\n      sload\n      tag_164\n      swap2\n      swap1\n      tag_165\n      jump\t// in\n    tag_164:\n      swap3\n      pop\n      pop\n      dup2\n      swap1\n      sstore\n      pop\n        /* \"contracts/1_ExecutableOracle.sol\":3947:4256  function releaseERC20(address tokenAddress, address to, uint256 amount) public onlyOwner {... */\n      pop\n      pop\n      pop\n      jump\t// out\n        /* \"contracts/1_ExecutableOracle.sol\":2634:2795  function getERC721Holdings(address tokenAddress, address user) external view returns(uint256[] memory) {... */\n    tag_77:\n        /* \"contracts/1_ExecutableOracle.sol\":2719:2735  uint256[] memory */\n      0x60\n        /* \"contracts/1_ExecutableOracle.sol\":2754:2768  ERC721Holdings */\n      0x08\n        /* \"contracts/1_ExecutableOracle.sol\":2754:2774  ERC721Holdings[user] */\n      0x00\n        /* \"contracts/1_ExecutableOracle.sol\":2769:2773  user */\n      dup4\n        /* \"contracts/1_ExecutableOracle.sol\":2754:2774  ERC721Holdings[user] */\n      0xffffffffffffffffffffffffffffffffffffffff\n      and\n      0xffffffffffffffffffffffffffffffffffffffff\n      and\n      dup2\n      mstore\n      0x20\n      add\n      swap1\n      dup2\n      mstore\n      0x20\n      add\n      0x00\n      keccak256\n        /* \"contracts/1_ExecutableOracle.sol\":2754:2788  ERC721Holdings[user][tokenAddress] */\n      0x00\n        /* \"contracts/1_ExecutableOracle.sol\":2775:2787  tokenAddress */\n      dup5\n        /* \"contracts/1_ExecutableOracle.sol\":2754:2788  ERC721Holdings[user][tokenAddress] */\n      0xffffffffffffffffffffffffffffffffffffffff\n      and\n      0xffffffffffffffffffffffffffffffffffffffff\n      and\n      dup2\n      mstore\n      0x20\n      add\n      swap1\n      dup2\n      mstore\n      0x20\n      add\n      0x00\n      keccak256\n        /* \"contracts/1_ExecutableOracle.sol\":2747:2788  return ERC721Holdings[user][tokenAddress] */\n      dup1\n      sload\n      dup1\n      0x20\n      mul\n      0x20\n      add\n      mload(0x40)\n      swap1\n      dup2\n      add\n      0x40\n      mstore\n      dup1\n      swap3\n      swap2\n      swap1\n      dup2\n      dup2\n      mstore\n      0x20\n      add\n      dup3\n      dup1\n      sload\n      dup1\n      iszero\n      tag_167\n      jumpi\n      0x20\n      mul\n      dup3\n      add\n      swap2\n      swap1\n      0x00\n      mstore\n      keccak256(0x00, 0x20)\n      swap1\n    tag_168:\n      dup2\n      sload\n      dup2\n      mstore\n      0x20\n      add\n      swap1\n      0x01\n      add\n      swap1\n      dup1\n      dup4\n      gt\n      tag_168\n      jumpi\n    tag_167:\n      pop\n      pop\n      pop\n      pop\n      pop\n      swap1\n      pop\n        /* \"contracts/1_ExecutableOracle.sol\":2634:2795  function getERC721Holdings(address tokenAddress, address user) external view returns(uint256[] memory) {... */\n      swap3\n      swap2\n      pop\n      pop\n      jump\t// out\n        /* \"contracts/1_ExecutableOracle.sol\":3595:3941  function ERC721AlreadyStored(address tokenAddress, address user, uint256 tokenId) public view returns (bool) {... */\n    tag_83:\n        /* \"contracts/1_ExecutableOracle.sol\":3698:3702  bool */\n      0x00\n        /* \"contracts/1_ExecutableOracle.sol\":3714:3735  uint256[] memory nfts */\n      dup1\n        /* \"contracts/1_ExecutableOracle.sol\":3738:3752  ERC721Holdings */\n      0x08\n        /* \"contracts/1_ExecutableOracle.sol\":3738:3758  ERC721Holdings[user] */\n      0x00\n        /* \"contracts/1_ExecutableOracle.sol\":3753:3757  user */\n      dup6\n        /* \"contracts/1_ExecutableOracle.sol\":3738:3758  ERC721Holdings[user] */\n      0xffffffffffffffffffffffffffffffffffffffff\n      and\n      0xffffffffffffffffffffffffffffffffffffffff\n      and\n      dup2\n      mstore\n      0x20\n      add\n      swap1\n      dup2\n      mstore\n      0x20\n      add\n      0x00\n      keccak256\n        /* \"contracts/1_ExecutableOracle.sol\":3738:3772  ERC721Holdings[user][tokenAddress] */\n      0x00\n        /* \"contracts/1_ExecutableOracle.sol\":3759:3771  tokenAddress */\n      dup7\n        /* \"contracts/1_ExecutableOracle.sol\":3738:3772  ERC721Holdings[user][tokenAddress] */\n      0xffffffffffffffffffffffffffffffffffffffff\n      and\n      0xffffffffffffffffffffffffffffffffffffffff\n      and\n      dup2\n      mstore\n      0x20\n      add\n      swap1\n      dup2\n      mstore\n      0x20\n      add\n      0x00\n      keccak256\n        /* \"contracts/1_ExecutableOracle.sol\":3714:3772  uint256[] memory nfts = ERC721Holdings[user][tokenAddress] */\n      dup1\n      sload\n      dup1\n      0x20\n      mul\n      0x20\n      add\n      mload(0x40)\n      swap1\n      dup2\n      add\n      0x40\n      mstore\n      dup1\n      swap3\n      swap2\n      swap1\n      dup2\n      dup2\n      mstore\n      0x20\n      add\n      dup3\n      dup1\n      sload\n      dup1\n      iszero\n      tag_170\n      jumpi\n      0x20\n      mul\n      dup3\n      add\n      swap2\n      swap1\n      0x00\n      mstore\n      keccak256(0x00, 0x20)\n      swap1\n    tag_171:\n      dup2\n      sload\n      dup2\n      mstore\n      0x20\n      add\n      swap1\n      0x01\n      add\n      swap1\n      dup1\n      dup4\n      gt\n      tag_171\n      jumpi\n    tag_170:\n      pop\n      pop\n      pop\n      pop\n      pop\n      swap1\n      pop\n        /* \"contracts/1_ExecutableOracle.sol\":3787:3793  uint i */\n      0x00\n        /* \"contracts/1_ExecutableOracle.sol\":3782:3913  for (uint i = 0; i < nfts.length; i++) {... */\n    tag_172:\n        /* \"contracts/1_ExecutableOracle.sol\":3803:3807  nfts */\n      dup2\n        /* \"contracts/1_ExecutableOracle.sol\":3803:3814  nfts.length */\n      mload\n        /* \"contracts/1_ExecutableOracle.sol\":3799:3800  i */\n      dup2\n        /* \"contracts/1_ExecutableOracle.sol\":3799:3814  i < nfts.length */\n      lt\n        /* \"contracts/1_ExecutableOracle.sol\":3782:3913  for (uint i = 0; i < nfts.length; i++) {... */\n      iszero\n      tag_173\n      jumpi\n        /* \"contracts/1_ExecutableOracle.sol\":3850:3854  nfts */\n      dup2\n        /* \"contracts/1_ExecutableOracle.sol\":3855:3856  i */\n      dup2\n        /* \"contracts/1_ExecutableOracle.sol\":3850:3857  nfts[i] */\n      dup2\n      mload\n      dup2\n      lt\n      tag_175\n      jumpi\n      tag_176\n      tag_124\n      jump\t// in\n    tag_176:\n    tag_175:\n      0x20\n      mul\n      0x20\n      add\n      add\n      mload\n        /* \"contracts/1_ExecutableOracle.sol\":3839:3846  tokenId */\n      dup5\n        /* \"contracts/1_ExecutableOracle.sol\":3839:3857  tokenId == nfts[i] */\n      sub\n        /* \"contracts/1_ExecutableOracle.sol\":3835:3903  if (tokenId == nfts[i]) {... */\n      tag_177\n      jumpi\n        /* \"contracts/1_ExecutableOracle.sol\":3884:3888  true */\n      0x01\n        /* \"contracts/1_ExecutableOracle.sol\":3877:3888  return true */\n      swap3\n      pop\n      pop\n      pop\n      jump(tag_169)\n        /* \"contracts/1_ExecutableOracle.sol\":3835:3903  if (tokenId == nfts[i]) {... */\n    tag_177:\n        /* \"contracts/1_ExecutableOracle.sol\":3816:3819  i++ */\n      dup1\n      dup1\n      0x01\n      add\n      swap2\n      pop\n      pop\n        /* \"contracts/1_ExecutableOracle.sol\":3782:3913  for (uint i = 0; i < nfts.length; i++) {... */\n      jump(tag_172)\n    tag_173:\n      pop\n        /* \"contracts/1_ExecutableOracle.sol\":3929:3934  false */\n      0x00\n        /* \"contracts/1_ExecutableOracle.sol\":3922:3934  return false */\n      swap2\n      pop\n      pop\n        /* \"contracts/1_ExecutableOracle.sol\":3595:3941  function ERC721AlreadyStored(address tokenAddress, address user, uint256 tokenId) public view returns (bool) {... */\n    tag_169:\n      swap4\n      swap3\n      pop\n      pop\n      pop\n      jump\t// out\n        /* \"contracts/1_ExecutableOracle.sol\":533:553  address public owner */\n    tag_88:\n      0x00\n      dup1\n      sload\n      swap1\n      0x0100\n      exp\n      swap1\n      div\n      0xffffffffffffffffffffffffffffffffffffffff\n      and\n      dup2\n      jump\t// out\n        /* \"contracts/1_ExecutableOracle.sol\":2805:3152  function storeERC20(address tokenAddress, uint256 amount) public {... */\n    tag_95:\n        /* \"contracts/1_ExecutableOracle.sol\":2895:2907  tokenAddress */\n      dup2\n        /* \"contracts/1_ExecutableOracle.sol\":2888:2921  IERC20(tokenAddress).transferFrom */\n      0xffffffffffffffffffffffffffffffffffffffff\n      and\n      0x23b872dd\n        /* \"contracts/1_ExecutableOracle.sol\":2922:2932  msg.sender */\n      caller\n        /* \"contracts/1_ExecutableOracle.sol\":2942:2946  this */\n      address\n        /* \"contracts/1_ExecutableOracle.sol\":2949:2955  amount */\n      dup5\n        /* \"contracts/1_ExecutableOracle.sol\":2888:2956  IERC20(tokenAddress).transferFrom(msg.sender, address(this), amount) */\n      mload(0x40)\n      dup5\n      0xffffffff\n      and\n      0xe0\n      shl\n      dup2\n      mstore\n      0x04\n      add\n      tag_179\n      swap4\n      swap3\n      swap2\n      swap1\n      tag_180\n      jump\t// in\n    tag_179:\n      0x20\n      mload(0x40)\n      dup1\n      dup4\n      sub\n      dup2\n      0x00\n      dup8\n      gas\n      call\n      iszero\n      dup1\n      iszero\n      tag_182\n      jumpi\n      returndatasize\n      0x00\n      dup1\n      returndatacopy\n      revert(0x00, returndatasize)\n    tag_182:\n      pop\n      pop\n      pop\n      pop\n      mload(0x40)\n      returndatasize\n      not(0x1f)\n      0x1f\n      dup3\n      add\n      and\n      dup3\n      add\n      dup1\n      0x40\n      mstore\n      pop\n      dup2\n      add\n      swap1\n      tag_183\n      swap2\n      swap1\n      tag_160\n      jump\t// in\n    tag_183:\n        /* \"contracts/1_ExecutableOracle.sol\":2880:2976  require(IERC20(tokenAddress).transferFrom(msg.sender, address(this), amount), \"Transfer failed\") */\n      tag_184\n      jumpi\n      mload(0x40)\n      0x08c379a000000000000000000000000000000000000000000000000000000000\n      dup2\n      mstore\n      0x04\n      add\n      tag_185\n      swap1\n      tag_163\n      jump\t// in\n    tag_185:\n      mload(0x40)\n      dup1\n      swap2\n      sub\n      swap1\n      revert\n    tag_184:\n        /* \"contracts/1_ExecutableOracle.sol\":3028:3034  amount */\n      dup1\n        /* \"contracts/1_ExecutableOracle.sol\":2986:2998  ERC20Balance */\n      0x07\n        /* \"contracts/1_ExecutableOracle.sol\":2986:3010  ERC20Balance[msg.sender] */\n      0x00\n        /* \"contracts/1_ExecutableOracle.sol\":2999:3009  msg.sender */\n      caller\n        /* \"contracts/1_ExecutableOracle.sol\":2986:3010  ERC20Balance[msg.sender] */\n      0xffffffffffffffffffffffffffffffffffffffff\n      and\n      0xffffffffffffffffffffffffffffffffffffffff\n      and\n      dup2\n      mstore\n      0x20\n      add\n      swap1\n      dup2\n      mstore\n      0x20\n      add\n      0x00\n      keccak256\n        /* \"contracts/1_ExecutableOracle.sol\":2986:3024  ERC20Balance[msg.sender][tokenAddress] */\n      0x00\n        /* \"contracts/1_ExecutableOracle.sol\":3011:3023  tokenAddress */\n      dup5\n        /* \"contracts/1_ExecutableOracle.sol\":2986:3024  ERC20Balance[msg.sender][tokenAddress] */\n      0xffffffffffffffffffffffffffffffffffffffff\n      and\n      0xffffffffffffffffffffffffffffffffffffffff\n      and\n      dup2\n      mstore\n      0x20\n      add\n      swap1\n      dup2\n      mstore\n      0x20\n      add\n      0x00\n      keccak256\n      0x00\n        /* \"contracts/1_ExecutableOracle.sol\":2986:3034  ERC20Balance[msg.sender][tokenAddress] += amount */\n      dup3\n      dup3\n      sload\n      tag_186\n      swap2\n      swap1\n      tag_25\n      jump\t// in\n    tag_186:\n      swap3\n      pop\n      pop\n      dup2\n      swap1\n      sstore\n      pop\n        /* \"contracts/1_ExecutableOracle.sol\":3061:3062  1 */\n      0x01\n        /* \"contracts/1_ExecutableOracle.sol\":3044:3057  bridgeCounter */\n      dup1\n      0x00\n        /* \"contracts/1_ExecutableOracle.sol\":3044:3062  bridgeCounter += 1 */\n      dup3\n      dup3\n      sload\n      tag_187\n      swap2\n      swap1\n      tag_25\n      jump\t// in\n    tag_187:\n      swap3\n      pop\n      pop\n      dup2\n      swap1\n      sstore\n      pop\n        /* \"contracts/1_ExecutableOracle.sol\":3096:3108  tokenAddress */\n      dup2\n        /* \"contracts/1_ExecutableOracle.sol\":3077:3145  Bridge(msg.sender, tokenAddress, amount, 0, \"ERC-20\", bridgeCounter) */\n      0xffffffffffffffffffffffffffffffffffffffff\n      and\n        /* \"contracts/1_ExecutableOracle.sol\":3084:3094  msg.sender */\n      caller\n        /* \"contracts/1_ExecutableOracle.sol\":3077:3145  Bridge(msg.sender, tokenAddress, amount, 0, \"ERC-20\", bridgeCounter) */\n      0xffffffffffffffffffffffffffffffffffffffff\n      and\n      0xd470274636139438aa953eb5783fde481a87a2312194bd215b7d10558d19b43b\n        /* \"contracts/1_ExecutableOracle.sol\":3110:3116  amount */\n      dup4\n        /* \"contracts/1_ExecutableOracle.sol\":3118:3119  0 */\n      0x00\n        /* \"contracts/1_ExecutableOracle.sol\":3131:3144  bridgeCounter */\n      sload(0x01)\n        /* \"contracts/1_ExecutableOracle.sol\":3077:3145  Bridge(msg.sender, tokenAddress, amount, 0, \"ERC-20\", bridgeCounter) */\n      mload(0x40)\n      tag_188\n      swap4\n      swap3\n      swap2\n      swap1\n      tag_189\n      jump\t// in\n    tag_188:\n      mload(0x40)\n      dup1\n      swap2\n      sub\n      swap1\n      log3\n        /* \"contracts/1_ExecutableOracle.sol\":2805:3152  function storeERC20(address tokenAddress, uint256 amount) public {... */\n      pop\n      pop\n      jump\t// out\n        /* \"contracts/1_ExecutableOracle.sol\":3158:3589  function storeERC721(address tokenAddress, uint256 tokenId) public {... */\n    tag_99:\n        /* \"contracts/1_ExecutableOracle.sol\":3243:3255  tokenAddress */\n      dup2\n        /* \"contracts/1_ExecutableOracle.sol\":3235:3273  IERC721(tokenAddress).safeTransferFrom */\n      0xffffffffffffffffffffffffffffffffffffffff\n      and\n      0x42842e0e\n        /* \"contracts/1_ExecutableOracle.sol\":3274:3284  msg.sender */\n      caller\n        /* \"contracts/1_ExecutableOracle.sol\":3294:3298  this */\n      address\n        /* \"contracts/1_ExecutableOracle.sol\":3301:3308  tokenId */\n      dup5\n        /* \"contracts/1_ExecutableOracle.sol\":3235:3309  IERC721(tokenAddress).safeTransferFrom(msg.sender, address(this), tokenId) */\n      mload(0x40)\n      dup5\n      0xffffffff\n      and\n      0xe0\n      shl\n      dup2\n      mstore\n      0x04\n      add\n      tag_191\n      swap4\n      swap3\n      swap2\n      swap1\n      tag_180\n      jump\t// in\n    tag_191:\n      0x00\n      mload(0x40)\n      dup1\n      dup4\n      sub\n      dup2\n      0x00\n      dup8\n      dup1\n      extcodesize\n      iszero\n      dup1\n      iszero\n      tag_192\n      jumpi\n      0x00\n      dup1\n      revert\n    tag_192:\n      pop\n      gas\n      call\n      iszero\n      dup1\n      iszero\n      tag_194\n      jumpi\n      returndatasize\n      0x00\n      dup1\n      returndatacopy\n      revert(0x00, returndatasize)\n    tag_194:\n      pop\n      pop\n      pop\n      pop\n        /* \"contracts/1_ExecutableOracle.sol\":3328:3382  ERC721AlreadyStored(tokenAddress, msg.sender, tokenId) */\n      tag_195\n        /* \"contracts/1_ExecutableOracle.sol\":3348:3360  tokenAddress */\n      dup3\n        /* \"contracts/1_ExecutableOracle.sol\":3362:3372  msg.sender */\n      caller\n        /* \"contracts/1_ExecutableOracle.sol\":3374:3381  tokenId */\n      dup4\n        /* \"contracts/1_ExecutableOracle.sol\":3328:3347  ERC721AlreadyStored */\n      tag_83\n        /* \"contracts/1_ExecutableOracle.sol\":3328:3382  ERC721AlreadyStored(tokenAddress, msg.sender, tokenId) */\n      jump\t// in\n    tag_195:\n        /* \"contracts/1_ExecutableOracle.sol\":3327:3382  !ERC721AlreadyStored(tokenAddress, msg.sender, tokenId) */\n      iszero\n        /* \"contracts/1_ExecutableOracle.sol\":3319:3405  require(!ERC721AlreadyStored(tokenAddress, msg.sender, tokenId), \"NFT already stored\") */\n      tag_196\n      jumpi\n      mload(0x40)\n      0x08c379a000000000000000000000000000000000000000000000000000000000\n      dup2\n      mstore\n      0x04\n      add\n      tag_197\n      swap1\n      tag_198\n      jump\t// in\n    tag_197:\n      mload(0x40)\n      dup1\n      swap2\n      sub\n      swap1\n      revert\n    tag_196:\n        /* \"contracts/1_ExecutableOracle.sol\":3415:3429  ERC721Holdings */\n      0x08\n        /* \"contracts/1_ExecutableOracle.sol\":3415:3441  ERC721Holdings[msg.sender] */\n      0x00\n        /* \"contracts/1_ExecutableOracle.sol\":3430:3440  msg.sender */\n      caller\n        /* \"contracts/1_ExecutableOracle.sol\":3415:3441  ERC721Holdings[msg.sender] */\n      0xffffffffffffffffffffffffffffffffffffffff\n      and\n      0xffffffffffffffffffffffffffffffffffffffff\n      and\n      dup2\n      mstore\n      0x20\n      add\n      swap1\n      dup2\n      mstore\n      0x20\n      add\n      0x00\n      keccak256\n        /* \"contracts/1_ExecutableOracle.sol\":3415:3455  ERC721Holdings[msg.sender][tokenAddress] */\n      0x00\n        /* \"contracts/1_ExecutableOracle.sol\":3442:3454  tokenAddress */\n      dup4\n        /* \"contracts/1_ExecutableOracle.sol\":3415:3455  ERC721Holdings[msg.sender][tokenAddress] */\n      0xffffffffffffffffffffffffffffffffffffffff\n      and\n      0xffffffffffffffffffffffffffffffffffffffff\n      and\n      dup2\n      mstore\n      0x20\n      add\n      swap1\n      dup2\n      mstore\n      0x20\n      add\n      0x00\n      keccak256\n        /* \"contracts/1_ExecutableOracle.sol\":3461:3468  tokenId */\n      dup2\n        /* \"contracts/1_ExecutableOracle.sol\":3415:3469  ERC721Holdings[msg.sender][tokenAddress].push(tokenId) */\n      swap1\n      dup1\n      0x01\n      dup2\n      sload\n      add\n      dup1\n      dup3\n      sstore\n      dup1\n      swap2\n      pop\n      pop\n      0x01\n      swap1\n      sub\n      swap1\n      0x00\n      mstore\n      keccak256(0x00, 0x20)\n      add\n      0x00\n      swap1\n      swap2\n      swap1\n      swap2\n      swap1\n      swap2\n      pop\n      sstore\n        /* \"contracts/1_ExecutableOracle.sol\":3496:3497  1 */\n      0x01\n        /* \"contracts/1_ExecutableOracle.sol\":3479:3492  bridgeCounter */\n      dup1\n      0x00\n        /* \"contracts/1_ExecutableOracle.sol\":3479:3497  bridgeCounter += 1 */\n      dup3\n      dup3\n      sload\n      tag_200\n      swap2\n      swap1\n      tag_25\n      jump\t// in\n    tag_200:\n      swap3\n      pop\n      pop\n      dup2\n      swap1\n      sstore\n      pop\n        /* \"contracts/1_ExecutableOracle.sol\":3531:3543  tokenAddress */\n      dup2\n        /* \"contracts/1_ExecutableOracle.sol\":3512:3582  Bridge(msg.sender, tokenAddress, 0, tokenId, \"ERC-721\", bridgeCounter) */\n      0xffffffffffffffffffffffffffffffffffffffff\n      and\n        /* \"contracts/1_ExecutableOracle.sol\":3519:3529  msg.sender */\n      caller\n        /* \"contracts/1_ExecutableOracle.sol\":3512:3582  Bridge(msg.sender, tokenAddress, 0, tokenId, \"ERC-721\", bridgeCounter) */\n      0xffffffffffffffffffffffffffffffffffffffff\n      and\n      0xd470274636139438aa953eb5783fde481a87a2312194bd215b7d10558d19b43b\n        /* \"contracts/1_ExecutableOracle.sol\":3545:3546  0 */\n      0x00\n        /* \"contracts/1_ExecutableOracle.sol\":3548:3555  tokenId */\n      dup5\n        /* \"contracts/1_ExecutableOracle.sol\":3568:3581  bridgeCounter */\n      sload(0x01)\n        /* \"contracts/1_ExecutableOracle.sol\":3512:3582  Bridge(msg.sender, tokenAddress, 0, tokenId, \"ERC-721\", bridgeCounter) */\n      mload(0x40)\n      tag_201\n      swap4\n      swap3\n      swap2\n      swap1\n      tag_202\n      jump\t// in\n    tag_201:\n      mload(0x40)\n      dup1\n      swap2\n      sub\n      swap1\n      log3\n        /* \"contracts/1_ExecutableOracle.sol\":3158:3589  function storeERC721(address tokenAddress, uint256 tokenId) public {... */\n      pop\n      pop\n      jump\t// out\n        /* \"contracts/1_ExecutableOracle.sol\":2479:2628  function getERC20Balance(address tokenAddress, address user) external view returns (uint256) {... */\n    tag_103:\n        /* \"contracts/1_ExecutableOracle.sol\":2563:2570  uint256 */\n      0x00\n        /* \"contracts/1_ExecutableOracle.sol\":2589:2601  ERC20Balance */\n      0x07\n        /* \"contracts/1_ExecutableOracle.sol\":2589:2615  ERC20Balance[tokenAddress] */\n      0x00\n        /* \"contracts/1_ExecutableOracle.sol\":2602:2614  tokenAddress */\n      dup5\n        /* \"contracts/1_ExecutableOracle.sol\":2589:2615  ERC20Balance[tokenAddress] */\n      0xffffffffffffffffffffffffffffffffffffffff\n      and\n      0xffffffffffffffffffffffffffffffffffffffff\n      and\n      dup2\n      mstore\n      0x20\n      add\n      swap1\n      dup2\n      mstore\n      0x20\n      add\n      0x00\n      keccak256\n        /* \"contracts/1_ExecutableOracle.sol\":2589:2621  ERC20Balance[tokenAddress][user] */\n      0x00\n        /* \"contracts/1_ExecutableOracle.sol\":2616:2620  user */\n      dup4\n        /* \"contracts/1_ExecutableOracle.sol\":2589:2621  ERC20Balance[tokenAddress][user] */\n      0xffffffffffffffffffffffffffffffffffffffff\n      and\n      0xffffffffffffffffffffffffffffffffffffffff\n      and\n      dup2\n      mstore\n      0x20\n      add\n      swap1\n      dup2\n      mstore\n      0x20\n      add\n      0x00\n      keccak256\n      sload\n        /* \"contracts/1_ExecutableOracle.sol\":2582:2621  return ERC20Balance[tokenAddress][user] */\n      swap1\n      pop\n        /* \"contracts/1_ExecutableOracle.sol\":2479:2628  function getERC20Balance(address tokenAddress, address user) external view returns (uint256) {... */\n      swap3\n      swap2\n      pop\n      pop\n      jump\t// out\n        /* \"contracts/1_ExecutableOracle.sol\":4262:4763  function releaseERC721(address tokenAddress, address to, uint256 tokenId) public onlyOwner {... */\n    tag_108:\n        /* \"contracts/1_ExecutableOracle.sol\":1885:1890  owner */\n      0x00\n      dup1\n      sload\n      swap1\n      0x0100\n      exp\n      swap1\n      div\n      0xffffffffffffffffffffffffffffffffffffffff\n      and\n        /* \"contracts/1_ExecutableOracle.sol\":1871:1890  msg.sender == owner */\n      0xffffffffffffffffffffffffffffffffffffffff\n      and\n        /* \"contracts/1_ExecutableOracle.sol\":1871:1881  msg.sender */\n      caller\n        /* \"contracts/1_ExecutableOracle.sol\":1871:1890  msg.sender == owner */\n      0xffffffffffffffffffffffffffffffffffffffff\n      and\n      eq\n        /* \"contracts/1_ExecutableOracle.sol\":1863:1908  require(msg.sender == owner, \"Not the owner\") */\n      tag_205\n      jumpi\n      mload(0x40)\n      0x08c379a000000000000000000000000000000000000000000000000000000000\n      dup2\n      mstore\n      0x04\n      add\n      tag_206\n      swap1\n      tag_117\n      jump\t// in\n    tag_206:\n      mload(0x40)\n      dup1\n      swap2\n      sub\n      swap1\n      revert\n    tag_205:\n        /* \"contracts/1_ExecutableOracle.sol\":4371:4417  ERC721AlreadyStored(tokenAddress, to, tokenId) */\n      tag_208\n        /* \"contracts/1_ExecutableOracle.sol\":4391:4403  tokenAddress */\n      dup4\n        /* \"contracts/1_ExecutableOracle.sol\":4405:4407  to */\n      dup4\n        /* \"contracts/1_ExecutableOracle.sol\":4409:4416  tokenId */\n      dup4\n        /* \"contracts/1_ExecutableOracle.sol\":4371:4390  ERC721AlreadyStored */\n      tag_83\n        /* \"contracts/1_ExecutableOracle.sol\":4371:4417  ERC721AlreadyStored(tokenAddress, to, tokenId) */\n      jump\t// in\n    tag_208:\n        /* \"contracts/1_ExecutableOracle.sol\":4363:4436  require(ERC721AlreadyStored(tokenAddress, to, tokenId), \"NFT not stored\") */\n      tag_209\n      jumpi\n      mload(0x40)\n      0x08c379a000000000000000000000000000000000000000000000000000000000\n      dup2\n      mstore\n      0x04\n      add\n      tag_210\n      swap1\n      tag_211\n      jump\t// in\n    tag_210:\n      mload(0x40)\n      dup1\n      swap2\n      sub\n      swap1\n      revert\n    tag_209:\n        /* \"contracts/1_ExecutableOracle.sol\":4454:4466  tokenAddress */\n      dup3\n        /* \"contracts/1_ExecutableOracle.sol\":4446:4484  IERC721(tokenAddress).safeTransferFrom */\n      0xffffffffffffffffffffffffffffffffffffffff\n      and\n      0x42842e0e\n        /* \"contracts/1_ExecutableOracle.sol\":4493:4497  this */\n      address\n        /* \"contracts/1_ExecutableOracle.sol\":4500:4502  to */\n      dup5\n        /* \"contracts/1_ExecutableOracle.sol\":4504:4511  tokenId */\n      dup5\n        /* \"contracts/1_ExecutableOracle.sol\":4446:4512  IERC721(tokenAddress).safeTransferFrom(address(this), to, tokenId) */\n      mload(0x40)\n      dup5\n      0xffffffff\n      and\n      0xe0\n      shl\n      dup2\n      mstore\n      0x04\n      add\n      tag_212\n      swap4\n      swap3\n      swap2\n      swap1\n      tag_180\n      jump\t// in\n    tag_212:\n      0x00\n      mload(0x40)\n      dup1\n      dup4\n      sub\n      dup2\n      0x00\n      dup8\n      dup1\n      extcodesize\n      iszero\n      dup1\n      iszero\n      tag_213\n      jumpi\n      0x00\n      dup1\n      revert\n    tag_213:\n      pop\n      gas\n      call\n      iszero\n      dup1\n      iszero\n      tag_215\n      jumpi\n      returndatasize\n      0x00\n      dup1\n      returndatacopy\n      revert(0x00, returndatasize)\n    tag_215:\n      pop\n      pop\n      pop\n      pop\n        /* \"contracts/1_ExecutableOracle.sol\":4522:4535  uint NFTIndex */\n      0x00\n        /* \"contracts/1_ExecutableOracle.sol\":4538:4576  getNFTIndex(tokenAddress, to, tokenId) */\n      tag_216\n        /* \"contracts/1_ExecutableOracle.sol\":4550:4562  tokenAddress */\n      dup5\n        /* \"contracts/1_ExecutableOracle.sol\":4564:4566  to */\n      dup5\n        /* \"contracts/1_ExecutableOracle.sol\":4568:4575  tokenId */\n      dup5\n        /* \"contracts/1_ExecutableOracle.sol\":4538:4549  getNFTIndex */\n      tag_217\n        /* \"contracts/1_ExecutableOracle.sol\":4538:4576  getNFTIndex(tokenAddress, to, tokenId) */\n      jump\t// in\n    tag_216:\n        /* \"contracts/1_ExecutableOracle.sol\":4522:4576  uint NFTIndex = getNFTIndex(tokenAddress, to, tokenId) */\n      swap1\n      pop\n        /* \"contracts/1_ExecutableOracle.sol\":4631:4645  ERC721Holdings */\n      0x08\n        /* \"contracts/1_ExecutableOracle.sol\":4631:4649  ERC721Holdings[to] */\n      0x00\n        /* \"contracts/1_ExecutableOracle.sol\":4646:4648  to */\n      dup5\n        /* \"contracts/1_ExecutableOracle.sol\":4631:4649  ERC721Holdings[to] */\n      0xffffffffffffffffffffffffffffffffffffffff\n      and\n      0xffffffffffffffffffffffffffffffffffffffff\n      and\n      dup2\n      mstore\n      0x20\n      add\n      swap1\n      dup2\n      mstore\n      0x20\n      add\n      0x00\n      keccak256\n        /* \"contracts/1_ExecutableOracle.sol\":4631:4663  ERC721Holdings[to][tokenAddress] */\n      0x00\n        /* \"contracts/1_ExecutableOracle.sol\":4650:4662  tokenAddress */\n      dup6\n        /* \"contracts/1_ExecutableOracle.sol\":4631:4663  ERC721Holdings[to][tokenAddress] */\n      0xffffffffffffffffffffffffffffffffffffffff\n      and\n      0xffffffffffffffffffffffffffffffffffffffff\n      and\n      dup2\n      mstore\n      0x20\n      add\n      swap1\n      dup2\n      mstore\n      0x20\n      add\n      0x00\n      keccak256\n        /* \"contracts/1_ExecutableOracle.sol\":4706:4707  1 */\n      0x01\n        /* \"contracts/1_ExecutableOracle.sol\":4664:4678  ERC721Holdings */\n      0x08\n        /* \"contracts/1_ExecutableOracle.sol\":4664:4682  ERC721Holdings[to] */\n      0x00\n        /* \"contracts/1_ExecutableOracle.sol\":4679:4681  to */\n      dup7\n        /* \"contracts/1_ExecutableOracle.sol\":4664:4682  ERC721Holdings[to] */\n      0xffffffffffffffffffffffffffffffffffffffff\n      and\n      0xffffffffffffffffffffffffffffffffffffffff\n      and\n      dup2\n      mstore\n      0x20\n      add\n      swap1\n      dup2\n      mstore\n      0x20\n      add\n      0x00\n      keccak256\n        /* \"contracts/1_ExecutableOracle.sol\":4664:4696  ERC721Holdings[to][tokenAddress] */\n      0x00\n        /* \"contracts/1_ExecutableOracle.sol\":4683:4695  tokenAddress */\n      dup8\n        /* \"contracts/1_ExecutableOracle.sol\":4664:4696  ERC721Holdings[to][tokenAddress] */\n      0xffffffffffffffffffffffffffffffffffffffff\n      and\n      0xffffffffffffffffffffffffffffffffffffffff\n      and\n      dup2\n      mstore\n      0x20\n      add\n      swap1\n      dup2\n      mstore\n      0x20\n      add\n      0x00\n      keccak256\n        /* \"contracts/1_ExecutableOracle.sol\":4664:4703  ERC721Holdings[to][tokenAddress].length */\n      dup1\n      sload\n      swap1\n      pop\n        /* \"contracts/1_ExecutableOracle.sol\":4664:4707  ERC721Holdings[to][tokenAddress].length - 1 */\n      tag_218\n      swap2\n      swap1\n      tag_165\n      jump\t// in\n    tag_218:\n        /* \"contracts/1_ExecutableOracle.sol\":4631:4708  ERC721Holdings[to][tokenAddress][ERC721Holdings[to][tokenAddress].length - 1] */\n      dup2\n      sload\n      dup2\n      lt\n      tag_219\n      jumpi\n      tag_220\n      tag_124\n      jump\t// in\n    tag_220:\n    tag_219:\n      swap1\n      0x00\n      mstore\n      keccak256(0x00, 0x20)\n      add\n      sload\n        /* \"contracts/1_ExecutableOracle.sol\":4586:4600  ERC721Holdings */\n      0x08\n        /* \"contracts/1_ExecutableOracle.sol\":4586:4604  ERC721Holdings[to] */\n      0x00\n        /* \"contracts/1_ExecutableOracle.sol\":4601:4603  to */\n      dup6\n        /* \"contracts/1_ExecutableOracle.sol\":4586:4604  ERC721Holdings[to] */\n      0xffffffffffffffffffffffffffffffffffffffff\n      and\n      0xffffffffffffffffffffffffffffffffffffffff\n      and\n      dup2\n      mstore\n      0x20\n      add\n      swap1\n      dup2\n      mstore\n      0x20\n      add\n      0x00\n      keccak256\n        /* \"contracts/1_ExecutableOracle.sol\":4586:4618  ERC721Holdings[to][tokenAddress] */\n      0x00\n        /* \"contracts/1_ExecutableOracle.sol\":4605:4617  tokenAddress */\n      dup7\n        /* \"contracts/1_ExecutableOracle.sol\":4586:4618  ERC721Holdings[to][tokenAddress] */\n      0xffffffffffffffffffffffffffffffffffffffff\n      and\n      0xffffffffffffffffffffffffffffffffffffffff\n      and\n      dup2\n      mstore\n      0x20\n      add\n      swap1\n      dup2\n      mstore\n      0x20\n      add\n      0x00\n      keccak256\n        /* \"contracts/1_ExecutableOracle.sol\":4619:4627  NFTIndex */\n      dup3\n        /* \"contracts/1_ExecutableOracle.sol\":4586:4628  ERC721Holdings[to][tokenAddress][NFTIndex] */\n      dup2\n      sload\n      dup2\n      lt\n      tag_222\n      jumpi\n      tag_223\n      tag_124\n      jump\t// in\n    tag_223:\n    tag_222:\n      swap1\n      0x00\n      mstore\n      keccak256(0x00, 0x20)\n      add\n        /* \"contracts/1_ExecutableOracle.sol\":4586:4708  ERC721Holdings[to][tokenAddress][NFTIndex] = ERC721Holdings[to][tokenAddress][ERC721Holdings[to][tokenAddress].length - 1] */\n      dup2\n      swap1\n      sstore\n      pop\n        /* \"contracts/1_ExecutableOracle.sol\":4718:4732  ERC721Holdings */\n      0x08\n        /* \"contracts/1_ExecutableOracle.sol\":4718:4736  ERC721Holdings[to] */\n      0x00\n        /* \"contracts/1_ExecutableOracle.sol\":4733:4735  to */\n      dup5\n        /* \"contracts/1_ExecutableOracle.sol\":4718:4736  ERC721Holdings[to] */\n      0xffffffffffffffffffffffffffffffffffffffff\n      and\n      0xffffffffffffffffffffffffffffffffffffffff\n      and\n      dup2\n      mstore\n      0x20\n      add\n      swap1\n      dup2\n      mstore\n      0x20\n      add\n      0x00\n      keccak256\n        /* \"contracts/1_ExecutableOracle.sol\":4718:4750  ERC721Holdings[to][tokenAddress] */\n      0x00\n        /* \"contracts/1_ExecutableOracle.sol\":4737:4749  tokenAddress */\n      dup6\n        /* \"contracts/1_ExecutableOracle.sol\":4718:4750  ERC721Holdings[to][tokenAddress] */\n      0xffffffffffffffffffffffffffffffffffffffff\n      and\n      0xffffffffffffffffffffffffffffffffffffffff\n      and\n      dup2\n      mstore\n      0x20\n      add\n      swap1\n      dup2\n      mstore\n      0x20\n      add\n      0x00\n      keccak256\n        /* \"contracts/1_ExecutableOracle.sol\":4718:4756  ERC721Holdings[to][tokenAddress].pop() */\n      dup1\n      sload\n      dup1\n      tag_225\n      jumpi\n      tag_226\n      tag_227\n      jump\t// in\n    tag_226:\n    tag_225:\n      0x01\n      swap1\n      sub\n      dup2\n      dup2\n      swap1\n      0x00\n      mstore\n      keccak256(0x00, 0x20)\n      add\n      0x00\n      swap1\n      sstore\n      swap1\n      sstore\n        /* \"contracts/1_ExecutableOracle.sol\":4353:4763  {... */\n      pop\n        /* \"contracts/1_ExecutableOracle.sol\":4262:4763  function releaseERC721(address tokenAddress, address to, uint256 tokenId) public onlyOwner {... */\n      pop\n      pop\n      pop\n      jump\t// out\n        /* \"contracts/1_ExecutableOracle.sol\":1153:1198  mapping(address => uint256) public ethBalance */\n    tag_112:\n      mstore(0x20, 0x06)\n      dup1\n      0x00\n      mstore\n      keccak256(0x00, 0x40)\n      0x00\n      swap2\n      pop\n      swap1\n      pop\n      sload\n      dup2\n      jump\t// out\n        /* \"contracts/1_ExecutableOracle.sol\":4769:5187  function getNFTIndex(address tokenAddress, address user, uint256 tokenId) internal view returns (uint) {... */\n    tag_217:\n        /* \"contracts/1_ExecutableOracle.sol\":4866:4870  uint */\n      0x00\n        /* \"contracts/1_ExecutableOracle.sol\":4890:4938  ERC721AlreadyStored(tokenAddress, user, tokenId) */\n      tag_230\n        /* \"contracts/1_ExecutableOracle.sol\":4910:4922  tokenAddress */\n      dup5\n        /* \"contracts/1_ExecutableOracle.sol\":4924:4928  user */\n      dup5\n        /* \"contracts/1_ExecutableOracle.sol\":4930:4937  tokenId */\n      dup5\n        /* \"contracts/1_ExecutableOracle.sol\":4890:4909  ERC721AlreadyStored */\n      tag_83\n        /* \"contracts/1_ExecutableOracle.sol\":4890:4938  ERC721AlreadyStored(tokenAddress, user, tokenId) */\n      jump\t// in\n    tag_230:\n        /* \"contracts/1_ExecutableOracle.sol\":4882:4957  require(ERC721AlreadyStored(tokenAddress, user, tokenId), \"NFT not stored\") */\n      tag_231\n      jumpi\n      mload(0x40)\n      0x08c379a000000000000000000000000000000000000000000000000000000000\n      dup2\n      mstore\n      0x04\n      add\n      tag_232\n      swap1\n      tag_211\n      jump\t// in\n    tag_232:\n      mload(0x40)\n      dup1\n      swap2\n      sub\n      swap1\n      revert\n    tag_231:\n        /* \"contracts/1_ExecutableOracle.sol\":4967:4988  uint256[] memory nfts */\n      0x00\n        /* \"contracts/1_ExecutableOracle.sol\":4991:5005  ERC721Holdings */\n      0x08\n        /* \"contracts/1_ExecutableOracle.sol\":4991:5011  ERC721Holdings[user] */\n      0x00\n        /* \"contracts/1_ExecutableOracle.sol\":5006:5010  user */\n      dup6\n        /* \"contracts/1_ExecutableOracle.sol\":4991:5011  ERC721Holdings[user] */\n      0xffffffffffffffffffffffffffffffffffffffff\n      and\n      0xffffffffffffffffffffffffffffffffffffffff\n      and\n      dup2\n      mstore\n      0x20\n      add\n      swap1\n      dup2\n      mstore\n      0x20\n      add\n      0x00\n      keccak256\n        /* \"contracts/1_ExecutableOracle.sol\":4991:5025  ERC721Holdings[user][tokenAddress] */\n      0x00\n        /* \"contracts/1_ExecutableOracle.sol\":5012:5024  tokenAddress */\n      dup7\n        /* \"contracts/1_ExecutableOracle.sol\":4991:5025  ERC721Holdings[user][tokenAddress] */\n      0xffffffffffffffffffffffffffffffffffffffff\n      and\n      0xffffffffffffffffffffffffffffffffffffffff\n      and\n      dup2\n      mstore\n      0x20\n      add\n      swap1\n      dup2\n      mstore\n      0x20\n      add\n      0x00\n      keccak256\n        /* \"contracts/1_ExecutableOracle.sol\":4967:5025  uint256[] memory nfts = ERC721Holdings[user][tokenAddress] */\n      dup1\n      sload\n      dup1\n      0x20\n      mul\n      0x20\n      add\n      mload(0x40)\n      swap1\n      dup2\n      add\n      0x40\n      mstore\n      dup1\n      swap3\n      swap2\n      swap1\n      dup2\n      dup2\n      mstore\n      0x20\n      add\n      dup3\n      dup1\n      sload\n      dup1\n      iszero\n      tag_233\n      jumpi\n      0x20\n      mul\n      dup3\n      add\n      swap2\n      swap1\n      0x00\n      mstore\n      keccak256(0x00, 0x20)\n      swap1\n    tag_234:\n      dup2\n      sload\n      dup2\n      mstore\n      0x20\n      add\n      swap1\n      0x01\n      add\n      swap1\n      dup1\n      dup4\n      gt\n      tag_234\n      jumpi\n    tag_233:\n      pop\n      pop\n      pop\n      pop\n      pop\n      swap1\n      pop\n        /* \"contracts/1_ExecutableOracle.sol\":5040:5046  uint i */\n      0x00\n        /* \"contracts/1_ExecutableOracle.sol\":5035:5163  for (uint i = 0; i < nfts.length; i++) {... */\n    tag_235:\n        /* \"contracts/1_ExecutableOracle.sol\":5056:5060  nfts */\n      dup2\n        /* \"contracts/1_ExecutableOracle.sol\":5056:5067  nfts.length */\n      mload\n        /* \"contracts/1_ExecutableOracle.sol\":5052:5053  i */\n      dup2\n        /* \"contracts/1_ExecutableOracle.sol\":5052:5067  i < nfts.length */\n      lt\n        /* \"contracts/1_ExecutableOracle.sol\":5035:5163  for (uint i = 0; i < nfts.length; i++) {... */\n      iszero\n      tag_236\n      jumpi\n        /* \"contracts/1_ExecutableOracle.sol\":5103:5107  nfts */\n      dup2\n        /* \"contracts/1_ExecutableOracle.sol\":5108:5109  i */\n      dup2\n        /* \"contracts/1_ExecutableOracle.sol\":5103:5110  nfts[i] */\n      dup2\n      mload\n      dup2\n      lt\n      tag_238\n      jumpi\n      tag_239\n      tag_124\n      jump\t// in\n    tag_239:\n    tag_238:\n      0x20\n      mul\n      0x20\n      add\n      add\n      mload\n        /* \"contracts/1_ExecutableOracle.sol\":5092:5099  tokenId */\n      dup5\n        /* \"contracts/1_ExecutableOracle.sol\":5092:5110  tokenId == nfts[i] */\n      sub\n        /* \"contracts/1_ExecutableOracle.sol\":5088:5153  if (tokenId == nfts[i]) {... */\n      tag_240\n      jumpi\n        /* \"contracts/1_ExecutableOracle.sol\":5137:5138  i */\n      dup1\n        /* \"contracts/1_ExecutableOracle.sol\":5130:5138  return i */\n      swap3\n      pop\n      pop\n      pop\n      jump(tag_229)\n        /* \"contracts/1_ExecutableOracle.sol\":5088:5153  if (tokenId == nfts[i]) {... */\n    tag_240:\n        /* \"contracts/1_ExecutableOracle.sol\":5069:5072  i++ */\n      dup1\n      dup1\n      0x01\n      add\n      swap2\n      pop\n      pop\n        /* \"contracts/1_ExecutableOracle.sol\":5035:5163  for (uint i = 0; i < nfts.length; i++) {... */\n      jump(tag_235)\n    tag_236:\n      pop\n        /* \"contracts/1_ExecutableOracle.sol\":5179:5180  0 */\n      0x00\n        /* \"contracts/1_ExecutableOracle.sol\":5172:5180  return 0 */\n      swap2\n      pop\n      pop\n        /* \"contracts/1_ExecutableOracle.sol\":4769:5187  function getNFTIndex(address tokenAddress, address user, uint256 tokenId) internal view returns (uint) {... */\n    tag_229:\n      swap4\n      swap3\n      pop\n      pop\n      pop\n      jump\t// out\n        /* \"#utility.yul\":7:84   */\n    tag_241:\n        /* \"#utility.yul\":44:51   */\n      0x00\n        /* \"#utility.yul\":73:78   */\n      dup2\n        /* \"#utility.yul\":62:78   */\n      swap1\n      pop\n        /* \"#utility.yul\":7:84   */\n      swap2\n      swap1\n      pop\n      jump\t// out\n        /* \"#utility.yul\":90:270   */\n    tag_242:\n        /* \"#utility.yul\":138:215   */\n      0x4e487b7100000000000000000000000000000000000000000000000000000000\n        /* \"#utility.yul\":135:136   */\n      0x00\n        /* \"#utility.yul\":128:216   */\n      mstore\n        /* \"#utility.yul\":235:239   */\n      0x11\n        /* \"#utility.yul\":232:233   */\n      0x04\n        /* \"#utility.yul\":225:240   */\n      mstore\n        /* \"#utility.yul\":259:263   */\n      0x24\n        /* \"#utility.yul\":256:257   */\n      0x00\n        /* \"#utility.yul\":249:264   */\n      revert\n        /* \"#utility.yul\":276:467   */\n    tag_25:\n        /* \"#utility.yul\":316:319   */\n      0x00\n        /* \"#utility.yul\":335:355   */\n      tag_328\n        /* \"#utility.yul\":353:354   */\n      dup3\n        /* \"#utility.yul\":335:355   */\n      tag_241\n      jump\t// in\n    tag_328:\n        /* \"#utility.yul\":330:355   */\n      swap2\n      pop\n        /* \"#utility.yul\":369:389   */\n      tag_329\n        /* \"#utility.yul\":387:388   */\n      dup4\n        /* \"#utility.yul\":369:389   */\n      tag_241\n      jump\t// in\n    tag_329:\n        /* \"#utility.yul\":364:389   */\n      swap3\n      pop\n        /* \"#utility.yul\":412:413   */\n      dup3\n        /* \"#utility.yul\":409:410   */\n      dup3\n        /* \"#utility.yul\":405:414   */\n      add\n        /* \"#utility.yul\":398:414   */\n      swap1\n      pop\n        /* \"#utility.yul\":433:436   */\n      dup1\n        /* \"#utility.yul\":430:431   */\n      dup3\n        /* \"#utility.yul\":427:437   */\n      gt\n        /* \"#utility.yul\":424:460   */\n      iszero\n      tag_330\n      jumpi\n        /* \"#utility.yul\":440:458   */\n      tag_331\n      tag_242\n      jump\t// in\n    tag_331:\n        /* \"#utility.yul\":424:460   */\n    tag_330:\n        /* \"#utility.yul\":276:467   */\n      swap3\n      swap2\n      pop\n      pop\n      jump\t// out\n        /* \"#utility.yul\":473:591   */\n    tag_243:\n        /* \"#utility.yul\":560:584   */\n      tag_333\n        /* \"#utility.yul\":578:583   */\n      dup2\n        /* \"#utility.yul\":560:584   */\n      tag_241\n      jump\t// in\n    tag_333:\n        /* \"#utility.yul\":555:558   */\n      dup3\n        /* \"#utility.yul\":548:585   */\n      mstore\n        /* \"#utility.yul\":473:591   */\n      pop\n      pop\n      jump\t// out\n        /* \"#utility.yul\":597:682   */\n    tag_244:\n        /* \"#utility.yul\":642:649   */\n      0x00\n        /* \"#utility.yul\":671:676   */\n      dup2\n        /* \"#utility.yul\":660:676   */\n      swap1\n      pop\n        /* \"#utility.yul\":597:682   */\n      swap2\n      swap1\n      pop\n      jump\t// out\n        /* \"#utility.yul\":688:748   */\n    tag_245:\n        /* \"#utility.yul\":716:719   */\n      0x00\n        /* \"#utility.yul\":737:742   */\n      dup2\n        /* \"#utility.yul\":730:742   */\n      swap1\n      pop\n        /* \"#utility.yul\":688:748   */\n      swap2\n      swap1\n      pop\n      jump\t// out\n        /* \"#utility.yul\":754:912   */\n    tag_246:\n        /* \"#utility.yul\":812:821   */\n      0x00\n        /* \"#utility.yul\":845:906   */\n      tag_337\n        /* \"#utility.yul\":863:905   */\n      tag_338\n        /* \"#utility.yul\":872:904   */\n      tag_339\n        /* \"#utility.yul\":898:903   */\n      dup5\n        /* \"#utility.yul\":872:904   */\n      tag_244\n      jump\t// in\n    tag_339:\n        /* \"#utility.yul\":863:905   */\n      tag_245\n      jump\t// in\n    tag_338:\n        /* \"#utility.yul\":845:906   */\n      tag_241\n      jump\t// in\n    tag_337:\n        /* \"#utility.yul\":832:906   */\n      swap1\n      pop\n        /* \"#utility.yul\":754:912   */\n      swap2\n      swap1\n      pop\n      jump\t// out\n        /* \"#utility.yul\":918:1065   */\n    tag_247:\n        /* \"#utility.yul\":1013:1058   */\n      tag_341\n        /* \"#utility.yul\":1052:1057   */\n      dup2\n        /* \"#utility.yul\":1013:1058   */\n      tag_246\n      jump\t// in\n    tag_341:\n        /* \"#utility.yul\":1008:1011   */\n      dup3\n        /* \"#utility.yul\":1001:1059   */\n      mstore\n        /* \"#utility.yul\":918:1065   */\n      pop\n      pop\n      jump\t// out\n        /* \"#utility.yul\":1071:1240   */\n    tag_248:\n        /* \"#utility.yul\":1155:1166   */\n      0x00\n        /* \"#utility.yul\":1189:1195   */\n      dup3\n        /* \"#utility.yul\":1184:1187   */\n      dup3\n        /* \"#utility.yul\":1177:1196   */\n      mstore\n        /* \"#utility.yul\":1229:1233   */\n      0x20\n        /* \"#utility.yul\":1224:1227   */\n      dup3\n        /* \"#utility.yul\":1220:1234   */\n      add\n        /* \"#utility.yul\":1205:1234   */\n      swap1\n      pop\n        /* \"#utility.yul\":1071:1240   */\n      swap3\n      swap2\n      pop\n      pop\n      jump\t// out\n        /* \"#utility.yul\":1246:1399   */\n    tag_249:\n        /* \"#utility.yul\":1386:1391   */\n      0x4554480000000000000000000000000000000000000000000000000000000000\n        /* \"#utility.yul\":1382:1383   */\n      0x00\n        /* \"#utility.yul\":1374:1380   */\n      dup3\n        /* \"#utility.yul\":1370:1384   */\n      add\n        /* \"#utility.yul\":1363:1392   */\n      mstore\n        /* \"#utility.yul\":1246:1399   */\n      pop\n      jump\t// out\n        /* \"#utility.yul\":1405:1770   */\n    tag_250:\n        /* \"#utility.yul\":1547:1550   */\n      0x00\n        /* \"#utility.yul\":1568:1634   */\n      tag_345\n        /* \"#utility.yul\":1632:1633   */\n      0x03\n        /* \"#utility.yul\":1627:1630   */\n      dup4\n        /* \"#utility.yul\":1568:1634   */\n      tag_248\n      jump\t// in\n    tag_345:\n        /* \"#utility.yul\":1561:1634   */\n      swap2\n      pop\n        /* \"#utility.yul\":1643:1736   */\n      tag_346\n        /* \"#utility.yul\":1732:1735   */\n      dup3\n        /* \"#utility.yul\":1643:1736   */\n      tag_249\n      jump\t// in\n    tag_346:\n        /* \"#utility.yul\":1761:1763   */\n      0x20\n        /* \"#utility.yul\":1756:1759   */\n      dup3\n        /* \"#utility.yul\":1752:1764   */\n      add\n        /* \"#utility.yul\":1745:1764   */\n      swap1\n      pop\n        /* \"#utility.yul\":1405:1770   */\n      swap2\n      swap1\n      pop\n      jump\t// out\n        /* \"#utility.yul\":1776:2542   */\n    tag_28:\n        /* \"#utility.yul\":2034:2038   */\n      0x00\n        /* \"#utility.yul\":2072:2075   */\n      0x80\n        /* \"#utility.yul\":2061:2070   */\n      dup3\n        /* \"#utility.yul\":2057:2076   */\n      add\n        /* \"#utility.yul\":2049:2076   */\n      swap1\n      pop\n        /* \"#utility.yul\":2086:2157   */\n      tag_348\n        /* \"#utility.yul\":2154:2155   */\n      0x00\n        /* \"#utility.yul\":2143:2152   */\n      dup4\n        /* \"#utility.yul\":2139:2156   */\n      add\n        /* \"#utility.yul\":2130:2136   */\n      dup7\n        /* \"#utility.yul\":2086:2157   */\n      tag_243\n      jump\t// in\n    tag_348:\n        /* \"#utility.yul\":2167:2247   */\n      tag_349\n        /* \"#utility.yul\":2243:2245   */\n      0x20\n        /* \"#utility.yul\":2232:2241   */\n      dup4\n        /* \"#utility.yul\":2228:2246   */\n      add\n        /* \"#utility.yul\":2219:2225   */\n      dup6\n        /* \"#utility.yul\":2167:2247   */\n      tag_247\n      jump\t// in\n    tag_349:\n        /* \"#utility.yul\":2294:2303   */\n      dup2\n        /* \"#utility.yul\":2288:2292   */\n      dup2\n        /* \"#utility.yul\":2284:2304   */\n      sub\n        /* \"#utility.yul\":2279:2281   */\n      0x40\n        /* \"#utility.yul\":2268:2277   */\n      dup4\n        /* \"#utility.yul\":2264:2282   */\n      add\n        /* \"#utility.yul\":2257:2305   */\n      mstore\n        /* \"#utility.yul\":2322:2453   */\n      tag_350\n        /* \"#utility.yul\":2448:2452   */\n      dup2\n        /* \"#utility.yul\":2322:2453   */\n      tag_250\n      jump\t// in\n    tag_350:\n        /* \"#utility.yul\":2314:2453   */\n      swap1\n      pop\n        /* \"#utility.yul\":2463:2535   */\n      tag_351\n        /* \"#utility.yul\":2531:2533   */\n      0x60\n        /* \"#utility.yul\":2520:2529   */\n      dup4\n        /* \"#utility.yul\":2516:2534   */\n      add\n        /* \"#utility.yul\":2507:2513   */\n      dup5\n        /* \"#utility.yul\":2463:2535   */\n      tag_243\n      jump\t// in\n    tag_351:\n        /* \"#utility.yul\":1776:2542   */\n      swap5\n      swap4\n      pop\n      pop\n      pop\n      pop\n      jump\t// out\n        /* \"#utility.yul\":2629:2746   */\n    tag_252:\n        /* \"#utility.yul\":2738:2739   */\n      0x00\n        /* \"#utility.yul\":2735:2736   */\n      dup1\n        /* \"#utility.yul\":2728:2740   */\n      revert\n        /* \"#utility.yul\":2752:2869   */\n    tag_253:\n        /* \"#utility.yul\":2861:2862   */\n      0x00\n        /* \"#utility.yul\":2858:2859   */\n      dup1\n        /* \"#utility.yul\":2851:2863   */\n      revert\n        /* \"#utility.yul\":2875:2992   */\n    tag_254:\n        /* \"#utility.yul\":2984:2985   */\n      0x00\n        /* \"#utility.yul\":2981:2982   */\n      dup1\n        /* \"#utility.yul\":2974:2986   */\n      revert\n        /* \"#utility.yul\":2998:3115   */\n    tag_255:\n        /* \"#utility.yul\":3107:3108   */\n      0x00\n        /* \"#utility.yul\":3104:3105   */\n      dup1\n        /* \"#utility.yul\":3097:3109   */\n      revert\n        /* \"#utility.yul\":3121:3238   */\n    tag_256:\n        /* \"#utility.yul\":3230:3231   */\n      0x00\n        /* \"#utility.yul\":3227:3228   */\n      dup1\n        /* \"#utility.yul\":3220:3232   */\n      revert\n        /* \"#utility.yul\":3261:3829   */\n    tag_257:\n        /* \"#utility.yul\":3334:3342   */\n      0x00\n        /* \"#utility.yul\":3344:3350   */\n      dup1\n        /* \"#utility.yul\":3394:3397   */\n      dup4\n        /* \"#utility.yul\":3387:3391   */\n      0x1f\n        /* \"#utility.yul\":3379:3385   */\n      dup5\n        /* \"#utility.yul\":3375:3392   */\n      add\n        /* \"#utility.yul\":3371:3398   */\n      slt\n        /* \"#utility.yul\":3361:3483   */\n      tag_359\n      jumpi\n        /* \"#utility.yul\":3402:3481   */\n      tag_360\n      tag_254\n      jump\t// in\n    tag_360:\n        /* \"#utility.yul\":3361:3483   */\n    tag_359:\n        /* \"#utility.yul\":3515:3521   */\n      dup3\n        /* \"#utility.yul\":3502:3522   */\n      calldataload\n        /* \"#utility.yul\":3492:3522   */\n      swap1\n      pop\n        /* \"#utility.yul\":3545:3563   */\n      0xffffffffffffffff\n        /* \"#utility.yul\":3537:3543   */\n      dup2\n        /* \"#utility.yul\":3534:3564   */\n      gt\n        /* \"#utility.yul\":3531:3648   */\n      iszero\n      tag_361\n      jumpi\n        /* \"#utility.yul\":3567:3646   */\n      tag_362\n      tag_255\n      jump\t// in\n    tag_362:\n        /* \"#utility.yul\":3531:3648   */\n    tag_361:\n        /* \"#utility.yul\":3681:3685   */\n      0x20\n        /* \"#utility.yul\":3673:3679   */\n      dup4\n        /* \"#utility.yul\":3669:3686   */\n      add\n        /* \"#utility.yul\":3657:3686   */\n      swap2\n      pop\n        /* \"#utility.yul\":3735:3738   */\n      dup4\n        /* \"#utility.yul\":3727:3731   */\n      0x20\n        /* \"#utility.yul\":3719:3725   */\n      dup3\n        /* \"#utility.yul\":3715:3732   */\n      mul\n        /* \"#utility.yul\":3705:3713   */\n      dup4\n        /* \"#utility.yul\":3701:3733   */\n      add\n        /* \"#utility.yul\":3698:3739   */\n      gt\n        /* \"#utility.yul\":3695:3823   */\n      iszero\n      tag_363\n      jumpi\n        /* \"#utility.yul\":3742:3821   */\n      tag_364\n      tag_256\n      jump\t// in\n    tag_364:\n        /* \"#utility.yul\":3695:3823   */\n    tag_363:\n        /* \"#utility.yul\":3261:3829   */\n      swap3\n      pop\n      swap3\n      swap1\n      pop\n      jump\t// out\n        /* \"#utility.yul\":3835:3952   */\n    tag_258:\n        /* \"#utility.yul\":3944:3945   */\n      0x00\n        /* \"#utility.yul\":3941:3942   */\n      dup1\n        /* \"#utility.yul\":3934:3946   */\n      revert\n        /* \"#utility.yul\":3999:4230   */\n    tag_259:\n        /* \"#utility.yul\":4072:4077   */\n      0x00\n        /* \"#utility.yul\":4113:4115   */\n      0x40\n        /* \"#utility.yul\":4104:4110   */\n      dup3\n        /* \"#utility.yul\":4099:4102   */\n      dup5\n        /* \"#utility.yul\":4095:4111   */\n      sub\n        /* \"#utility.yul\":4091:4116   */\n      slt\n        /* \"#utility.yul\":4088:4200   */\n      iszero\n      tag_367\n      jumpi\n        /* \"#utility.yul\":4119:4198   */\n      tag_368\n      tag_258\n      jump\t// in\n    tag_368:\n        /* \"#utility.yul\":4088:4200   */\n    tag_367:\n        /* \"#utility.yul\":4218:4224   */\n      dup2\n        /* \"#utility.yul\":4209:4224   */\n      swap1\n      pop\n        /* \"#utility.yul\":3999:4230   */\n      swap3\n      swap2\n      pop\n      pop\n      jump\t// out\n        /* \"#utility.yul\":4236:4994   */\n    tag_32:\n        /* \"#utility.yul\":4358:4364   */\n      0x00\n        /* \"#utility.yul\":4366:4372   */\n      dup1\n        /* \"#utility.yul\":4374:4380   */\n      0x00\n        /* \"#utility.yul\":4423:4425   */\n      0x60\n        /* \"#utility.yul\":4411:4420   */\n      dup5\n        /* \"#utility.yul\":4402:4409   */\n      dup7\n        /* \"#utility.yul\":4398:4421   */\n      sub\n        /* \"#utility.yul\":4394:4426   */\n      slt\n        /* \"#utility.yul\":4391:4510   */\n      iszero\n      tag_370\n      jumpi\n        /* \"#utility.yul\":4429:4508   */\n      tag_371\n      tag_252\n      jump\t// in\n    tag_371:\n        /* \"#utility.yul\":4391:4510   */\n    tag_370:\n        /* \"#utility.yul\":4577:4578   */\n      0x00\n        /* \"#utility.yul\":4566:4575   */\n      dup5\n        /* \"#utility.yul\":4562:4579   */\n      add\n        /* \"#utility.yul\":4549:4580   */\n      calldataload\n        /* \"#utility.yul\":4607:4625   */\n      0xffffffffffffffff\n        /* \"#utility.yul\":4599:4605   */\n      dup2\n        /* \"#utility.yul\":4596:4626   */\n      gt\n        /* \"#utility.yul\":4593:4710   */\n      iszero\n      tag_372\n      jumpi\n        /* \"#utility.yul\":4629:4708   */\n      tag_373\n      tag_253\n      jump\t// in\n    tag_373:\n        /* \"#utility.yul\":4593:4710   */\n    tag_372:\n        /* \"#utility.yul\":4742:4822   */\n      tag_374\n        /* \"#utility.yul\":4814:4821   */\n      dup7\n        /* \"#utility.yul\":4805:4811   */\n      dup3\n        /* \"#utility.yul\":4794:4803   */\n      dup8\n        /* \"#utility.yul\":4790:4812   */\n      add\n        /* \"#utility.yul\":4742:4822   */\n      tag_257\n      jump\t// in\n    tag_374:\n        /* \"#utility.yul\":4724:4822   */\n      swap4\n      pop\n      swap4\n      pop\n        /* \"#utility.yul\":4520:4832   */\n      pop\n        /* \"#utility.yul\":4871:4873   */\n      0x20\n        /* \"#utility.yul\":4897:4977   */\n      tag_375\n        /* \"#utility.yul\":4969:4976   */\n      dup7\n        /* \"#utility.yul\":4960:4966   */\n      dup3\n        /* \"#utility.yul\":4949:4958   */\n      dup8\n        /* \"#utility.yul\":4945:4967   */\n      add\n        /* \"#utility.yul\":4897:4977   */\n      tag_259\n      jump\t// in\n    tag_375:\n        /* \"#utility.yul\":4887:4977   */\n      swap2\n      pop\n        /* \"#utility.yul\":4842:4987   */\n      pop\n        /* \"#utility.yul\":4236:4994   */\n      swap3\n      pop\n      swap3\n      pop\n      swap3\n      jump\t// out\n        /* \"#utility.yul\":5000:5126   */\n    tag_260:\n        /* \"#utility.yul\":5037:5044   */\n      0x00\n        /* \"#utility.yul\":5077:5119   */\n      0xffffffffffffffffffffffffffffffffffffffff\n        /* \"#utility.yul\":5070:5075   */\n      dup3\n        /* \"#utility.yul\":5066:5120   */\n      and\n        /* \"#utility.yul\":5055:5120   */\n      swap1\n      pop\n        /* \"#utility.yul\":5000:5126   */\n      swap2\n      swap1\n      pop\n      jump\t// out\n        /* \"#utility.yul\":5132:5228   */\n    tag_261:\n        /* \"#utility.yul\":5169:5176   */\n      0x00\n        /* \"#utility.yul\":5198:5222   */\n      tag_378\n        /* \"#utility.yul\":5216:5221   */\n      dup3\n        /* \"#utility.yul\":5198:5222   */\n      tag_260\n      jump\t// in\n    tag_378:\n        /* \"#utility.yul\":5187:5222   */\n      swap1\n      pop\n        /* \"#utility.yul\":5132:5228   */\n      swap2\n      swap1\n      pop\n      jump\t// out\n        /* \"#utility.yul\":5234:5356   */\n    tag_262:\n        /* \"#utility.yul\":5307:5331   */\n      tag_380\n        /* \"#utility.yul\":5325:5330   */\n      dup2\n        /* \"#utility.yul\":5307:5331   */\n      tag_261\n      jump\t// in\n    tag_380:\n        /* \"#utility.yul\":5300:5305   */\n      dup2\n        /* \"#utility.yul\":5297:5332   */\n      eq\n        /* \"#utility.yul\":5287:5350   */\n      tag_381\n      jumpi\n        /* \"#utility.yul\":5346:5347   */\n      0x00\n        /* \"#utility.yul\":5343:5344   */\n      dup1\n        /* \"#utility.yul\":5336:5348   */\n      revert\n        /* \"#utility.yul\":5287:5350   */\n    tag_381:\n        /* \"#utility.yul\":5234:5356   */\n      pop\n      jump\t// out\n        /* \"#utility.yul\":5362:5501   */\n    tag_263:\n        /* \"#utility.yul\":5408:5413   */\n      0x00\n        /* \"#utility.yul\":5446:5452   */\n      dup2\n        /* \"#utility.yul\":5433:5453   */\n      calldataload\n        /* \"#utility.yul\":5424:5453   */\n      swap1\n      pop\n        /* \"#utility.yul\":5462:5495   */\n      tag_383\n        /* \"#utility.yul\":5489:5494   */\n      dup2\n        /* \"#utility.yul\":5462:5495   */\n      tag_262\n      jump\t// in\n    tag_383:\n        /* \"#utility.yul\":5362:5501   */\n      swap3\n      swap2\n      pop\n      pop\n      jump\t// out\n        /* \"#utility.yul\":5507:5836   */\n    tag_37:\n        /* \"#utility.yul\":5566:5572   */\n      0x00\n        /* \"#utility.yul\":5615:5617   */\n      0x20\n        /* \"#utility.yul\":5603:5612   */\n      dup3\n        /* \"#utility.yul\":5594:5601   */\n      dup5\n        /* \"#utility.yul\":5590:5613   */\n      sub\n        /* \"#utility.yul\":5586:5618   */\n      slt\n        /* \"#utility.yul\":5583:5702   */\n      iszero\n      tag_385\n      jumpi\n        /* \"#utility.yul\":5621:5700   */\n      tag_386\n      tag_252\n      jump\t// in\n    tag_386:\n        /* \"#utility.yul\":5583:5702   */\n    tag_385:\n        /* \"#utility.yul\":5741:5742   */\n      0x00\n        /* \"#utility.yul\":5766:5819   */\n      tag_387\n        /* \"#utility.yul\":5811:5818   */\n      dup5\n        /* \"#utility.yul\":5802:5808   */\n      dup3\n        /* \"#utility.yul\":5791:5800   */\n      dup6\n        /* \"#utility.yul\":5787:5809   */\n      add\n        /* \"#utility.yul\":5766:5819   */\n      tag_263\n      jump\t// in\n    tag_387:\n        /* \"#utility.yul\":5756:5819   */\n      swap2\n      pop\n        /* \"#utility.yul\":5712:5829   */\n      pop\n        /* \"#utility.yul\":5507:5836   */\n      swap3\n      swap2\n      pop\n      pop\n      jump\t// out\n        /* \"#utility.yul\":5842:5919   */\n    tag_264:\n        /* \"#utility.yul\":5879:5886   */\n      0x00\n        /* \"#utility.yul\":5908:5913   */\n      dup2\n        /* \"#utility.yul\":5897:5913   */\n      swap1\n      pop\n        /* \"#utility.yul\":5842:5919   */\n      swap2\n      swap1\n      pop\n      jump\t// out\n        /* \"#utility.yul\":5925:6043   */\n    tag_265:\n        /* \"#utility.yul\":6012:6036   */\n      tag_390\n        /* \"#utility.yul\":6030:6035   */\n      dup2\n        /* \"#utility.yul\":6012:6036   */\n      tag_264\n      jump\t// in\n    tag_390:\n        /* \"#utility.yul\":6007:6010   */\n      dup3\n        /* \"#utility.yul\":6000:6037   */\n      mstore\n        /* \"#utility.yul\":5925:6043   */\n      pop\n      pop\n      jump\t// out\n        /* \"#utility.yul\":6049:6167   */\n    tag_266:\n        /* \"#utility.yul\":6086:6093   */\n      0x00\n        /* \"#utility.yul\":6126:6160   */\n      0xffffffffffffffffffffffffffffffff\n        /* \"#utility.yul\":6119:6124   */\n      dup3\n        /* \"#utility.yul\":6115:6161   */\n      and\n        /* \"#utility.yul\":6104:6161   */\n      swap1\n      pop\n        /* \"#utility.yul\":6049:6167   */\n      swap2\n      swap1\n      pop\n      jump\t// out\n        /* \"#utility.yul\":6173:6291   */\n    tag_267:\n        /* \"#utility.yul\":6260:6284   */\n      tag_393\n        /* \"#utility.yul\":6278:6283   */\n      dup2\n        /* \"#utility.yul\":6260:6284   */\n      tag_266\n      jump\t// in\n    tag_393:\n        /* \"#utility.yul\":6255:6258   */\n      dup3\n        /* \"#utility.yul\":6248:6285   */\n      mstore\n        /* \"#utility.yul\":6173:6291   */\n      pop\n      pop\n      jump\t// out\n        /* \"#utility.yul\":6297:6629   */\n    tag_40:\n        /* \"#utility.yul\":6418:6422   */\n      0x00\n        /* \"#utility.yul\":6456:6458   */\n      0x40\n        /* \"#utility.yul\":6445:6454   */\n      dup3\n        /* \"#utility.yul\":6441:6459   */\n      add\n        /* \"#utility.yul\":6433:6459   */\n      swap1\n      pop\n        /* \"#utility.yul\":6469:6540   */\n      tag_395\n        /* \"#utility.yul\":6537:6538   */\n      0x00\n        /* \"#utility.yul\":6526:6535   */\n      dup4\n        /* \"#utility.yul\":6522:6539   */\n      add\n        /* \"#utility.yul\":6513:6519   */\n      dup6\n        /* \"#utility.yul\":6469:6540   */\n      tag_265\n      jump\t// in\n    tag_395:\n        /* \"#utility.yul\":6550:6622   */\n      tag_396\n        /* \"#utility.yul\":6618:6620   */\n      0x20\n        /* \"#utility.yul\":6607:6616   */\n      dup4\n        /* \"#utility.yul\":6603:6621   */\n      add\n        /* \"#utility.yul\":6594:6600   */\n      dup5\n        /* \"#utility.yul\":6550:6622   */\n      tag_267\n      jump\t// in\n    tag_396:\n        /* \"#utility.yul\":6297:6629   */\n      swap4\n      swap3\n      pop\n      pop\n      pop\n      jump\t// out\n        /* \"#utility.yul\":6635:6725   */\n    tag_268:\n        /* \"#utility.yul\":6669:6676   */\n      0x00\n        /* \"#utility.yul\":6712:6717   */\n      dup2\n        /* \"#utility.yul\":6705:6718   */\n      iszero\n        /* \"#utility.yul\":6698:6719   */\n      iszero\n        /* \"#utility.yul\":6687:6719   */\n      swap1\n      pop\n        /* \"#utility.yul\":6635:6725   */\n      swap2\n      swap1\n      pop\n      jump\t// out\n        /* \"#utility.yul\":6731:6840   */\n    tag_269:\n        /* \"#utility.yul\":6812:6833   */\n      tag_399\n        /* \"#utility.yul\":6827:6832   */\n      dup2\n        /* \"#utility.yul\":6812:6833   */\n      tag_268\n      jump\t// in\n    tag_399:\n        /* \"#utility.yul\":6807:6810   */\n      dup3\n        /* \"#utility.yul\":6800:6834   */\n      mstore\n        /* \"#utility.yul\":6731:6840   */\n      pop\n      pop\n      jump\t// out\n        /* \"#utility.yul\":6846:7166   */\n    tag_46:\n        /* \"#utility.yul\":6961:6965   */\n      0x00\n        /* \"#utility.yul\":6999:7001   */\n      0x40\n        /* \"#utility.yul\":6988:6997   */\n      dup3\n        /* \"#utility.yul\":6984:7002   */\n      add\n        /* \"#utility.yul\":6976:7002   */\n      swap1\n      pop\n        /* \"#utility.yul\":7012:7077   */\n      tag_401\n        /* \"#utility.yul\":7074:7075   */\n      0x00\n        /* \"#utility.yul\":7063:7072   */\n      dup4\n        /* \"#utility.yul\":7059:7076   */\n      add\n        /* \"#utility.yul\":7050:7056   */\n      dup6\n        /* \"#utility.yul\":7012:7077   */\n      tag_269\n      jump\t// in\n    tag_401:\n        /* \"#utility.yul\":7087:7159   */\n      tag_402\n        /* \"#utility.yul\":7155:7157   */\n      0x20\n        /* \"#utility.yul\":7144:7153   */\n      dup4\n        /* \"#utility.yul\":7140:7158   */\n      add\n        /* \"#utility.yul\":7131:7137   */\n      dup5\n        /* \"#utility.yul\":7087:7159   */\n      tag_243\n      jump\t// in\n    tag_402:\n        /* \"#utility.yul\":6846:7166   */\n      swap4\n      swap3\n      pop\n      pop\n      pop\n      jump\t// out\n        /* \"#utility.yul\":7172:7276   */\n    tag_270:\n        /* \"#utility.yul\":7217:7224   */\n      0x00\n        /* \"#utility.yul\":7246:7270   */\n      tag_404\n        /* \"#utility.yul\":7264:7269   */\n      dup3\n        /* \"#utility.yul\":7246:7270   */\n      tag_260\n      jump\t// in\n    tag_404:\n        /* \"#utility.yul\":7235:7270   */\n      swap1\n      pop\n        /* \"#utility.yul\":7172:7276   */\n      swap2\n      swap1\n      pop\n      jump\t// out\n        /* \"#utility.yul\":7282:7420   */\n    tag_271:\n        /* \"#utility.yul\":7363:7395   */\n      tag_406\n        /* \"#utility.yul\":7389:7394   */\n      dup2\n        /* \"#utility.yul\":7363:7395   */\n      tag_270\n      jump\t// in\n    tag_406:\n        /* \"#utility.yul\":7356:7361   */\n      dup2\n        /* \"#utility.yul\":7353:7396   */\n      eq\n        /* \"#utility.yul\":7343:7414   */\n      tag_407\n      jumpi\n        /* \"#utility.yul\":7410:7411   */\n      0x00\n        /* \"#utility.yul\":7407:7408   */\n      dup1\n        /* \"#utility.yul\":7400:7412   */\n      revert\n        /* \"#utility.yul\":7343:7414   */\n    tag_407:\n        /* \"#utility.yul\":7282:7420   */\n      pop\n      jump\t// out\n        /* \"#utility.yul\":7426:7581   */\n    tag_272:\n        /* \"#utility.yul\":7480:7485   */\n      0x00\n        /* \"#utility.yul\":7518:7524   */\n      dup2\n        /* \"#utility.yul\":7505:7525   */\n      calldataload\n        /* \"#utility.yul\":7496:7525   */\n      swap1\n      pop\n        /* \"#utility.yul\":7534:7575   */\n      tag_409\n        /* \"#utility.yul\":7569:7574   */\n      dup2\n        /* \"#utility.yul\":7534:7575   */\n      tag_271\n      jump\t// in\n    tag_409:\n        /* \"#utility.yul\":7426:7581   */\n      swap3\n      swap2\n      pop\n      pop\n      jump\t// out\n        /* \"#utility.yul\":7587:7709   */\n    tag_273:\n        /* \"#utility.yul\":7660:7684   */\n      tag_411\n        /* \"#utility.yul\":7678:7683   */\n      dup2\n        /* \"#utility.yul\":7660:7684   */\n      tag_241\n      jump\t// in\n    tag_411:\n        /* \"#utility.yul\":7653:7658   */\n      dup2\n        /* \"#utility.yul\":7650:7685   */\n      eq\n        /* \"#utility.yul\":7640:7703   */\n      tag_412\n      jumpi\n        /* \"#utility.yul\":7699:7700   */\n      0x00\n        /* \"#utility.yul\":7696:7697   */\n      dup1\n        /* \"#utility.yul\":7689:7701   */\n      revert\n        /* \"#utility.yul\":7640:7703   */\n    tag_412:\n        /* \"#utility.yul\":7587:7709   */\n      pop\n      jump\t// out\n        /* \"#utility.yul\":7715:7854   */\n    tag_274:\n        /* \"#utility.yul\":7761:7766   */\n      0x00\n        /* \"#utility.yul\":7799:7805   */\n      dup2\n        /* \"#utility.yul\":7786:7806   */\n      calldataload\n        /* \"#utility.yul\":7777:7806   */\n      swap1\n      pop\n        /* \"#utility.yul\":7815:7848   */\n      tag_414\n        /* \"#utility.yul\":7842:7847   */\n      dup2\n        /* \"#utility.yul\":7815:7848   */\n      tag_273\n      jump\t// in\n    tag_414:\n        /* \"#utility.yul\":7715:7854   */\n      swap3\n      swap2\n      pop\n      pop\n      jump\t// out\n        /* \"#utility.yul\":7860:8350   */\n    tag_55:\n        /* \"#utility.yul\":7936:7942   */\n      0x00\n        /* \"#utility.yul\":7944:7950   */\n      dup1\n        /* \"#utility.yul\":7993:7995   */\n      0x40\n        /* \"#utility.yul\":7981:7990   */\n      dup4\n        /* \"#utility.yul\":7972:7979   */\n      dup6\n        /* \"#utility.yul\":7968:7991   */\n      sub\n        /* \"#utility.yul\":7964:7996   */\n      slt\n        /* \"#utility.yul\":7961:8080   */\n      iszero\n      tag_416\n      jumpi\n        /* \"#utility.yul\":7999:8078   */\n      tag_417\n      tag_252\n      jump\t// in\n    tag_417:\n        /* \"#utility.yul\":7961:8080   */\n    tag_416:\n        /* \"#utility.yul\":8119:8120   */\n      0x00\n        /* \"#utility.yul\":8144:8205   */\n      tag_418\n        /* \"#utility.yul\":8197:8204   */\n      dup6\n        /* \"#utility.yul\":8188:8194   */\n      dup3\n        /* \"#utility.yul\":8177:8186   */\n      dup7\n        /* \"#utility.yul\":8173:8195   */\n      add\n        /* \"#utility.yul\":8144:8205   */\n      tag_272\n      jump\t// in\n    tag_418:\n        /* \"#utility.yul\":8134:8205   */\n      swap3\n      pop\n        /* \"#utility.yul\":8090:8215   */\n      pop\n        /* \"#utility.yul\":8254:8256   */\n      0x20\n        /* \"#utility.yul\":8280:8333   */\n      tag_419\n        /* \"#utility.yul\":8325:8332   */\n      dup6\n        /* \"#utility.yul\":8316:8322   */\n      dup3\n        /* \"#utility.yul\":8305:8314   */\n      dup7\n        /* \"#utility.yul\":8301:8323   */\n      add\n        /* \"#utility.yul\":8280:8333   */\n      tag_274\n      jump\t// in\n    tag_419:\n        /* \"#utility.yul\":8270:8333   */\n      swap2\n      pop\n        /* \"#utility.yul\":8225:8343   */\n      pop\n        /* \"#utility.yul\":7860:8350   */\n      swap3\n      pop\n      swap3\n      swap1\n      pop\n      jump\t// out\n        /* \"#utility.yul\":8356:8472   */\n    tag_275:\n        /* \"#utility.yul\":8426:8447   */\n      tag_421\n        /* \"#utility.yul\":8441:8446   */\n      dup2\n        /* \"#utility.yul\":8426:8447   */\n      tag_268\n      jump\t// in\n    tag_421:\n        /* \"#utility.yul\":8419:8424   */\n      dup2\n        /* \"#utility.yul\":8416:8448   */\n      eq\n        /* \"#utility.yul\":8406:8466   */\n      tag_422\n      jumpi\n        /* \"#utility.yul\":8462:8463   */\n      0x00\n        /* \"#utility.yul\":8459:8460   */\n      dup1\n        /* \"#utility.yul\":8452:8464   */\n      revert\n        /* \"#utility.yul\":8406:8466   */\n    tag_422:\n        /* \"#utility.yul\":8356:8472   */\n      pop\n      jump\t// out\n        /* \"#utility.yul\":8478:8611   */\n    tag_276:\n        /* \"#utility.yul\":8521:8526   */\n      0x00\n        /* \"#utility.yul\":8559:8565   */\n      dup2\n        /* \"#utility.yul\":8546:8566   */\n      calldataload\n        /* \"#utility.yul\":8537:8566   */\n      swap1\n      pop\n        /* \"#utility.yul\":8575:8605   */\n      tag_424\n        /* \"#utility.yul\":8599:8604   */\n      dup2\n        /* \"#utility.yul\":8575:8605   */\n      tag_275\n      jump\t// in\n    tag_424:\n        /* \"#utility.yul\":8478:8611   */\n      swap3\n      swap2\n      pop\n      pop\n      jump\t// out\n        /* \"#utility.yul\":8617:9285   */\n    tag_60:\n        /* \"#utility.yul\":8718:8724   */\n      0x00\n        /* \"#utility.yul\":8726:8732   */\n      dup1\n        /* \"#utility.yul\":8734:8740   */\n      0x00\n        /* \"#utility.yul\":8783:8786   */\n      0x80\n        /* \"#utility.yul\":8771:8780   */\n      dup5\n        /* \"#utility.yul\":8762:8769   */\n      dup7\n        /* \"#utility.yul\":8758:8781   */\n      sub\n        /* \"#utility.yul\":8754:8787   */\n      slt\n        /* \"#utility.yul\":8751:8871   */\n      iszero\n      tag_426\n      jumpi\n        /* \"#utility.yul\":8790:8869   */\n      tag_427\n      tag_252\n      jump\t// in\n    tag_427:\n        /* \"#utility.yul\":8751:8871   */\n    tag_426:\n        /* \"#utility.yul\":8910:8911   */\n      0x00\n        /* \"#utility.yul\":8935:8988   */\n      tag_428\n        /* \"#utility.yul\":8980:8987   */\n      dup7\n        /* \"#utility.yul\":8971:8977   */\n      dup3\n        /* \"#utility.yul\":8960:8969   */\n      dup8\n        /* \"#utility.yul\":8956:8978   */\n      add\n        /* \"#utility.yul\":8935:8988   */\n      tag_263\n      jump\t// in\n    tag_428:\n        /* \"#utility.yul\":8925:8988   */\n      swap4\n      pop\n        /* \"#utility.yul\":8881:8998   */\n      pop\n        /* \"#utility.yul\":9037:9039   */\n      0x20\n        /* \"#utility.yul\":9063:9113   */\n      tag_429\n        /* \"#utility.yul\":9105:9112   */\n      dup7\n        /* \"#utility.yul\":9096:9102   */\n      dup3\n        /* \"#utility.yul\":9085:9094   */\n      dup8\n        /* \"#utility.yul\":9081:9103   */\n      add\n        /* \"#utility.yul\":9063:9113   */\n      tag_276\n      jump\t// in\n    tag_429:\n        /* \"#utility.yul\":9053:9113   */\n      swap3\n      pop\n        /* \"#utility.yul\":9008:9123   */\n      pop\n        /* \"#utility.yul\":9162:9164   */\n      0x40\n        /* \"#utility.yul\":9188:9268   */\n      tag_430\n        /* \"#utility.yul\":9260:9267   */\n      dup7\n        /* \"#utility.yul\":9251:9257   */\n      dup3\n        /* \"#utility.yul\":9240:9249   */\n      dup8\n        /* \"#utility.yul\":9236:9258   */\n      add\n        /* \"#utility.yul\":9188:9268   */\n      tag_259\n      jump\t// in\n    tag_430:\n        /* \"#utility.yul\":9178:9268   */\n      swap2\n      pop\n        /* \"#utility.yul\":9133:9278   */\n      pop\n        /* \"#utility.yul\":8617:9285   */\n      swap3\n      pop\n      swap3\n      pop\n      swap3\n      jump\t// out\n        /* \"#utility.yul\":9291:9513   */\n    tag_67:\n        /* \"#utility.yul\":9384:9388   */\n      0x00\n        /* \"#utility.yul\":9422:9424   */\n      0x20\n        /* \"#utility.yul\":9411:9420   */\n      dup3\n        /* \"#utility.yul\":9407:9425   */\n      add\n        /* \"#utility.yul\":9399:9425   */\n      swap1\n      pop\n        /* \"#utility.yul\":9435:9506   */\n      tag_432\n        /* \"#utility.yul\":9503:9504   */\n      0x00\n        /* \"#utility.yul\":9492:9501   */\n      dup4\n        /* \"#utility.yul\":9488:9505   */\n      add\n        /* \"#utility.yul\":9479:9485   */\n      dup5\n        /* \"#utility.yul\":9435:9506   */\n      tag_243\n      jump\t// in\n    tag_432:\n        /* \"#utility.yul\":9291:9513   */\n      swap3\n      swap2\n      pop\n      pop\n      jump\t// out\n        /* \"#utility.yul\":9519:10138   */\n    tag_71:\n        /* \"#utility.yul\":9596:9602   */\n      0x00\n        /* \"#utility.yul\":9604:9610   */\n      dup1\n        /* \"#utility.yul\":9612:9618   */\n      0x00\n        /* \"#utility.yul\":9661:9663   */\n      0x60\n        /* \"#utility.yul\":9649:9658   */\n      dup5\n        /* \"#utility.yul\":9640:9647   */\n      dup7\n        /* \"#utility.yul\":9636:9659   */\n      sub\n        /* \"#utility.yul\":9632:9664   */\n      slt\n        /* \"#utility.yul\":9629:9748   */\n      iszero\n      tag_434\n      jumpi\n        /* \"#utility.yul\":9667:9746   */\n      tag_435\n      tag_252\n      jump\t// in\n    tag_435:\n        /* \"#utility.yul\":9629:9748   */\n    tag_434:\n        /* \"#utility.yul\":9787:9788   */\n      0x00\n        /* \"#utility.yul\":9812:9865   */\n      tag_436\n        /* \"#utility.yul\":9857:9864   */\n      dup7\n        /* \"#utility.yul\":9848:9854   */\n      dup3\n        /* \"#utility.yul\":9837:9846   */\n      dup8\n        /* \"#utility.yul\":9833:9855   */\n      add\n        /* \"#utility.yul\":9812:9865   */\n      tag_263\n      jump\t// in\n    tag_436:\n        /* \"#utility.yul\":9802:9865   */\n      swap4\n      pop\n        /* \"#utility.yul\":9758:9875   */\n      pop\n        /* \"#utility.yul\":9914:9916   */\n      0x20\n        /* \"#utility.yul\":9940:9993   */\n      tag_437\n        /* \"#utility.yul\":9985:9992   */\n      dup7\n        /* \"#utility.yul\":9976:9982   */\n      dup3\n        /* \"#utility.yul\":9965:9974   */\n      dup8\n        /* \"#utility.yul\":9961:9983   */\n      add\n        /* \"#utility.yul\":9940:9993   */\n      tag_263\n      jump\t// in\n    tag_437:\n        /* \"#utility.yul\":9930:9993   */\n      swap3\n      pop\n        /* \"#utility.yul\":9885:10003   */\n      pop\n        /* \"#utility.yul\":10042:10044   */\n      0x40\n        /* \"#utility.yul\":10068:10121   */\n      tag_438\n        /* \"#utility.yul\":10113:10120   */\n      dup7\n        /* \"#utility.yul\":10104:10110   */\n      dup3\n        /* \"#utility.yul\":10093:10102   */\n      dup8\n        /* \"#utility.yul\":10089:10111   */\n      add\n        /* \"#utility.yul\":10068:10121   */\n      tag_274\n      jump\t// in\n    tag_438:\n        /* \"#utility.yul\":10058:10121   */\n      swap2\n      pop\n        /* \"#utility.yul\":10013:10131   */\n      pop\n        /* \"#utility.yul\":9519:10138   */\n      swap3\n      pop\n      swap3\n      pop\n      swap3\n      jump\t// out\n        /* \"#utility.yul\":10144:10618   */\n    tag_76:\n        /* \"#utility.yul\":10212:10218   */\n      0x00\n        /* \"#utility.yul\":10220:10226   */\n      dup1\n        /* \"#utility.yul\":10269:10271   */\n      0x40\n        /* \"#utility.yul\":10257:10266   */\n      dup4\n        /* \"#utility.yul\":10248:10255   */\n      dup6\n        /* \"#utility.yul\":10244:10267   */\n      sub\n        /* \"#utility.yul\":10240:10272   */\n      slt\n        /* \"#utility.yul\":10237:10356   */\n      iszero\n      tag_440\n      jumpi\n        /* \"#utility.yul\":10275:10354   */\n      tag_441\n      tag_252\n      jump\t// in\n    tag_441:\n        /* \"#utility.yul\":10237:10356   */\n    tag_440:\n        /* \"#utility.yul\":10395:10396   */\n      0x00\n        /* \"#utility.yul\":10420:10473   */\n      tag_442\n        /* \"#utility.yul\":10465:10472   */\n      dup6\n        /* \"#utility.yul\":10456:10462   */\n      dup3\n        /* \"#utility.yul\":10445:10454   */\n      dup7\n        /* \"#utility.yul\":10441:10463   */\n      add\n        /* \"#utility.yul\":10420:10473   */\n      tag_263\n      jump\t// in\n    tag_442:\n        /* \"#utility.yul\":10410:10473   */\n      swap3\n      pop\n        /* \"#utility.yul\":10366:10483   */\n      pop\n        /* \"#utility.yul\":10522:10524   */\n      0x20\n        /* \"#utility.yul\":10548:10601   */\n      tag_443\n        /* \"#utility.yul\":10593:10600   */\n      dup6\n        /* \"#utility.yul\":10584:10590   */\n      dup3\n        /* \"#utility.yul\":10573:10582   */\n      dup7\n        /* \"#utility.yul\":10569:10591   */\n      add\n        /* \"#utility.yul\":10548:10601   */\n      tag_263\n      jump\t// in\n    tag_443:\n        /* \"#utility.yul\":10538:10601   */\n      swap2\n      pop\n        /* \"#utility.yul\":10493:10611   */\n      pop\n        /* \"#utility.yul\":10144:10618   */\n      swap3\n      pop\n      swap3\n      swap1\n      pop\n      jump\t// out\n        /* \"#utility.yul\":10624:10738   */\n    tag_277:\n        /* \"#utility.yul\":10691:10697   */\n      0x00\n        /* \"#utility.yul\":10725:10730   */\n      dup2\n        /* \"#utility.yul\":10719:10731   */\n      mload\n        /* \"#utility.yul\":10709:10731   */\n      swap1\n      pop\n        /* \"#utility.yul\":10624:10738   */\n      swap2\n      swap1\n      pop\n      jump\t// out\n        /* \"#utility.yul\":10744:10928   */\n    tag_278:\n        /* \"#utility.yul\":10843:10854   */\n      0x00\n        /* \"#utility.yul\":10877:10883   */\n      dup3\n        /* \"#utility.yul\":10872:10875   */\n      dup3\n        /* \"#utility.yul\":10865:10884   */\n      mstore\n        /* \"#utility.yul\":10917:10921   */\n      0x20\n        /* \"#utility.yul\":10912:10915   */\n      dup3\n        /* \"#utility.yul\":10908:10922   */\n      add\n        /* \"#utility.yul\":10893:10922   */\n      swap1\n      pop\n        /* \"#utility.yul\":10744:10928   */\n      swap3\n      swap2\n      pop\n      pop\n      jump\t// out\n        /* \"#utility.yul\":10934:11066   */\n    tag_279:\n        /* \"#utility.yul\":11001:11005   */\n      0x00\n        /* \"#utility.yul\":11024:11027   */\n      dup2\n        /* \"#utility.yul\":11016:11027   */\n      swap1\n      pop\n        /* \"#utility.yul\":11054:11058   */\n      0x20\n        /* \"#utility.yul\":11049:11052   */\n      dup3\n        /* \"#utility.yul\":11045:11059   */\n      add\n        /* \"#utility.yul\":11037:11059   */\n      swap1\n      pop\n        /* \"#utility.yul\":10934:11066   */\n      swap2\n      swap1\n      pop\n      jump\t// out\n        /* \"#utility.yul\":11072:11180   */\n    tag_280:\n        /* \"#utility.yul\":11149:11173   */\n      tag_448\n        /* \"#utility.yul\":11167:11172   */\n      dup2\n        /* \"#utility.yul\":11149:11173   */\n      tag_241\n      jump\t// in\n    tag_448:\n        /* \"#utility.yul\":11144:11147   */\n      dup3\n        /* \"#utility.yul\":11137:11174   */\n      mstore\n        /* \"#utility.yul\":11072:11180   */\n      pop\n      pop\n      jump\t// out\n        /* \"#utility.yul\":11186:11365   */\n    tag_281:\n        /* \"#utility.yul\":11255:11265   */\n      0x00\n        /* \"#utility.yul\":11276:11322   */\n      tag_450\n        /* \"#utility.yul\":11318:11321   */\n      dup4\n        /* \"#utility.yul\":11310:11316   */\n      dup4\n        /* \"#utility.yul\":11276:11322   */\n      tag_280\n      jump\t// in\n    tag_450:\n        /* \"#utility.yul\":11354:11358   */\n      0x20\n        /* \"#utility.yul\":11349:11352   */\n      dup4\n        /* \"#utility.yul\":11345:11359   */\n      add\n        /* \"#utility.yul\":11331:11359   */\n      swap1\n      pop\n        /* \"#utility.yul\":11186:11365   */\n      swap3\n      swap2\n      pop\n      pop\n      jump\t// out\n        /* \"#utility.yul\":11371:11484   */\n    tag_282:\n        /* \"#utility.yul\":11441:11445   */\n      0x00\n        /* \"#utility.yul\":11473:11477   */\n      0x20\n        /* \"#utility.yul\":11468:11471   */\n      dup3\n        /* \"#utility.yul\":11464:11478   */\n      add\n        /* \"#utility.yul\":11456:11478   */\n      swap1\n      pop\n        /* \"#utility.yul\":11371:11484   */\n      swap2\n      swap1\n      pop\n      jump\t// out\n        /* \"#utility.yul\":11520:12252   */\n    tag_283:\n        /* \"#utility.yul\":11639:11642   */\n      0x00\n        /* \"#utility.yul\":11668:11722   */\n      tag_453\n        /* \"#utility.yul\":11716:11721   */\n      dup3\n        /* \"#utility.yul\":11668:11722   */\n      tag_277\n      jump\t// in\n    tag_453:\n        /* \"#utility.yul\":11738:11824   */\n      tag_454\n        /* \"#utility.yul\":11817:11823   */\n      dup2\n        /* \"#utility.yul\":11812:11815   */\n      dup6\n        /* \"#utility.yul\":11738:11824   */\n      tag_278\n      jump\t// in\n    tag_454:\n        /* \"#utility.yul\":11731:11824   */\n      swap4\n      pop\n        /* \"#utility.yul\":11848:11904   */\n      tag_455\n        /* \"#utility.yul\":11898:11903   */\n      dup4\n        /* \"#utility.yul\":11848:11904   */\n      tag_279\n      jump\t// in\n    tag_455:\n        /* \"#utility.yul\":11927:11934   */\n      dup1\n        /* \"#utility.yul\":11958:11959   */\n      0x00\n        /* \"#utility.yul\":11943:12227   */\n    tag_456:\n        /* \"#utility.yul\":11968:11974   */\n      dup4\n        /* \"#utility.yul\":11965:11966   */\n      dup2\n        /* \"#utility.yul\":11962:11975   */\n      lt\n        /* \"#utility.yul\":11943:12227   */\n      iszero\n      tag_458\n      jumpi\n        /* \"#utility.yul\":12044:12050   */\n      dup2\n        /* \"#utility.yul\":12038:12051   */\n      mload\n        /* \"#utility.yul\":12071:12134   */\n      tag_459\n        /* \"#utility.yul\":12130:12133   */\n      dup9\n        /* \"#utility.yul\":12115:12128   */\n      dup3\n        /* \"#utility.yul\":12071:12134   */\n      tag_281\n      jump\t// in\n    tag_459:\n        /* \"#utility.yul\":12064:12134   */\n      swap8\n      pop\n        /* \"#utility.yul\":12157:12217   */\n      tag_460\n        /* \"#utility.yul\":12210:12216   */\n      dup4\n        /* \"#utility.yul\":12157:12217   */\n      tag_282\n      jump\t// in\n    tag_460:\n        /* \"#utility.yul\":12147:12217   */\n      swap3\n      pop\n        /* \"#utility.yul\":12003:12227   */\n      pop\n        /* \"#utility.yul\":11990:11991   */\n      0x01\n        /* \"#utility.yul\":11987:11988   */\n      dup2\n        /* \"#utility.yul\":11983:11992   */\n      add\n        /* \"#utility.yul\":11978:11992   */\n      swap1\n      pop\n        /* \"#utility.yul\":11943:12227   */\n      jump(tag_456)\n    tag_458:\n        /* \"#utility.yul\":11947:11961   */\n      pop\n        /* \"#utility.yul\":12243:12246   */\n      dup6\n        /* \"#utility.yul\":12236:12246   */\n      swap4\n      pop\n        /* \"#utility.yul\":11644:12252   */\n      pop\n      pop\n      pop\n        /* \"#utility.yul\":11520:12252   */\n      swap3\n      swap2\n      pop\n      pop\n      jump\t// out\n        /* \"#utility.yul\":12258:12631   */\n    tag_79:\n        /* \"#utility.yul\":12401:12405   */\n      0x00\n        /* \"#utility.yul\":12439:12441   */\n      0x20\n        /* \"#utility.yul\":12428:12437   */\n      dup3\n        /* \"#utility.yul\":12424:12442   */\n      add\n        /* \"#utility.yul\":12416:12442   */\n      swap1\n      pop\n        /* \"#utility.yul\":12488:12497   */\n      dup2\n        /* \"#utility.yul\":12482:12486   */\n      dup2\n        /* \"#utility.yul\":12478:12498   */\n      sub\n        /* \"#utility.yul\":12474:12475   */\n      0x00\n        /* \"#utility.yul\":12463:12472   */\n      dup4\n        /* \"#utility.yul\":12459:12476   */\n      add\n        /* \"#utility.yul\":12452:12499   */\n      mstore\n        /* \"#utility.yul\":12516:12624   */\n      tag_462\n        /* \"#utility.yul\":12619:12623   */\n      dup2\n        /* \"#utility.yul\":12610:12616   */\n      dup5\n        /* \"#utility.yul\":12516:12624   */\n      tag_283\n      jump\t// in\n    tag_462:\n        /* \"#utility.yul\":12508:12624   */\n      swap1\n      pop\n        /* \"#utility.yul\":12258:12631   */\n      swap3\n      swap2\n      pop\n      pop\n      jump\t// out\n        /* \"#utility.yul\":12637:12847   */\n    tag_85:\n        /* \"#utility.yul\":12724:12728   */\n      0x00\n        /* \"#utility.yul\":12762:12764   */\n      0x20\n        /* \"#utility.yul\":12751:12760   */\n      dup3\n        /* \"#utility.yul\":12747:12765   */\n      add\n        /* \"#utility.yul\":12739:12765   */\n      swap1\n      pop\n        /* \"#utility.yul\":12775:12840   */\n      tag_464\n        /* \"#utility.yul\":12837:12838   */\n      0x00\n        /* \"#utility.yul\":12826:12835   */\n      dup4\n        /* \"#utility.yul\":12822:12839   */\n      add\n        /* \"#utility.yul\":12813:12819   */\n      dup5\n        /* \"#utility.yul\":12775:12840   */\n      tag_269\n      jump\t// in\n    tag_464:\n        /* \"#utility.yul\":12637:12847   */\n      swap3\n      swap2\n      pop\n      pop\n      jump\t// out\n        /* \"#utility.yul\":12853:12971   */\n    tag_284:\n        /* \"#utility.yul\":12940:12964   */\n      tag_466\n        /* \"#utility.yul\":12958:12963   */\n      dup2\n        /* \"#utility.yul\":12940:12964   */\n      tag_261\n      jump\t// in\n    tag_466:\n        /* \"#utility.yul\":12935:12938   */\n      dup3\n        /* \"#utility.yul\":12928:12965   */\n      mstore\n        /* \"#utility.yul\":12853:12971   */\n      pop\n      pop\n      jump\t// out\n        /* \"#utility.yul\":12977:13199   */\n    tag_90:\n        /* \"#utility.yul\":13070:13074   */\n      0x00\n        /* \"#utility.yul\":13108:13110   */\n      0x20\n        /* \"#utility.yul\":13097:13106   */\n      dup3\n        /* \"#utility.yul\":13093:13111   */\n      add\n        /* \"#utility.yul\":13085:13111   */\n      swap1\n      pop\n        /* \"#utility.yul\":13121:13192   */\n      tag_468\n        /* \"#utility.yul\":13189:13190   */\n      0x00\n        /* \"#utility.yul\":13178:13187   */\n      dup4\n        /* \"#utility.yul\":13174:13191   */\n      add\n        /* \"#utility.yul\":13165:13171   */\n      dup5\n        /* \"#utility.yul\":13121:13192   */\n      tag_284\n      jump\t// in\n    tag_468:\n        /* \"#utility.yul\":12977:13199   */\n      swap3\n      swap2\n      pop\n      pop\n      jump\t// out\n        /* \"#utility.yul\":13205:13679   */\n    tag_94:\n        /* \"#utility.yul\":13273:13279   */\n      0x00\n        /* \"#utility.yul\":13281:13287   */\n      dup1\n        /* \"#utility.yul\":13330:13332   */\n      0x40\n        /* \"#utility.yul\":13318:13327   */\n      dup4\n        /* \"#utility.yul\":13309:13316   */\n      dup6\n        /* \"#utility.yul\":13305:13328   */\n      sub\n        /* \"#utility.yul\":13301:13333   */\n      slt\n        /* \"#utility.yul\":13298:13417   */\n      iszero\n      tag_470\n      jumpi\n        /* \"#utility.yul\":13336:13415   */\n      tag_471\n      tag_252\n      jump\t// in\n    tag_471:\n        /* \"#utility.yul\":13298:13417   */\n    tag_470:\n        /* \"#utility.yul\":13456:13457   */\n      0x00\n        /* \"#utility.yul\":13481:13534   */\n      tag_472\n        /* \"#utility.yul\":13526:13533   */\n      dup6\n        /* \"#utility.yul\":13517:13523   */\n      dup3\n        /* \"#utility.yul\":13506:13515   */\n      dup7\n        /* \"#utility.yul\":13502:13524   */\n      add\n        /* \"#utility.yul\":13481:13534   */\n      tag_263\n      jump\t// in\n    tag_472:\n        /* \"#utility.yul\":13471:13534   */\n      swap3\n      pop\n        /* \"#utility.yul\":13427:13544   */\n      pop\n        /* \"#utility.yul\":13583:13585   */\n      0x20\n        /* \"#utility.yul\":13609:13662   */\n      tag_473\n        /* \"#utility.yul\":13654:13661   */\n      dup6\n        /* \"#utility.yul\":13645:13651   */\n      dup3\n        /* \"#utility.yul\":13634:13643   */\n      dup7\n        /* \"#utility.yul\":13630:13652   */\n      add\n        /* \"#utility.yul\":13609:13662   */\n      tag_274\n      jump\t// in\n    tag_473:\n        /* \"#utility.yul\":13599:13662   */\n      swap2\n      pop\n        /* \"#utility.yul\":13554:13672   */\n      pop\n        /* \"#utility.yul\":13205:13679   */\n      swap3\n      pop\n      swap3\n      swap1\n      pop\n      jump\t// out\n        /* \"#utility.yul\":13685:13848   */\n    tag_285:\n        /* \"#utility.yul\":13825:13840   */\n      0x4e6f7420746865206f776e657200000000000000000000000000000000000000\n        /* \"#utility.yul\":13821:13822   */\n      0x00\n        /* \"#utility.yul\":13813:13819   */\n      dup3\n        /* \"#utility.yul\":13809:13823   */\n      add\n        /* \"#utility.yul\":13802:13841   */\n      mstore\n        /* \"#utility.yul\":13685:13848   */\n      pop\n      jump\t// out\n        /* \"#utility.yul\":13854:14220   */\n    tag_286:\n        /* \"#utility.yul\":13996:13999   */\n      0x00\n        /* \"#utility.yul\":14017:14084   */\n      tag_476\n        /* \"#utility.yul\":14081:14083   */\n      0x0d\n        /* \"#utility.yul\":14076:14079   */\n      dup4\n        /* \"#utility.yul\":14017:14084   */\n      tag_248\n      jump\t// in\n    tag_476:\n        /* \"#utility.yul\":14010:14084   */\n      swap2\n      pop\n        /* \"#utility.yul\":14093:14186   */\n      tag_477\n        /* \"#utility.yul\":14182:14185   */\n      dup3\n        /* \"#utility.yul\":14093:14186   */\n      tag_285\n      jump\t// in\n    tag_477:\n        /* \"#utility.yul\":14211:14213   */\n      0x20\n        /* \"#utility.yul\":14206:14209   */\n      dup3\n        /* \"#utility.yul\":14202:14214   */\n      add\n        /* \"#utility.yul\":14195:14214   */\n      swap1\n      pop\n        /* \"#utility.yul\":13854:14220   */\n      swap2\n      swap1\n      pop\n      jump\t// out\n        /* \"#utility.yul\":14226:14645   */\n    tag_117:\n        /* \"#utility.yul\":14392:14396   */\n      0x00\n        /* \"#utility.yul\":14430:14432   */\n      0x20\n        /* \"#utility.yul\":14419:14428   */\n      dup3\n        /* \"#utility.yul\":14415:14433   */\n      add\n        /* \"#utility.yul\":14407:14433   */\n      swap1\n      pop\n        /* \"#utility.yul\":14479:14488   */\n      dup2\n        /* \"#utility.yul\":14473:14477   */\n      dup2\n        /* \"#utility.yul\":14469:14489   */\n      sub\n        /* \"#utility.yul\":14465:14466   */\n      0x00\n        /* \"#utility.yul\":14454:14463   */\n      dup4\n        /* \"#utility.yul\":14450:14467   */\n      add\n        /* \"#utility.yul\":14443:14490   */\n      mstore\n        /* \"#utility.yul\":14507:14638   */\n      tag_479\n        /* \"#utility.yul\":14633:14637   */\n      dup2\n        /* \"#utility.yul\":14507:14638   */\n      tag_286\n      jump\t// in\n    tag_479:\n        /* \"#utility.yul\":14499:14638   */\n      swap1\n      pop\n        /* \"#utility.yul\":14226:14645   */\n      swap2\n      swap1\n      pop\n      jump\t// out\n        /* \"#utility.yul\":14651:14831   */\n    tag_124:\n        /* \"#utility.yul\":14699:14776   */\n      0x4e487b7100000000000000000000000000000000000000000000000000000000\n        /* \"#utility.yul\":14696:14697   */\n      0x00\n        /* \"#utility.yul\":14689:14777   */\n      mstore\n        /* \"#utility.yul\":14796:14800   */\n      0x32\n        /* \"#utility.yul\":14793:14794   */\n      0x04\n        /* \"#utility.yul\":14786:14801   */\n      mstore\n        /* \"#utility.yul\":14820:14824   */\n      0x24\n        /* \"#utility.yul\":14817:14818   */\n      0x00\n        /* \"#utility.yul\":14810:14825   */\n      revert\n        /* \"#utility.yul\":15023:15145   */\n    tag_288:\n        /* \"#utility.yul\":15096:15120   */\n      tag_483\n        /* \"#utility.yul\":15114:15119   */\n      dup2\n        /* \"#utility.yul\":15096:15120   */\n      tag_264\n      jump\t// in\n    tag_483:\n        /* \"#utility.yul\":15089:15094   */\n      dup2\n        /* \"#utility.yul\":15086:15121   */\n      eq\n        /* \"#utility.yul\":15076:15139   */\n      tag_484\n      jumpi\n        /* \"#utility.yul\":15135:15136   */\n      0x00\n        /* \"#utility.yul\":15132:15133   */\n      dup1\n        /* \"#utility.yul\":15125:15137   */\n      revert\n        /* \"#utility.yul\":15076:15139   */\n    tag_484:\n        /* \"#utility.yul\":15023:15145   */\n      pop\n      jump\t// out\n        /* \"#utility.yul\":15151:15337   */\n    tag_289:\n        /* \"#utility.yul\":15196:15207   */\n      0x00\n        /* \"#utility.yul\":15245:15248   */\n      dup2\n        /* \"#utility.yul\":15232:15249   */\n      calldataload\n        /* \"#utility.yul\":15258:15291   */\n      tag_486\n        /* \"#utility.yul\":15285:15290   */\n      dup2\n        /* \"#utility.yul\":15258:15291   */\n      tag_288\n      jump\t// in\n    tag_486:\n        /* \"#utility.yul\":15325:15330   */\n      dup1\n        /* \"#utility.yul\":15301:15330   */\n      swap2\n      pop\n        /* \"#utility.yul\":15208:15337   */\n      pop\n        /* \"#utility.yul\":15151:15337   */\n      swap2\n      swap1\n      pop\n      jump\t// out\n        /* \"#utility.yul\":15343:15435   */\n    tag_290:\n        /* \"#utility.yul\":15375:15383   */\n      0x00\n        /* \"#utility.yul\":15422:15427   */\n      dup2\n        /* \"#utility.yul\":15419:15420   */\n      0x00\n        /* \"#utility.yul\":15415:15428   */\n      shl\n        /* \"#utility.yul\":15394:15428   */\n      swap1\n      pop\n        /* \"#utility.yul\":15343:15435   */\n      swap2\n      swap1\n      pop\n      jump\t// out\n        /* \"#utility.yul\":15441:15731   */\n    tag_291:\n        /* \"#utility.yul\":15499:15505   */\n      0x00\n        /* \"#utility.yul\":15528:15594   */\n      0xffffffffffffffffffffffffffffffffffffffffffffffffffffffffffffffff\n        /* \"#utility.yul\":15615:15637   */\n      tag_489\n        /* \"#utility.yul\":15628:15636   */\n      dup5\n        /* \"#utility.yul\":15615:15637   */\n      tag_290\n      jump\t// in\n    tag_489:\n        /* \"#utility.yul\":15603:15637   */\n      swap4\n      pop\n        /* \"#utility.yul\":15670:15674   */\n      dup1\n        /* \"#utility.yul\":15666:15675   */\n      not\n        /* \"#utility.yul\":15659:15664   */\n      dup4\n        /* \"#utility.yul\":15655:15676   */\n      and\n        /* \"#utility.yul\":15646:15676   */\n      swap3\n      pop\n        /* \"#utility.yul\":15719:15723   */\n      dup1\n        /* \"#utility.yul\":15709:15717   */\n      dup5\n        /* \"#utility.yul\":15705:15724   */\n      and\n        /* \"#utility.yul\":15698:15703   */\n      dup4\n        /* \"#utility.yul\":15695:15725   */\n      or\n        /* \"#utility.yul\":15685:15725   */\n      swap2\n      pop\n        /* \"#utility.yul\":15506:15731   */\n      pop\n        /* \"#utility.yul\":15441:15731   */\n      swap3\n      swap2\n      pop\n      pop\n      jump\t// out\n        /* \"#utility.yul\":15737:15850   */\n    tag_292:\n        /* \"#utility.yul\":15787:15796   */\n      0x00\n        /* \"#utility.yul\":15820:15844   */\n      tag_491\n        /* \"#utility.yul\":15838:15843   */\n      dup3\n        /* \"#utility.yul\":15820:15844   */\n      tag_264\n      jump\t// in\n    tag_491:\n        /* \"#utility.yul\":15807:15844   */\n      swap1\n      pop\n        /* \"#utility.yul\":15737:15850   */\n      swap2\n      swap1\n      pop\n      jump\t// out\n        /* \"#utility.yul\":15856:15958   */\n    tag_293:\n        /* \"#utility.yul\":15898:15906   */\n      0x00\n        /* \"#utility.yul\":15945:15950   */\n      dup2\n        /* \"#utility.yul\":15942:15943   */\n      0x00\n        /* \"#utility.yul\":15938:15951   */\n      shr\n        /* \"#utility.yul\":15917:15951   */\n      swap1\n      pop\n        /* \"#utility.yul\":15856:15958   */\n      swap2\n      swap1\n      pop\n      jump\t// out\n        /* \"#utility.yul\":15964:16063   */\n    tag_294:\n        /* \"#utility.yul\":16007:16010   */\n      0x00\n        /* \"#utility.yul\":16028:16057   */\n      tag_494\n        /* \"#utility.yul\":16051:16056   */\n      dup3\n        /* \"#utility.yul\":16028:16057   */\n      tag_293\n      jump\t// in\n    tag_494:\n        /* \"#utility.yul\":16021:16057   */\n      swap1\n      pop\n        /* \"#utility.yul\":15964:16063   */\n      swap2\n      swap1\n      pop\n      jump\t// out\n        /* \"#utility.yul\":16069:16331   */\n    tag_295:\n        /* \"#utility.yul\":16179:16218   */\n      tag_496\n        /* \"#utility.yul\":16210:16217   */\n      dup3\n        /* \"#utility.yul\":16179:16218   */\n      tag_292\n      jump\t// in\n    tag_496:\n        /* \"#utility.yul\":16240:16324   */\n      tag_497\n        /* \"#utility.yul\":16282:16323   */\n      tag_498\n        /* \"#utility.yul\":16306:16322   */\n      dup3\n        /* \"#utility.yul\":16282:16323   */\n      tag_294\n      jump\t// in\n    tag_498:\n        /* \"#utility.yul\":16275:16279   */\n      dup4\n        /* \"#utility.yul\":16269:16280   */\n      sload\n        /* \"#utility.yul\":16240:16324   */\n      tag_291\n      jump\t// in\n    tag_497:\n        /* \"#utility.yul\":16234:16238   */\n      dup3\n        /* \"#utility.yul\":16227:16325   */\n      sstore\n        /* \"#utility.yul\":16145:16331   */\n      pop\n        /* \"#utility.yul\":16069:16331   */\n      pop\n      pop\n      jump\t// out\n        /* \"#utility.yul\":16337:16459   */\n    tag_296:\n        /* \"#utility.yul\":16410:16434   */\n      tag_500\n        /* \"#utility.yul\":16428:16433   */\n      dup2\n        /* \"#utility.yul\":16410:16434   */\n      tag_266\n      jump\t// in\n    tag_500:\n        /* \"#utility.yul\":16403:16408   */\n      dup2\n        /* \"#utility.yul\":16400:16435   */\n      eq\n        /* \"#utility.yul\":16390:16453   */\n      tag_501\n      jumpi\n        /* \"#utility.yul\":16449:16450   */\n      0x00\n        /* \"#utility.yul\":16446:16447   */\n      dup1\n        /* \"#utility.yul\":16439:16451   */\n      revert\n        /* \"#utility.yul\":16390:16453   */\n    tag_501:\n        /* \"#utility.yul\":16337:16459   */\n      pop\n      jump\t// out\n        /* \"#utility.yul\":16465:16651   */\n    tag_297:\n        /* \"#utility.yul\":16510:16521   */\n      0x00\n        /* \"#utility.yul\":16559:16562   */\n      dup2\n        /* \"#utility.yul\":16546:16563   */\n      calldataload\n        /* \"#utility.yul\":16572:16605   */\n      tag_503\n        /* \"#utility.yul\":16599:16604   */\n      dup2\n        /* \"#utility.yul\":16572:16605   */\n      tag_296\n      jump\t// in\n    tag_503:\n        /* \"#utility.yul\":16639:16644   */\n      dup1\n        /* \"#utility.yul\":16615:16644   */\n      swap2\n      pop\n        /* \"#utility.yul\":16522:16651   */\n      pop\n        /* \"#utility.yul\":16465:16651   */\n      swap2\n      swap1\n      pop\n      jump\t// out\n        /* \"#utility.yul\":16657:16915   */\n    tag_298:\n        /* \"#utility.yul\":16715:16721   */\n      0x00\n        /* \"#utility.yul\":16744:16778   */\n      0xffffffffffffffffffffffffffffffff\n        /* \"#utility.yul\":16799:16821   */\n      tag_505\n        /* \"#utility.yul\":16812:16820   */\n      dup5\n        /* \"#utility.yul\":16799:16821   */\n      tag_290\n      jump\t// in\n    tag_505:\n        /* \"#utility.yul\":16787:16821   */\n      swap4\n      pop\n        /* \"#utility.yul\":16854:16858   */\n      dup1\n        /* \"#utility.yul\":16850:16859   */\n      not\n        /* \"#utility.yul\":16843:16848   */\n      dup4\n        /* \"#utility.yul\":16839:16860   */\n      and\n        /* \"#utility.yul\":16830:16860   */\n      swap3\n      pop\n        /* \"#utility.yul\":16903:16907   */\n      dup1\n        /* \"#utility.yul\":16893:16901   */\n      dup5\n        /* \"#utility.yul\":16889:16908   */\n      and\n        /* \"#utility.yul\":16882:16887   */\n      dup4\n        /* \"#utility.yul\":16879:16909   */\n      or\n        /* \"#utility.yul\":16869:16909   */\n      swap2\n      pop\n        /* \"#utility.yul\":16722:16915   */\n      pop\n        /* \"#utility.yul\":16657:16915   */\n      swap3\n      swap2\n      pop\n      pop\n      jump\t// out\n        /* \"#utility.yul\":16921:17063   */\n    tag_299:\n        /* \"#utility.yul\":16971:16980   */\n      0x00\n        /* \"#utility.yul\":17004:17057   */\n      tag_507\n        /* \"#utility.yul\":17022:17056   */\n      tag_508\n        /* \"#utility.yul\":17031:17055   */\n      tag_509\n        /* \"#utility.yul\":17049:17054   */\n      dup5\n        /* \"#utility.yul\":17031:17055   */\n      tag_266\n      jump\t// in\n    tag_509:\n        /* \"#utility.yul\":17022:17056   */\n      tag_245\n      jump\t// in\n    tag_508:\n        /* \"#utility.yul\":17004:17057   */\n      tag_266\n      jump\t// in\n    tag_507:\n        /* \"#utility.yul\":16991:17057   */\n      swap1\n      pop\n        /* \"#utility.yul\":16921:17063   */\n      swap2\n      swap1\n      pop\n      jump\t// out\n        /* \"#utility.yul\":17069:17144   */\n    tag_300:\n        /* \"#utility.yul\":17112:17115   */\n      0x00\n        /* \"#utility.yul\":17133:17138   */\n      dup2\n        /* \"#utility.yul\":17126:17138   */\n      swap1\n      pop\n        /* \"#utility.yul\":17069:17144   */\n      swap2\n      swap1\n      pop\n      jump\t// out\n        /* \"#utility.yul\":17150:17412   */\n    tag_301:\n        /* \"#utility.yul\":17260:17299   */\n      tag_512\n        /* \"#utility.yul\":17291:17298   */\n      dup3\n        /* \"#utility.yul\":17260:17299   */\n      tag_299\n      jump\t// in\n    tag_512:\n        /* \"#utility.yul\":17321:17405   */\n      tag_513\n        /* \"#utility.yul\":17363:17404   */\n      tag_514\n        /* \"#utility.yul\":17387:17403   */\n      dup3\n        /* \"#utility.yul\":17363:17404   */\n      tag_300\n      jump\t// in\n    tag_514:\n        /* \"#utility.yul\":17356:17360   */\n      dup4\n        /* \"#utility.yul\":17350:17361   */\n      sload\n        /* \"#utility.yul\":17321:17405   */\n      tag_298\n      jump\t// in\n    tag_513:\n        /* \"#utility.yul\":17315:17319   */\n      dup3\n        /* \"#utility.yul\":17308:17406   */\n      sstore\n        /* \"#utility.yul\":17226:17412   */\n      pop\n        /* \"#utility.yul\":17150:17412   */\n      pop\n      pop\n      jump\t// out\n        /* \"#utility.yul\":17418:18223   */\n    tag_302:\n        /* \"#utility.yul\":17594:17595   */\n      0x00\n        /* \"#utility.yul\":17588:17592   */\n      dup2\n        /* \"#utility.yul\":17584:17596   */\n      add\n        /* \"#utility.yul\":17640:17641   */\n      0x00\n        /* \"#utility.yul\":17633:17638   */\n      dup4\n        /* \"#utility.yul\":17629:17642   */\n      add\n        /* \"#utility.yul\":17690:17702   */\n      dup1\n        /* \"#utility.yul\":17733:17775   */\n      tag_516\n        /* \"#utility.yul\":17761:17774   */\n      dup2\n        /* \"#utility.yul\":17733:17775   */\n      tag_289\n      jump\t// in\n    tag_516:\n        /* \"#utility.yul\":17716:17775   */\n      swap1\n      pop\n        /* \"#utility.yul\":17789:17867   */\n      tag_517\n        /* \"#utility.yul\":17853:17866   */\n      dup2\n        /* \"#utility.yul\":17841:17851   */\n      dup5\n        /* \"#utility.yul\":17789:17867   */\n      tag_295\n      jump\t// in\n    tag_517:\n        /* \"#utility.yul\":17551:17878   */\n      pop\n      pop\n      pop\n        /* \"#utility.yul\":17931:17932   */\n      0x01\n        /* \"#utility.yul\":17925:17929   */\n      dup2\n        /* \"#utility.yul\":17921:17933   */\n      add\n        /* \"#utility.yul\":17977:17979   */\n      0x20\n        /* \"#utility.yul\":17970:17975   */\n      dup4\n        /* \"#utility.yul\":17966:17980   */\n      add\n        /* \"#utility.yul\":18028:18040   */\n      dup1\n        /* \"#utility.yul\":18071:18113   */\n      tag_518\n        /* \"#utility.yul\":18099:18112   */\n      dup2\n        /* \"#utility.yul\":18071:18113   */\n      tag_297\n      jump\t// in\n    tag_518:\n        /* \"#utility.yul\":18054:18113   */\n      swap1\n      pop\n        /* \"#utility.yul\":18127:18205   */\n      tag_519\n        /* \"#utility.yul\":18191:18204   */\n      dup2\n        /* \"#utility.yul\":18179:18189   */\n      dup5\n        /* \"#utility.yul\":18127:18205   */\n      tag_301\n      jump\t// in\n    tag_519:\n        /* \"#utility.yul\":17888:18216   */\n      pop\n      pop\n      pop\n        /* \"#utility.yul\":17418:18223   */\n      pop\n      pop\n      jump\t// out\n        /* \"#utility.yul\":18229:18485   */\n    tag_127:\n        /* \"#utility.yul\":18365:18479   */\n      tag_521\n        /* \"#utility.yul\":18471:18478   */\n      dup3\n        /* \"#utility.yul\":18465:18469   */\n      dup3\n        /* \"#utility.yul\":18365:18479   */\n      tag_302\n      jump\t// in\n    tag_521:\n        /* \"#utility.yul\":18229:18485   */\n      pop\n      pop\n      jump\t// out\n        /* \"#utility.yul\":18491:18654   */\n    tag_303:\n        /* \"#utility.yul\":18608:18619   */\n      0x00\n        /* \"#utility.yul\":18645:18648   */\n      dup2\n        /* \"#utility.yul\":18630:18648   */\n      swap1\n      pop\n        /* \"#utility.yul\":18491:18654   */\n      swap3\n      swap2\n      pop\n      pop\n      jump\t// out\n        /* \"#utility.yul\":18660:18762   */\n    tag_304:\n        /* \"#utility.yul\":18729:18733   */\n      0x00\n        /* \"#utility.yul\":18752:18755   */\n      dup2\n        /* \"#utility.yul\":18744:18755   */\n      swap1\n      pop\n        /* \"#utility.yul\":18660:18762   */\n      swap2\n      swap1\n      pop\n      jump\t// out\n        /* \"#utility.yul\":18768:18884   */\n    tag_305:\n        /* \"#utility.yul\":18853:18877   */\n      tag_525\n        /* \"#utility.yul\":18871:18876   */\n      dup2\n        /* \"#utility.yul\":18853:18877   */\n      tag_261\n      jump\t// in\n    tag_525:\n        /* \"#utility.yul\":18848:18851   */\n      dup3\n        /* \"#utility.yul\":18841:18878   */\n      mstore\n        /* \"#utility.yul\":18768:18884   */\n      pop\n      pop\n      jump\t// out\n        /* \"#utility.yul\":18890:19085   */\n    tag_306:\n        /* \"#utility.yul\":18967:18977   */\n      0x00\n        /* \"#utility.yul\":18988:19042   */\n      tag_527\n        /* \"#utility.yul\":19038:19041   */\n      dup4\n        /* \"#utility.yul\":19030:19036   */\n      dup4\n        /* \"#utility.yul\":18988:19042   */\n      tag_305\n      jump\t// in\n    tag_527:\n        /* \"#utility.yul\":19074:19078   */\n      0x20\n        /* \"#utility.yul\":19069:19072   */\n      dup4\n        /* \"#utility.yul\":19065:19079   */\n      add\n        /* \"#utility.yul\":19051:19079   */\n      swap1\n      pop\n        /* \"#utility.yul\":18890:19085   */\n      swap3\n      swap2\n      pop\n      pop\n      jump\t// out\n        /* \"#utility.yul\":19091:19213   */\n    tag_307:\n        /* \"#utility.yul\":19143:19148   */\n      0x00\n        /* \"#utility.yul\":19168:19207   */\n      tag_529\n        /* \"#utility.yul\":19203:19205   */\n      0x20\n        /* \"#utility.yul\":19198:19201   */\n      dup5\n        /* \"#utility.yul\":19194:19206   */\n      add\n        /* \"#utility.yul\":19189:19192   */\n      dup5\n        /* \"#utility.yul\":19168:19207   */\n      tag_263\n      jump\t// in\n    tag_529:\n        /* \"#utility.yul\":19159:19207   */\n      swap1\n      pop\n        /* \"#utility.yul\":19091:19213   */\n      swap3\n      swap2\n      pop\n      pop\n      jump\t// out\n        /* \"#utility.yul\":19219:19334   */\n    tag_308:\n        /* \"#utility.yul\":19291:19295   */\n      0x00\n        /* \"#utility.yul\":19323:19327   */\n      0x20\n        /* \"#utility.yul\":19318:19321   */\n      dup3\n        /* \"#utility.yul\":19314:19328   */\n      add\n        /* \"#utility.yul\":19306:19328   */\n      swap1\n      pop\n        /* \"#utility.yul\":19219:19334   */\n      swap2\n      swap1\n      pop\n      jump\t// out\n        /* \"#utility.yul\":19370:20113   */\n    tag_309:\n        /* \"#utility.yul\":19517:19520   */\n      0x00\n        /* \"#utility.yul\":19540:19644   */\n      tag_532\n        /* \"#utility.yul\":19637:19643   */\n      dup4\n        /* \"#utility.yul\":19632:19635   */\n      dup6\n        /* \"#utility.yul\":19540:19644   */\n      tag_303\n      jump\t// in\n    tag_532:\n        /* \"#utility.yul\":19533:19644   */\n      swap4\n      pop\n        /* \"#utility.yul\":19668:19726   */\n      tag_533\n        /* \"#utility.yul\":19720:19725   */\n      dup3\n        /* \"#utility.yul\":19668:19726   */\n      tag_304\n      jump\t// in\n    tag_533:\n        /* \"#utility.yul\":19749:19756   */\n      dup1\n        /* \"#utility.yul\":19780:19781   */\n      0x00\n        /* \"#utility.yul\":19765:20088   */\n    tag_534:\n        /* \"#utility.yul\":19790:19796   */\n      dup6\n        /* \"#utility.yul\":19787:19788   */\n      dup2\n        /* \"#utility.yul\":19784:19797   */\n      lt\n        /* \"#utility.yul\":19765:20088   */\n      iszero\n      tag_536\n      jumpi\n        /* \"#utility.yul\":19860:19902   */\n      tag_537\n        /* \"#utility.yul\":19895:19901   */\n      dup3\n        /* \"#utility.yul\":19886:19893   */\n      dup5\n        /* \"#utility.yul\":19860:19902   */\n      tag_307\n      jump\t// in\n    tag_537:\n        /* \"#utility.yul\":19922:19993   */\n      tag_538\n        /* \"#utility.yul\":19989:19992   */\n      dup9\n        /* \"#utility.yul\":19974:19987   */\n      dup3\n        /* \"#utility.yul\":19922:19993   */\n      tag_306\n      jump\t// in\n    tag_538:\n        /* \"#utility.yul\":19915:19993   */\n      swap8\n      pop\n        /* \"#utility.yul\":20016:20078   */\n      tag_539\n        /* \"#utility.yul\":20071:20077   */\n      dup4\n        /* \"#utility.yul\":20016:20078   */\n      tag_308\n      jump\t// in\n    tag_539:\n        /* \"#utility.yul\":20006:20078   */\n      swap3\n      pop\n        /* \"#utility.yul\":19825:20088   */\n      pop\n        /* \"#utility.yul\":19812:19813   */\n      0x01\n        /* \"#utility.yul\":19809:19810   */\n      dup2\n        /* \"#utility.yul\":19805:19814   */\n      add\n        /* \"#utility.yul\":19800:19814   */\n      swap1\n      pop\n        /* \"#utility.yul\":19765:20088   */\n      jump(tag_534)\n    tag_536:\n        /* \"#utility.yul\":19769:19783   */\n      pop\n        /* \"#utility.yul\":20104:20107   */\n      dup6\n        /* \"#utility.yul\":20097:20107   */\n      swap3\n      pop\n        /* \"#utility.yul\":19522:20113   */\n      pop\n      pop\n        /* \"#utility.yul\":19370:20113   */\n      swap4\n      swap3\n      pop\n      pop\n      pop\n      jump\t// out\n        /* \"#utility.yul\":20119:20474   */\n    tag_130:\n        /* \"#utility.yul\":20291:20294   */\n      0x00\n        /* \"#utility.yul\":20313:20448   */\n      tag_541\n        /* \"#utility.yul\":20444:20447   */\n      dup3\n        /* \"#utility.yul\":20435:20441   */\n      dup5\n        /* \"#utility.yul\":20427:20433   */\n      dup7\n        /* \"#utility.yul\":20313:20448   */\n      tag_309\n      jump\t// in\n    tag_541:\n        /* \"#utility.yul\":20306:20448   */\n      swap2\n      pop\n        /* \"#utility.yul\":20465:20468   */\n      dup2\n        /* \"#utility.yul\":20458:20468   */\n      swap1\n      pop\n        /* \"#utility.yul\":20119:20474   */\n      swap4\n      swap3\n      pop\n      pop\n      pop\n      jump\t// out\n        /* \"#utility.yul\":20480:20619   */\n    tag_310:\n        /* \"#utility.yul\":20526:20531   */\n      0x00\n        /* \"#utility.yul\":20564:20570   */\n      dup2\n        /* \"#utility.yul\":20551:20571   */\n      calldataload\n        /* \"#utility.yul\":20542:20571   */\n      swap1\n      pop\n        /* \"#utility.yul\":20580:20613   */\n      tag_543\n        /* \"#utility.yul\":20607:20612   */\n      dup2\n        /* \"#utility.yul\":20580:20613   */\n      tag_296\n      jump\t// in\n    tag_543:\n        /* \"#utility.yul\":20480:20619   */\n      swap3\n      swap2\n      pop\n      pop\n      jump\t// out\n        /* \"#utility.yul\":20625:20954   */\n    tag_132:\n        /* \"#utility.yul\":20684:20690   */\n      0x00\n        /* \"#utility.yul\":20733:20735   */\n      0x20\n        /* \"#utility.yul\":20721:20730   */\n      dup3\n        /* \"#utility.yul\":20712:20719   */\n      dup5\n        /* \"#utility.yul\":20708:20731   */\n      sub\n        /* \"#utility.yul\":20704:20736   */\n      slt\n        /* \"#utility.yul\":20701:20820   */\n      iszero\n      tag_545\n      jumpi\n        /* \"#utility.yul\":20739:20818   */\n      tag_546\n      tag_252\n      jump\t// in\n    tag_546:\n        /* \"#utility.yul\":20701:20820   */\n    tag_545:\n        /* \"#utility.yul\":20859:20860   */\n      0x00\n        /* \"#utility.yul\":20884:20937   */\n      tag_547\n        /* \"#utility.yul\":20929:20936   */\n      dup5\n        /* \"#utility.yul\":20920:20926   */\n      dup3\n        /* \"#utility.yul\":20909:20918   */\n      dup6\n        /* \"#utility.yul\":20905:20927   */\n      add\n        /* \"#utility.yul\":20884:20937   */\n      tag_310\n      jump\t// in\n    tag_547:\n        /* \"#utility.yul\":20874:20937   */\n      swap2\n      pop\n        /* \"#utility.yul\":20830:20947   */\n      pop\n        /* \"#utility.yul\":20625:20954   */\n      swap3\n      swap2\n      pop\n      pop\n      jump\t// out\n        /* \"#utility.yul\":20960:21402   */\n    tag_134:\n        /* \"#utility.yul\":21109:21113   */\n      0x00\n        /* \"#utility.yul\":21147:21149   */\n      0x60\n        /* \"#utility.yul\":21136:21145   */\n      dup3\n        /* \"#utility.yul\":21132:21150   */\n      add\n        /* \"#utility.yul\":21124:21150   */\n      swap1\n      pop\n        /* \"#utility.yul\":21160:21231   */\n      tag_549\n        /* \"#utility.yul\":21228:21229   */\n      0x00\n        /* \"#utility.yul\":21217:21226   */\n      dup4\n        /* \"#utility.yul\":21213:21230   */\n      add\n        /* \"#utility.yul\":21204:21210   */\n      dup7\n        /* \"#utility.yul\":21160:21231   */\n      tag_265\n      jump\t// in\n    tag_549:\n        /* \"#utility.yul\":21241:21313   */\n      tag_550\n        /* \"#utility.yul\":21309:21311   */\n      0x20\n        /* \"#utility.yul\":21298:21307   */\n      dup4\n        /* \"#utility.yul\":21294:21312   */\n      add\n        /* \"#utility.yul\":21285:21291   */\n      dup6\n        /* \"#utility.yul\":21241:21313   */\n      tag_267\n      jump\t// in\n    tag_550:\n        /* \"#utility.yul\":21323:21395   */\n      tag_551\n        /* \"#utility.yul\":21391:21393   */\n      0x40\n        /* \"#utility.yul\":21380:21389   */\n      dup4\n        /* \"#utility.yul\":21376:21394   */\n      add\n        /* \"#utility.yul\":21367:21373   */\n      dup5\n        /* \"#utility.yul\":21323:21395   */\n      tag_243\n      jump\t// in\n    tag_551:\n        /* \"#utility.yul\":20960:21402   */\n      swap5\n      swap4\n      pop\n      pop\n      pop\n      pop\n      jump\t// out\n        /* \"#utility.yul\":21408:21578   */\n    tag_311:\n        /* \"#utility.yul\":21548:21570   */\n      0x496e73756666696369656e742062616c616e6365000000000000000000000000\n        /* \"#utility.yul\":21544:21545   */\n      0x00\n        /* \"#utility.yul\":21536:21542   */\n      dup3\n        /* \"#utility.yul\":21532:21546   */\n      add\n        /* \"#utility.yul\":21525:21571   */\n      mstore\n        /* \"#utility.yul\":21408:21578   */\n      pop\n      jump\t// out\n        /* \"#utility.yul\":21584:21950   */\n    tag_312:\n        /* \"#utility.yul\":21726:21729   */\n      0x00\n        /* \"#utility.yul\":21747:21814   */\n      tag_554\n        /* \"#utility.yul\":21811:21813   */\n      0x14\n        /* \"#utility.yul\":21806:21809   */\n      dup4\n        /* \"#utility.yul\":21747:21814   */\n      tag_248\n      jump\t// in\n    tag_554:\n        /* \"#utility.yul\":21740:21814   */\n      swap2\n      pop\n        /* \"#utility.yul\":21823:21916   */\n      tag_555\n        /* \"#utility.yul\":21912:21915   */\n      dup3\n        /* \"#utility.yul\":21823:21916   */\n      tag_311\n      jump\t// in\n    tag_555:\n        /* \"#utility.yul\":21941:21943   */\n      0x20\n        /* \"#utility.yul\":21936:21939   */\n      dup3\n        /* \"#utility.yul\":21932:21944   */\n      add\n        /* \"#utility.yul\":21925:21944   */\n      swap1\n      pop\n        /* \"#utility.yul\":21584:21950   */\n      swap2\n      swap1\n      pop\n      jump\t// out\n        /* \"#utility.yul\":21956:22375   */\n    tag_142:\n        /* \"#utility.yul\":22122:22126   */\n      0x00\n        /* \"#utility.yul\":22160:22162   */\n      0x20\n        /* \"#utility.yul\":22149:22158   */\n      dup3\n        /* \"#utility.yul\":22145:22163   */\n      add\n        /* \"#utility.yul\":22137:22163   */\n      swap1\n      pop\n        /* \"#utility.yul\":22209:22218   */\n      dup2\n        /* \"#utility.yul\":22203:22207   */\n      dup2\n        /* \"#utility.yul\":22199:22219   */\n      sub\n        /* \"#utility.yul\":22195:22196   */\n      0x00\n        /* \"#utility.yul\":22184:22193   */\n      dup4\n        /* \"#utility.yul\":22180:22197   */\n      add\n        /* \"#utility.yul\":22173:22220   */\n      mstore\n        /* \"#utility.yul\":22237:22368   */\n      tag_557\n        /* \"#utility.yul\":22363:22367   */\n      dup2\n        /* \"#utility.yul\":22237:22368   */\n      tag_312\n      jump\t// in\n    tag_557:\n        /* \"#utility.yul\":22229:22368   */\n      swap1\n      pop\n        /* \"#utility.yul\":21956:22375   */\n      swap2\n      swap1\n      pop\n      jump\t// out\n        /* \"#utility.yul\":22381:22713   */\n    tag_156:\n        /* \"#utility.yul\":22502:22506   */\n      0x00\n        /* \"#utility.yul\":22540:22542   */\n      0x40\n        /* \"#utility.yul\":22529:22538   */\n      dup3\n        /* \"#utility.yul\":22525:22543   */\n      add\n        /* \"#utility.yul\":22517:22543   */\n      swap1\n      pop\n        /* \"#utility.yul\":22553:22624   */\n      tag_559\n        /* \"#utility.yul\":22621:22622   */\n      0x00\n        /* \"#utility.yul\":22610:22619   */\n      dup4\n        /* \"#utility.yul\":22606:22623   */\n      add\n        /* \"#utility.yul\":22597:22603   */\n      dup6\n        /* \"#utility.yul\":22553:22624   */\n      tag_284\n      jump\t// in\n    tag_559:\n        /* \"#utility.yul\":22634:22706   */\n      tag_560\n        /* \"#utility.yul\":22702:22704   */\n      0x20\n        /* \"#utility.yul\":22691:22700   */\n      dup4\n        /* \"#utility.yul\":22687:22705   */\n      add\n        /* \"#utility.yul\":22678:22684   */\n      dup5\n        /* \"#utility.yul\":22634:22706   */\n      tag_243\n      jump\t// in\n    tag_560:\n        /* \"#utility.yul\":22381:22713   */\n      swap4\n      swap3\n      pop\n      pop\n      pop\n      jump\t// out\n        /* \"#utility.yul\":22719:22856   */\n    tag_313:\n        /* \"#utility.yul\":22773:22778   */\n      0x00\n        /* \"#utility.yul\":22804:22810   */\n      dup2\n        /* \"#utility.yul\":22798:22811   */\n      mload\n        /* \"#utility.yul\":22789:22811   */\n      swap1\n      pop\n        /* \"#utility.yul\":22820:22850   */\n      tag_562\n        /* \"#utility.yul\":22844:22849   */\n      dup2\n        /* \"#utility.yul\":22820:22850   */\n      tag_275\n      jump\t// in\n    tag_562:\n        /* \"#utility.yul\":22719:22856   */\n      swap3\n      swap2\n      pop\n      pop\n      jump\t// out\n        /* \"#utility.yul\":22862:23207   */\n    tag_160:\n        /* \"#utility.yul\":22929:22935   */\n      0x00\n        /* \"#utility.yul\":22978:22980   */\n      0x20\n        /* \"#utility.yul\":22966:22975   */\n      dup3\n        /* \"#utility.yul\":22957:22964   */\n      dup5\n        /* \"#utility.yul\":22953:22976   */\n      sub\n        /* \"#utility.yul\":22949:22981   */\n      slt\n        /* \"#utility.yul\":22946:23065   */\n      iszero\n      tag_564\n      jumpi\n        /* \"#utility.yul\":22984:23063   */\n      tag_565\n      tag_252\n      jump\t// in\n    tag_565:\n        /* \"#utility.yul\":22946:23065   */\n    tag_564:\n        /* \"#utility.yul\":23104:23105   */\n      0x00\n        /* \"#utility.yul\":23129:23190   */\n      tag_566\n        /* \"#utility.yul\":23182:23189   */\n      dup5\n        /* \"#utility.yul\":23173:23179   */\n      dup3\n        /* \"#utility.yul\":23162:23171   */\n      dup6\n        /* \"#utility.yul\":23158:23180   */\n      add\n        /* \"#utility.yul\":23129:23190   */\n      tag_313\n      jump\t// in\n    tag_566:\n        /* \"#utility.yul\":23119:23190   */\n      swap2\n      pop\n        /* \"#utility.yul\":23075:23200   */\n      pop\n        /* \"#utility.yul\":22862:23207   */\n      swap3\n      swap2\n      pop\n      pop\n      jump\t// out\n        /* \"#utility.yul\":23213:23378   */\n    tag_314:\n        /* \"#utility.yul\":23353:23370   */\n      0x5472616e73666572206661696c65640000000000000000000000000000000000\n        /* \"#utility.yul\":23349:23350   */\n      0x00\n        /* \"#utility.yul\":23341:23347   */\n      dup3\n        /* \"#utility.yul\":23337:23351   */\n      add\n        /* \"#utility.yul\":23330:23371   */\n      mstore\n        /* \"#utility.yul\":23213:23378   */\n      pop\n      jump\t// out\n        /* \"#utility.yul\":23384:23750   */\n    tag_315:\n        /* \"#utility.yul\":23526:23529   */\n      0x00\n        /* \"#utility.yul\":23547:23614   */\n      tag_569\n        /* \"#utility.yul\":23611:23613   */\n      0x0f\n        /* \"#utility.yul\":23606:23609   */\n      dup4\n        /* \"#utility.yul\":23547:23614   */\n      tag_248\n      jump\t// in\n    tag_569:\n        /* \"#utility.yul\":23540:23614   */\n      swap2\n      pop\n        /* \"#utility.yul\":23623:23716   */\n      tag_570\n        /* \"#utility.yul\":23712:23715   */\n      dup3\n        /* \"#utility.yul\":23623:23716   */\n      tag_314\n      jump\t// in\n    tag_570:\n        /* \"#utility.yul\":23741:23743   */\n      0x20\n        /* \"#utility.yul\":23736:23739   */\n      dup3\n        /* \"#utility.yul\":23732:23744   */\n      add\n        /* \"#utility.yul\":23725:23744   */\n      swap1\n      pop\n        /* \"#utility.yul\":23384:23750   */\n      swap2\n      swap1\n      pop\n      jump\t// out\n        /* \"#utility.yul\":23756:24175   */\n    tag_163:\n        /* \"#utility.yul\":23922:23926   */\n      0x00\n        /* \"#utility.yul\":23960:23962   */\n      0x20\n        /* \"#utility.yul\":23949:23958   */\n      dup3\n        /* \"#utility.yul\":23945:23963   */\n      add\n        /* \"#utility.yul\":23937:23963   */\n      swap1\n      pop\n        /* \"#utility.yul\":24009:24018   */\n      dup2\n        /* \"#utility.yul\":24003:24007   */\n      dup2\n        /* \"#utility.yul\":23999:24019   */\n      sub\n        /* \"#utility.yul\":23995:23996   */\n      0x00\n        /* \"#utility.yul\":23984:23993   */\n      dup4\n        /* \"#utility.yul\":23980:23997   */\n      add\n        /* \"#utility.yul\":23973:24020   */\n      mstore\n        /* \"#utility.yul\":24037:24168   */\n      tag_572\n        /* \"#utility.yul\":24163:24167   */\n      dup2\n        /* \"#utility.yul\":24037:24168   */\n      tag_315\n      jump\t// in\n    tag_572:\n        /* \"#utility.yul\":24029:24168   */\n      swap1\n      pop\n        /* \"#utility.yul\":23756:24175   */\n      swap2\n      swap1\n      pop\n      jump\t// out\n        /* \"#utility.yul\":24181:24375   */\n    tag_165:\n        /* \"#utility.yul\":24221:24225   */\n      0x00\n        /* \"#utility.yul\":24241:24261   */\n      tag_574\n        /* \"#utility.yul\":24259:24260   */\n      dup3\n        /* \"#utility.yul\":24241:24261   */\n      tag_241\n      jump\t// in\n    tag_574:\n        /* \"#utility.yul\":24236:24261   */\n      swap2\n      pop\n        /* \"#utility.yul\":24275:24295   */\n      tag_575\n        /* \"#utility.yul\":24293:24294   */\n      dup4\n        /* \"#utility.yul\":24275:24295   */\n      tag_241\n      jump\t// in\n    tag_575:\n        /* \"#utility.yul\":24270:24295   */\n      swap3\n      pop\n        /* \"#utility.yul\":24319:24320   */\n      dup3\n        /* \"#utility.yul\":24316:24317   */\n      dup3\n        /* \"#utility.yul\":24312:24321   */\n      sub\n        /* \"#utility.yul\":24304:24321   */\n      swap1\n      pop\n        /* \"#utility.yul\":24343:24344   */\n      dup2\n        /* \"#utility.yul\":24337:24341   */\n      dup2\n        /* \"#utility.yul\":24334:24345   */\n      gt\n        /* \"#utility.yul\":24331:24368   */\n      iszero\n      tag_576\n      jumpi\n        /* \"#utility.yul\":24348:24366   */\n      tag_577\n      tag_242\n      jump\t// in\n    tag_577:\n        /* \"#utility.yul\":24331:24368   */\n    tag_576:\n        /* \"#utility.yul\":24181:24375   */\n      swap3\n      swap2\n      pop\n      pop\n      jump\t// out\n        /* \"#utility.yul\":24381:24823   */\n    tag_180:\n        /* \"#utility.yul\":24530:24534   */\n      0x00\n        /* \"#utility.yul\":24568:24570   */\n      0x60\n        /* \"#utility.yul\":24557:24566   */\n      dup3\n        /* \"#utility.yul\":24553:24571   */\n      add\n        /* \"#utility.yul\":24545:24571   */\n      swap1\n      pop\n        /* \"#utility.yul\":24581:24652   */\n      tag_579\n        /* \"#utility.yul\":24649:24650   */\n      0x00\n        /* \"#utility.yul\":24638:24647   */\n      dup4\n        /* \"#utility.yul\":24634:24651   */\n      add\n        /* \"#utility.yul\":24625:24631   */\n      dup7\n        /* \"#utility.yul\":24581:24652   */\n      tag_284\n      jump\t// in\n    tag_579:\n        /* \"#utility.yul\":24662:24734   */\n      tag_580\n        /* \"#utility.yul\":24730:24732   */\n      0x20\n        /* \"#utility.yul\":24719:24728   */\n      dup4\n        /* \"#utility.yul\":24715:24733   */\n      add\n        /* \"#utility.yul\":24706:24712   */\n      dup6\n        /* \"#utility.yul\":24662:24734   */\n      tag_284\n      jump\t// in\n    tag_580:\n        /* \"#utility.yul\":24744:24816   */\n      tag_581\n        /* \"#utility.yul\":24812:24814   */\n      0x40\n        /* \"#utility.yul\":24801:24810   */\n      dup4\n        /* \"#utility.yul\":24797:24815   */\n      add\n        /* \"#utility.yul\":24788:24794   */\n      dup5\n        /* \"#utility.yul\":24744:24816   */\n      tag_243\n      jump\t// in\n    tag_581:\n        /* \"#utility.yul\":24381:24823   */\n      swap5\n      swap4\n      pop\n      pop\n      pop\n      pop\n      jump\t// out\n        /* \"#utility.yul\":24829:24985   */\n    tag_316:\n        /* \"#utility.yul\":24969:24977   */\n      0x4552432d32300000000000000000000000000000000000000000000000000000\n        /* \"#utility.yul\":24965:24966   */\n      0x00\n        /* \"#utility.yul\":24957:24963   */\n      dup3\n        /* \"#utility.yul\":24953:24967   */\n      add\n        /* \"#utility.yul\":24946:24978   */\n      mstore\n        /* \"#utility.yul\":24829:24985   */\n      pop\n      jump\t// out\n        /* \"#utility.yul\":24991:25356   */\n    tag_317:\n        /* \"#utility.yul\":25133:25136   */\n      0x00\n        /* \"#utility.yul\":25154:25220   */\n      tag_584\n        /* \"#utility.yul\":25218:25219   */\n      0x06\n        /* \"#utility.yul\":25213:25216   */\n      dup4\n        /* \"#utility.yul\":25154:25220   */\n      tag_248\n      jump\t// in\n    tag_584:\n        /* \"#utility.yul\":25147:25220   */\n      swap2\n      pop\n        /* \"#utility.yul\":25229:25322   */\n      tag_585\n        /* \"#utility.yul\":25318:25321   */\n      dup3\n        /* \"#utility.yul\":25229:25322   */\n      tag_316\n      jump\t// in\n    tag_585:\n        /* \"#utility.yul\":25347:25349   */\n      0x20\n        /* \"#utility.yul\":25342:25345   */\n      dup3\n        /* \"#utility.yul\":25338:25350   */\n      add\n        /* \"#utility.yul\":25331:25350   */\n      swap1\n      pop\n        /* \"#utility.yul\":24991:25356   */\n      swap2\n      swap1\n      pop\n      jump\t// out\n        /* \"#utility.yul\":25362:26128   */\n    tag_189:\n        /* \"#utility.yul\":25620:25624   */\n      0x00\n        /* \"#utility.yul\":25658:25661   */\n      0x80\n        /* \"#utility.yul\":25647:25656   */\n      dup3\n        /* \"#utility.yul\":25643:25662   */\n      add\n        /* \"#utility.yul\":25635:25662   */\n      swap1\n      pop\n        /* \"#utility.yul\":25672:25743   */\n      tag_587\n        /* \"#utility.yul\":25740:25741   */\n      0x00\n        /* \"#utility.yul\":25729:25738   */\n      dup4\n        /* \"#utility.yul\":25725:25742   */\n      add\n        /* \"#utility.yul\":25716:25722   */\n      dup7\n        /* \"#utility.yul\":25672:25743   */\n      tag_243\n      jump\t// in\n    tag_587:\n        /* \"#utility.yul\":25753:25833   */\n      tag_588\n        /* \"#utility.yul\":25829:25831   */\n      0x20\n        /* \"#utility.yul\":25818:25827   */\n      dup4\n        /* \"#utility.yul\":25814:25832   */\n      add\n        /* \"#utility.yul\":25805:25811   */\n      dup6\n        /* \"#utility.yul\":25753:25833   */\n      tag_247\n      jump\t// in\n    tag_588:\n        /* \"#utility.yul\":25880:25889   */\n      dup2\n        /* \"#utility.yul\":25874:25878   */\n      dup2\n        /* \"#utility.yul\":25870:25890   */\n      sub\n        /* \"#utility.yul\":25865:25867   */\n      0x40\n        /* \"#utility.yul\":25854:25863   */\n      dup4\n        /* \"#utility.yul\":25850:25868   */\n      add\n        /* \"#utility.yul\":25843:25891   */\n      mstore\n        /* \"#utility.yul\":25908:26039   */\n      tag_589\n        /* \"#utility.yul\":26034:26038   */\n      dup2\n        /* \"#utility.yul\":25908:26039   */\n      tag_317\n      jump\t// in\n    tag_589:\n        /* \"#utility.yul\":25900:26039   */\n      swap1\n      pop\n        /* \"#utility.yul\":26049:26121   */\n      tag_590\n        /* \"#utility.yul\":26117:26119   */\n      0x60\n        /* \"#utility.yul\":26106:26115   */\n      dup4\n        /* \"#utility.yul\":26102:26120   */\n      add\n        /* \"#utility.yul\":26093:26099   */\n      dup5\n        /* \"#utility.yul\":26049:26121   */\n      tag_243\n      jump\t// in\n    tag_590:\n        /* \"#utility.yul\":25362:26128   */\n      swap5\n      swap4\n      pop\n      pop\n      pop\n      pop\n      jump\t// out\n        /* \"#utility.yul\":26134:26302   */\n    tag_318:\n        /* \"#utility.yul\":26274:26294   */\n      0x4e465420616c72656164792073746f7265640000000000000000000000000000\n        /* \"#utility.yul\":26270:26271   */\n      0x00\n        /* \"#utility.yul\":26262:26268   */\n      dup3\n        /* \"#utility.yul\":26258:26272   */\n      add\n        /* \"#utility.yul\":26251:26295   */\n      mstore\n        /* \"#utility.yul\":26134:26302   */\n      pop\n      jump\t// out\n        /* \"#utility.yul\":26308:26674   */\n    tag_319:\n        /* \"#utility.yul\":26450:26453   */\n      0x00\n        /* \"#utility.yul\":26471:26538   */\n      tag_593\n        /* \"#utility.yul\":26535:26537   */\n      0x12\n        /* \"#utility.yul\":26530:26533   */\n      dup4\n        /* \"#utility.yul\":26471:26538   */\n      tag_248\n      jump\t// in\n    tag_593:\n        /* \"#utility.yul\":26464:26538   */\n      swap2\n      pop\n        /* \"#utility.yul\":26547:26640   */\n      tag_594\n        /* \"#utility.yul\":26636:26639   */\n      dup3\n        /* \"#utility.yul\":26547:26640   */\n      tag_318\n      jump\t// in\n    tag_594:\n        /* \"#utility.yul\":26665:26667   */\n      0x20\n        /* \"#utility.yul\":26660:26663   */\n      dup3\n        /* \"#utility.yul\":26656:26668   */\n      add\n        /* \"#utility.yul\":26649:26668   */\n      swap1\n      pop\n        /* \"#utility.yul\":26308:26674   */\n      swap2\n      swap1\n      pop\n      jump\t// out\n        /* \"#utility.yul\":26680:27099   */\n    tag_198:\n        /* \"#utility.yul\":26846:26850   */\n      0x00\n        /* \"#utility.yul\":26884:26886   */\n      0x20\n        /* \"#utility.yul\":26873:26882   */\n      dup3\n        /* \"#utility.yul\":26869:26887   */\n      add\n        /* \"#utility.yul\":26861:26887   */\n      swap1\n      pop\n        /* \"#utility.yul\":26933:26942   */\n      dup2\n        /* \"#utility.yul\":26927:26931   */\n      dup2\n        /* \"#utility.yul\":26923:26943   */\n      sub\n        /* \"#utility.yul\":26919:26920   */\n      0x00\n        /* \"#utility.yul\":26908:26917   */\n      dup4\n        /* \"#utility.yul\":26904:26921   */\n      add\n        /* \"#utility.yul\":26897:26944   */\n      mstore\n        /* \"#utility.yul\":26961:27092   */\n      tag_596\n        /* \"#utility.yul\":27087:27091   */\n      dup2\n        /* \"#utility.yul\":26961:27092   */\n      tag_319\n      jump\t// in\n    tag_596:\n        /* \"#utility.yul\":26953:27092   */\n      swap1\n      pop\n        /* \"#utility.yul\":26680:27099   */\n      swap2\n      swap1\n      pop\n      jump\t// out\n        /* \"#utility.yul\":27105:27262   */\n    tag_320:\n        /* \"#utility.yul\":27245:27254   */\n      0x4552432d37323100000000000000000000000000000000000000000000000000\n        /* \"#utility.yul\":27241:27242   */\n      0x00\n        /* \"#utility.yul\":27233:27239   */\n      dup3\n        /* \"#utility.yul\":27229:27243   */\n      add\n        /* \"#utility.yul\":27222:27255   */\n      mstore\n        /* \"#utility.yul\":27105:27262   */\n      pop\n      jump\t// out\n        /* \"#utility.yul\":27268:27633   */\n    tag_321:\n        /* \"#utility.yul\":27410:27413   */\n      0x00\n        /* \"#utility.yul\":27431:27497   */\n      tag_599\n        /* \"#utility.yul\":27495:27496   */\n      0x07\n        /* \"#utility.yul\":27490:27493   */\n      dup4\n        /* \"#utility.yul\":27431:27497   */\n      tag_248\n      jump\t// in\n    tag_599:\n        /* \"#utility.yul\":27424:27497   */\n      swap2\n      pop\n        /* \"#utility.yul\":27506:27599   */\n      tag_600\n        /* \"#utility.yul\":27595:27598   */\n      dup3\n        /* \"#utility.yul\":27506:27599   */\n      tag_320\n      jump\t// in\n    tag_600:\n        /* \"#utility.yul\":27624:27626   */\n      0x20\n        /* \"#utility.yul\":27619:27622   */\n      dup3\n        /* \"#utility.yul\":27615:27627   */\n      add\n        /* \"#utility.yul\":27608:27627   */\n      swap1\n      pop\n        /* \"#utility.yul\":27268:27633   */\n      swap2\n      swap1\n      pop\n      jump\t// out\n        /* \"#utility.yul\":27639:28405   */\n    tag_202:\n        /* \"#utility.yul\":27897:27901   */\n      0x00\n        /* \"#utility.yul\":27935:27938   */\n      0x80\n        /* \"#utility.yul\":27924:27933   */\n      dup3\n        /* \"#utility.yul\":27920:27939   */\n      add\n        /* \"#utility.yul\":27912:27939   */\n      swap1\n      pop\n        /* \"#utility.yul\":27949:28028   */\n      tag_602\n        /* \"#utility.yul\":28025:28026   */\n      0x00\n        /* \"#utility.yul\":28014:28023   */\n      dup4\n        /* \"#utility.yul\":28010:28027   */\n      add\n        /* \"#utility.yul\":28001:28007   */\n      dup7\n        /* \"#utility.yul\":27949:28028   */\n      tag_247\n      jump\t// in\n    tag_602:\n        /* \"#utility.yul\":28038:28110   */\n      tag_603\n        /* \"#utility.yul\":28106:28108   */\n      0x20\n        /* \"#utility.yul\":28095:28104   */\n      dup4\n        /* \"#utility.yul\":28091:28109   */\n      add\n        /* \"#utility.yul\":28082:28088   */\n      dup6\n        /* \"#utility.yul\":28038:28110   */\n      tag_243\n      jump\t// in\n    tag_603:\n        /* \"#utility.yul\":28157:28166   */\n      dup2\n        /* \"#utility.yul\":28151:28155   */\n      dup2\n        /* \"#utility.yul\":28147:28167   */\n      sub\n        /* \"#utility.yul\":28142:28144   */\n      0x40\n        /* \"#utility.yul\":28131:28140   */\n      dup4\n        /* \"#utility.yul\":28127:28145   */\n      add\n        /* \"#utility.yul\":28120:28168   */\n      mstore\n        /* \"#utility.yul\":28185:28316   */\n      tag_604\n        /* \"#utility.yul\":28311:28315   */\n      dup2\n        /* \"#utility.yul\":28185:28316   */\n      tag_321\n      jump\t// in\n    tag_604:\n        /* \"#utility.yul\":28177:28316   */\n      swap1\n      pop\n        /* \"#utility.yul\":28326:28398   */\n      tag_605\n        /* \"#utility.yul\":28394:28396   */\n      0x60\n        /* \"#utility.yul\":28383:28392   */\n      dup4\n        /* \"#utility.yul\":28379:28397   */\n      add\n        /* \"#utility.yul\":28370:28376   */\n      dup5\n        /* \"#utility.yul\":28326:28398   */\n      tag_243\n      jump\t// in\n    tag_605:\n        /* \"#utility.yul\":27639:28405   */\n      swap5\n      swap4\n      pop\n      pop\n      pop\n      pop\n      jump\t// out\n        /* \"#utility.yul\":28411:28575   */\n    tag_322:\n        /* \"#utility.yul\":28551:28567   */\n      0x4e4654206e6f742073746f726564000000000000000000000000000000000000\n        /* \"#utility.yul\":28547:28548   */\n      0x00\n        /* \"#utility.yul\":28539:28545   */\n      dup3\n        /* \"#utility.yul\":28535:28549   */\n      add\n        /* \"#utility.yul\":28528:28568   */\n      mstore\n        /* \"#utility.yul\":28411:28575   */\n      pop\n      jump\t// out\n        /* \"#utility.yul\":28581:28947   */\n    tag_323:\n        /* \"#utility.yul\":28723:28726   */\n      0x00\n        /* \"#utility.yul\":28744:28811   */\n      tag_608\n        /* \"#utility.yul\":28808:28810   */\n      0x0e\n        /* \"#utility.yul\":28803:28806   */\n      dup4\n        /* \"#utility.yul\":28744:28811   */\n      tag_248\n      jump\t// in\n    tag_608:\n        /* \"#utility.yul\":28737:28811   */\n      swap2\n      pop\n        /* \"#utility.yul\":28820:28913   */\n      tag_609\n        /* \"#utility.yul\":28909:28912   */\n      dup3\n        /* \"#utility.yul\":28820:28913   */\n      tag_322\n      jump\t// in\n    tag_609:\n        /* \"#utility.yul\":28938:28940   */\n      0x20\n        /* \"#utility.yul\":28933:28936   */\n      dup3\n        /* \"#utility.yul\":28929:28941   */\n      add\n        /* \"#utility.yul\":28922:28941   */\n      swap1\n      pop\n        /* \"#utility.yul\":28581:28947   */\n      swap2\n      swap1\n      pop\n      jump\t// out\n        /* \"#utility.yul\":28953:29372   */\n    tag_211:\n        /* \"#utility.yul\":29119:29123   */\n      0x00\n        /* \"#utility.yul\":29157:29159   */\n      0x20\n        /* \"#utility.yul\":29146:29155   */\n      dup3\n        /* \"#utility.yul\":29142:29160   */\n      add\n        /* \"#utility.yul\":29134:29160   */\n      swap1\n      pop\n        /* \"#utility.yul\":29206:29215   */\n      dup2\n        /* \"#utility.yul\":29200:29204   */\n      dup2\n        /* \"#utility.yul\":29196:29216   */\n      sub\n        /* \"#utility.yul\":29192:29193   */\n      0x00\n        /* \"#utility.yul\":29181:29190   */\n      dup4\n        /* \"#utility.yul\":29177:29194   */\n      add\n        /* \"#utility.yul\":29170:29217   */\n      mstore\n        /* \"#utility.yul\":29234:29365   */\n      tag_611\n        /* \"#utility.yul\":29360:29364   */\n      dup2\n        /* \"#utility.yul\":29234:29365   */\n      tag_323\n      jump\t// in\n    tag_611:\n        /* \"#utility.yul\":29226:29365   */\n      swap1\n      pop\n        /* \"#utility.yul\":28953:29372   */\n      swap2\n      swap1\n      pop\n      jump\t// out\n        /* \"#utility.yul\":29378:29558   */\n    tag_227:\n        /* \"#utility.yul\":29426:29503   */\n      0x4e487b7100000000000000000000000000000000000000000000000000000000\n        /* \"#utility.yul\":29423:29424   */\n      0x00\n        /* \"#utility.yul\":29416:29504   */\n      mstore\n        /* \"#utility.yul\":29523:29527   */\n      0x31\n        /* \"#utility.yul\":29520:29521   */\n      0x04\n        /* \"#utility.yul\":29513:29528   */\n      mstore\n        /* \"#utility.yul\":29547:29551   */\n      0x24\n        /* \"#utility.yul\":29544:29545   */\n      0x00\n        /* \"#utility.yul\":29537:29552   */\n      revert\n\n    auxdata: 0xa264697066735822122034169e17b8cdcf8bf199c2fcf97d8d87a61cd847b22b86098f23b575584ee9a564736f6c63430008160033\n}\n",
				"bytecode": {
					"linkReferences": {},
					"object": "608060405234801561000f575f80fd5b50335f806101000a81548173ffffffffffffffffffffffffffffffffffffffff021916908373ffffffffffffffffffffffffffffffffffffffff1602179055506125908061005c5f395ff3fe6080604052600436106100f6575f3560e01c80636d1dbc4811610089578063c003a3a411610058578063c003a3a414610434578063c3a8962c1461045c578063d826584614610498578063d8f3790f146104c0576101d3565b80636d1dbc481461036a57806381473c64146103a65780638da5cb5b146103e2578063b108d36d1461040c576101d3565b80634782f779116100c55780634782f779146102b6578063483f96be146102de5780634d2301cc146103065780636cd533d814610342576101d3565b80631a1d4011146101d75780632dccf71c146101ff57806332a93efb1461023c5780633639362714610279576101d3565b366101d3573460065f3373ffffffffffffffffffffffffffffffffffffffff1673ffffffffffffffffffffffffffffffffffffffff1681526020019081526020015f205f82825461014791906117ab565b925050819055506001805f82825461015f91906117ab565b925050819055505f73ffffffffffffffffffffffffffffffffffffffff163373ffffffffffffffffffffffffffffffffffffffff167fd470274636139438aa953eb5783fde481a87a2312194bd215b7d10558d19b43b345f6001546040516101c993929190611889565b60405180910390a3005b5f80fd5b3480156101e2575f80fd5b506101fd60048036038101906101f8919061195c565b6104fc565b005b34801561020a575f80fd5b5061022560048036038101906102209190611a13565b6106a0565b604051610233929190611a80565b60405180910390f35b348015610247575f80fd5b50610262600480360381019061025d9190611a13565b610747565b604051610270929190611ac1565b60405180910390f35b348015610284575f80fd5b5061029f600480360381019061029a9190611a13565b610774565b6040516102ad929190611a80565b60405180910390f35b3480156102c1575f80fd5b506102dc60048036038101906102d79190611b4d565b6107af565b005b3480156102e9575f80fd5b5061030460048036038101906102ff9190611bb5565b610947565b005b348015610311575f80fd5b5061032c60048036038101906103279190611a13565b61094c565b6040516103399190611c05565b60405180910390f35b34801561034d575f80fd5b5061036860048036038101906103639190611c1e565b610992565b005b348015610375575f80fd5b50610390600480360381019061038b9190611c6e565b610c26565b60405161039d9190611d63565b60405180910390f35b3480156103b1575f80fd5b506103cc60048036038101906103c79190611c1e565b610cf5565b6040516103d99190611d83565b60405180910390f35b3480156103ed575f80fd5b506103f6610e0f565b6040516104039190611dab565b60405180910390f35b348015610417575f80fd5b50610432600480360381019061042d9190611dc4565b610e32565b005b34801561043f575f80fd5b5061045a60048036038101906104559190611dc4565b611003565b005b348015610467575f80fd5b50610482600480360381019061047d9190611c6e565b6111db565b60405161048f9190611c05565b60405180910390f35b3480156104a3575f80fd5b506104be60048036038101906104b99190611c1e565b61125d565b005b3480156104cb575f80fd5b506104e660048036038101906104e19190611a13565b6115fd565b6040516104f39190611c05565b60405180910390f35b5f8054906101000a900473ffffffffffffffffffffffffffffffffffffffff1673ffffffffffffffffffffffffffffffffffffffff163373ffffffffffffffffffffffffffffffffffffffff1614610589576040517f08c379a000000000000000000000000000000000000000000000000000000000815260040161058090611e4c565b60405180910390fd5b5f5b83839050811015610617578160045f8686858181106105ad576105ac611e6a565b5b90506020020160208101906105c29190611a13565b73ffffffffffffffffffffffffffffffffffffffff1673ffffffffffffffffffffffffffffffffffffffff1681526020019081526020015f208181610607919061204b565b905050808060010191505061058b565b50600160025f82825461062a91906117ab565b92505081905550828260405161064192919061210f565b60405180910390207f5c7813536a7e7b7f95eaf9fcfa83da5ceec6c6237454ad0bcc625ff3794ff619825f0135836020016020810190610681919061213b565b60025460405161069393929190612166565b60405180910390a2505050565b5f8060045f8473ffffffffffffffffffffffffffffffffffffffff1673ffffffffffffffffffffffffffffffffffffffff1681526020019081526020015f205f015460045f8573ffffffffffffffffffffffffffffffffffffffff1673ffffffffffffffffffffffffffffffffffffffff1681526020019081526020015f206001015f9054906101000a90046fffffffffffffffffffffffffffffffff1691509150915091565b6005602052805f5260405f205f91509050806003015f9054906101000a900460ff16908060040154905082565b6004602052805f5260405f205f91509050805f015490806001015f9054906101000a90046fffffffffffffffffffffffffffffffff16905082565b5f8054906101000a900473ffffffffffffffffffffffffffffffffffffffff1673ffffffffffffffffffffffffffffffffffffffff163373ffffffffffffffffffffffffffffffffffffffff161461083c576040517f08c379a000000000000000000000000000000000000000000000000000000000815260040161083390611e4c565b60405180910390fd5b4781111561087f576040517f08c379a0000000000000000000000000000000000000000000000000000000008152600401610876906121e5565b60405180910390fd5b60065f8373ffffffffffffffffffffffffffffffffffffffff1673ffffffffffffffffffffffffffffffffffffffff1681526020019081526020015f20548111156108ff576040517f08c379a00000000000000000000000000000000000000000000000000000000081526004016108f6906121e5565b60405180910390fd5b8173ffffffffffffffffffffffffffffffffffffffff166108fc8290811502906040515f60405180830381858888f19350505050158015610942573d5f803e3d5ffd5b505050565b505050565b5f60065f8373ffffffffffffffffffffffffffffffffffffffff1673ffffffffffffffffffffffffffffffffffffffff1681526020019081526020015f20549050919050565b5f8054906101000a900473ffffffffffffffffffffffffffffffffffffffff1673ffffffffffffffffffffffffffffffffffffffff163373ffffffffffffffffffffffffffffffffffffffff1614610a1f576040517f08c379a0000000000000000000000000000000000000000000000000000000008152600401610a1690611e4c565b60405180910390fd5b8060075f8473ffffffffffffffffffffffffffffffffffffffff1673ffffffffffffffffffffffffffffffffffffffff1681526020019081526020015f205f8573ffffffffffffffffffffffffffffffffffffffff1673ffffffffffffffffffffffffffffffffffffffff1681526020019081526020015f205411610ad9576040517f08c379a0000000000000000000000000000000000000000000000000000000008152600401610ad0906121e5565b60405180910390fd5b8273ffffffffffffffffffffffffffffffffffffffff1663a9059cbb83836040518363ffffffff1660e01b8152600401610b14929190612203565b6020604051808303815f875af1158015610b30573d5f803e3d5ffd5b505050506040513d601f19601f82011682018060405250810190610b54919061223e565b610b93576040517f08c379a0000000000000000000000000000000000000000000000000000000008152600401610b8a906122b3565b60405180910390fd5b8060075f8473ffffffffffffffffffffffffffffffffffffffff1673ffffffffffffffffffffffffffffffffffffffff1681526020019081526020015f205f8573ffffffffffffffffffffffffffffffffffffffff1673ffffffffffffffffffffffffffffffffffffffff1681526020019081526020015f205f828254610c1a91906122d1565b92505081905550505050565b606060085f8373ffffffffffffffffffffffffffffffffffffffff1673ffffffffffffffffffffffffffffffffffffffff1681526020019081526020015f205f8473ffffffffffffffffffffffffffffffffffffffff1673ffffffffffffffffffffffffffffffffffffffff1681526020019081526020015f20805480602002602001604051908101604052809291908181526020018280548015610ce857602002820191905f5260205f20905b815481526020019060010190808311610cd4575b5050505050905092915050565b5f8060085f8573ffffffffffffffffffffffffffffffffffffffff1673ffffffffffffffffffffffffffffffffffffffff1681526020019081526020015f205f8673ffffffffffffffffffffffffffffffffffffffff1673ffffffffffffffffffffffffffffffffffffffff1681526020019081526020015f20805480602002602001604051908101604052809291908181526020018280548015610db757602002820191905f5260205f20905b815481526020019060010190808311610da3575b505050505090505f5b8151811015610e0257818181518110610ddc57610ddb611e6a565b5b60200260200101518403610df557600192505050610e08565b8080600101915050610dc0565b505f9150505b9392505050565b5f8054906101000a900473ffffffffffffffffffffffffffffffffffffffff1681565b8173ffffffffffffffffffffffffffffffffffffffff166323b872dd3330846040518463ffffffff1660e01b8152600401610e6f93929190612304565b6020604051808303815f875af1158015610e8b573d5f803e3d5ffd5b505050506040513d601f19601f82011682018060405250810190610eaf919061223e565b610eee576040517f08c379a0000000000000000000000000000000000000000000000000000000008152600401610ee5906122b3565b60405180910390fd5b8060075f3373ffffffffffffffffffffffffffffffffffffffff1673ffffffffffffffffffffffffffffffffffffffff1681526020019081526020015f205f8473ffffffffffffffffffffffffffffffffffffffff1673ffffffffffffffffffffffffffffffffffffffff1681526020019081526020015f205f828254610f7591906117ab565b925050819055506001805f828254610f8d91906117ab565b925050819055508173ffffffffffffffffffffffffffffffffffffffff163373ffffffffffffffffffffffffffffffffffffffff167fd470274636139438aa953eb5783fde481a87a2312194bd215b7d10558d19b43b835f600154604051610ff793929190612383565b60405180910390a35050565b8173ffffffffffffffffffffffffffffffffffffffff166342842e0e3330846040518463ffffffff1660e01b815260040161104093929190612304565b5f604051808303815f87803b158015611057575f80fd5b505af1158015611069573d5f803e3d5ffd5b50505050611078823383610cf5565b156110b8576040517f08c379a00000000000000000000000000000000000000000000000000000000081526004016110af90612415565b60405180910390fd5b60085f3373ffffffffffffffffffffffffffffffffffffffff1673ffffffffffffffffffffffffffffffffffffffff1681526020019081526020015f205f8373ffffffffffffffffffffffffffffffffffffffff1673ffffffffffffffffffffffffffffffffffffffff1681526020019081526020015f2081908060018154018082558091505060019003905f5260205f20015f90919091909150556001805f82825461116591906117ab565b925050819055508173ffffffffffffffffffffffffffffffffffffffff163373ffffffffffffffffffffffffffffffffffffffff167fd470274636139438aa953eb5783fde481a87a2312194bd215b7d10558d19b43b5f846001546040516111cf9392919061247d565b60405180910390a35050565b5f60075f8473ffffffffffffffffffffffffffffffffffffffff1673ffffffffffffffffffffffffffffffffffffffff1681526020019081526020015f205f8373ffffffffffffffffffffffffffffffffffffffff1673ffffffffffffffffffffffffffffffffffffffff1681526020019081526020015f2054905092915050565b5f8054906101000a900473ffffffffffffffffffffffffffffffffffffffff1673ffffffffffffffffffffffffffffffffffffffff163373ffffffffffffffffffffffffffffffffffffffff16146112ea576040517f08c379a00000000000000000000000000000000000000000000000000000000081526004016112e190611e4c565b60405180910390fd5b6112f5838383610cf5565b611334576040517f08c379a000000000000000000000000000000000000000000000000000000000815260040161132b9061250f565b60405180910390fd5b8273ffffffffffffffffffffffffffffffffffffffff166342842e0e3084846040518463ffffffff1660e01b815260040161137193929190612304565b5f604051808303815f87803b158015611388575f80fd5b505af115801561139a573d5f803e3d5ffd5b505050505f6113aa848484611612565b905060085f8473ffffffffffffffffffffffffffffffffffffffff1673ffffffffffffffffffffffffffffffffffffffff1681526020019081526020015f205f8573ffffffffffffffffffffffffffffffffffffffff1673ffffffffffffffffffffffffffffffffffffffff1681526020019081526020015f20600160085f8673ffffffffffffffffffffffffffffffffffffffff1673ffffffffffffffffffffffffffffffffffffffff1681526020019081526020015f205f8773ffffffffffffffffffffffffffffffffffffffff1673ffffffffffffffffffffffffffffffffffffffff1681526020019081526020015f20805490506114ac91906122d1565b815481106114bd576114bc611e6a565b5b905f5260205f20015460085f8573ffffffffffffffffffffffffffffffffffffffff1673ffffffffffffffffffffffffffffffffffffffff1681526020019081526020015f205f8673ffffffffffffffffffffffffffffffffffffffff1673ffffffffffffffffffffffffffffffffffffffff1681526020019081526020015f2082815481106115505761154f611e6a565b5b905f5260205f20018190555060085f8473ffffffffffffffffffffffffffffffffffffffff1673ffffffffffffffffffffffffffffffffffffffff1681526020019081526020015f205f8573ffffffffffffffffffffffffffffffffffffffff1673ffffffffffffffffffffffffffffffffffffffff1681526020019081526020015f208054806115e4576115e361252d565b5b600190038181905f5260205f20015f9055905550505050565b6006602052805f5260405f205f915090505481565b5f61161e848484610cf5565b61165d576040517f08c379a00000000000000000000000000000000000000000000000000000000081526004016116549061250f565b60405180910390fd5b5f60085f8573ffffffffffffffffffffffffffffffffffffffff1673ffffffffffffffffffffffffffffffffffffffff1681526020019081526020015f205f8673ffffffffffffffffffffffffffffffffffffffff1673ffffffffffffffffffffffffffffffffffffffff1681526020019081526020015f2080548060200260200160405190810160405280929190818152602001828054801561171e57602002820191905f5260205f20905b81548152602001906001019080831161170a575b505050505090505f5b81518110156117685781818151811061174357611742611e6a565b5b6020026020010151840361175b57809250505061176e565b8080600101915050611727565b505f9150505b9392505050565b5f819050919050565b7f4e487b71000000000000000000000000000000000000000000000000000000005f52601160045260245ffd5b5f6117b582611775565b91506117c083611775565b92508282019050808211156117d8576117d761177e565b5b92915050565b6117e781611775565b82525050565b5f819050919050565b5f819050919050565b5f61181961181461180f846117ed565b6117f6565b611775565b9050919050565b611829816117ff565b82525050565b5f82825260208201905092915050565b7f45544800000000000000000000000000000000000000000000000000000000005f82015250565b5f61187360038361182f565b915061187e8261183f565b602082019050919050565b5f60808201905061189c5f8301866117de565b6118a96020830185611820565b81810360408301526118ba81611867565b90506118c960608301846117de565b949350505050565b5f80fd5b5f80fd5b5f80fd5b5f80fd5b5f80fd5b5f8083601f8401126118fa576118f96118d9565b5b8235905067ffffffffffffffff811115611917576119166118dd565b5b602083019150836020820283011115611933576119326118e1565b5b9250929050565b5f80fd5b5f604082840312156119535761195261193a565b5b81905092915050565b5f805f60608486031215611973576119726118d1565b5b5f84013567ffffffffffffffff8111156119905761198f6118d5565b5b61199c868287016118e5565b935093505060206119af8682870161193e565b9150509250925092565b5f73ffffffffffffffffffffffffffffffffffffffff82169050919050565b5f6119e2826119b9565b9050919050565b6119f2816119d8565b81146119fc575f80fd5b50565b5f81359050611a0d816119e9565b92915050565b5f60208284031215611a2857611a276118d1565b5b5f611a35848285016119ff565b91505092915050565b5f819050919050565b611a5081611a3e565b82525050565b5f6fffffffffffffffffffffffffffffffff82169050919050565b611a7a81611a56565b82525050565b5f604082019050611a935f830185611a47565b611aa06020830184611a71565b9392505050565b5f8115159050919050565b611abb81611aa7565b82525050565b5f604082019050611ad45f830185611ab2565b611ae160208301846117de565b9392505050565b5f611af2826119b9565b9050919050565b611b0281611ae8565b8114611b0c575f80fd5b50565b5f81359050611b1d81611af9565b92915050565b611b2c81611775565b8114611b36575f80fd5b50565b5f81359050611b4781611b23565b92915050565b5f8060408385031215611b6357611b626118d1565b5b5f611b7085828601611b0f565b9250506020611b8185828601611b39565b9150509250929050565b611b9481611aa7565b8114611b9e575f80fd5b50565b5f81359050611baf81611b8b565b92915050565b5f805f60808486031215611bcc57611bcb6118d1565b5b5f611bd9868287016119ff565b9350506020611bea86828701611ba1565b9250506040611bfb8682870161193e565b9150509250925092565b5f602082019050611c185f8301846117de565b92915050565b5f805f60608486031215611c3557611c346118d1565b5b5f611c42868287016119ff565b9350506020611c53868287016119ff565b9250506040611c6486828701611b39565b9150509250925092565b5f8060408385031215611c8457611c836118d1565b5b5f611c91858286016119ff565b9250506020611ca2858286016119ff565b9150509250929050565b5f81519050919050565b5f82825260208201905092915050565b5f819050602082019050919050565b611cde81611775565b82525050565b5f611cef8383611cd5565b60208301905092915050565b5f602082019050919050565b5f611d1182611cac565b611d1b8185611cb6565b9350611d2683611cc6565b805f5b83811015611d56578151611d3d8882611ce4565b9750611d4883611cfb565b925050600181019050611d29565b5085935050505092915050565b5f6020820190508181035f830152611d7b8184611d07565b905092915050565b5f602082019050611d965f830184611ab2565b92915050565b611da5816119d8565b82525050565b5f602082019050611dbe5f830184611d9c565b92915050565b5f8060408385031215611dda57611dd96118d1565b5b5f611de7858286016119ff565b9250506020611df885828601611b39565b9150509250929050565b7f4e6f7420746865206f776e6572000000000000000000000000000000000000005f82015250565b5f611e36600d8361182f565b9150611e4182611e02565b602082019050919050565b5f6020820190508181035f830152611e6381611e2a565b9050919050565b7f4e487b71000000000000000000000000000000000000000000000000000000005f52603260045260245ffd5b611ea081611a3e565b8114611eaa575f80fd5b50565b5f8135611eb981611e97565b80915050919050565b5f815f1b9050919050565b5f7fffffffffffffffffffffffffffffffffffffffffffffffffffffffffffffffff611ef884611ec2565b9350801983169250808416831791505092915050565b5f611f1882611a3e565b9050919050565b5f815f1c9050919050565b5f611f3482611f1f565b9050919050565b611f4482611f0e565b611f57611f5082611f2a565b8354611ecd565b8255505050565b611f6781611a56565b8114611f71575f80fd5b50565b5f8135611f8081611f5e565b80915050919050565b5f6fffffffffffffffffffffffffffffffff611fa484611ec2565b9350801983169250808416831791505092915050565b5f611fd4611fcf611fca84611a56565b6117f6565b611a56565b9050919050565b5f819050919050565b611fed82611fba565b612000611ff982611fdb565b8354611f89565b8255505050565b5f81015f83018061201781611ead565b90506120238184611f3b565b50505060018101602083018061203881611f74565b90506120448184611fe4565b5050505050565b6120558282612007565b5050565b5f81905092915050565b5f819050919050565b612075816119d8565b82525050565b5f612086838361206c565b60208301905092915050565b5f6120a060208401846119ff565b905092915050565b5f602082019050919050565b5f6120bf8385612059565b93506120ca82612063565b805f5b85811015612102576120df8284612092565b6120e9888261207b565b97506120f4836120a8565b9250506001810190506120cd565b5085925050509392505050565b5f61211b8284866120b4565b91508190509392505050565b5f8135905061213581611f5e565b92915050565b5f602082840312156121505761214f6118d1565b5b5f61215d84828501612127565b91505092915050565b5f6060820190506121795f830186611a47565b6121866020830185611a71565b61219360408301846117de565b949350505050565b7f496e73756666696369656e742062616c616e63650000000000000000000000005f82015250565b5f6121cf60148361182f565b91506121da8261219b565b602082019050919050565b5f6020820190508181035f8301526121fc816121c3565b9050919050565b5f6040820190506122165f830185611d9c565b61222360208301846117de565b9392505050565b5f8151905061223881611b8b565b92915050565b5f60208284031215612253576122526118d1565b5b5f6122608482850161222a565b91505092915050565b7f5472616e73666572206661696c656400000000000000000000000000000000005f82015250565b5f61229d600f8361182f565b91506122a882612269565b602082019050919050565b5f6020820190508181035f8301526122ca81612291565b9050919050565b5f6122db82611775565b91506122e683611775565b92508282039050818111156122fe576122fd61177e565b5b92915050565b5f6060820190506123175f830186611d9c565b6123246020830185611d9c565b61233160408301846117de565b949350505050565b7f4552432d323000000000000000000000000000000000000000000000000000005f82015250565b5f61236d60068361182f565b915061237882612339565b602082019050919050565b5f6080820190506123965f8301866117de565b6123a36020830185611820565b81810360408301526123b481612361565b90506123c360608301846117de565b949350505050565b7f4e465420616c72656164792073746f72656400000000000000000000000000005f82015250565b5f6123ff60128361182f565b915061240a826123cb565b602082019050919050565b5f6020820190508181035f83015261242c816123f3565b9050919050565b7f4552432d373231000000000000000000000000000000000000000000000000005f82015250565b5f61246760078361182f565b915061247282612433565b602082019050919050565b5f6080820190506124905f830186611820565b61249d60208301856117de565b81810360408301526124ae8161245b565b90506124bd60608301846117de565b949350505050565b7f4e4654206e6f742073746f7265640000000000000000000000000000000000005f82015250565b5f6124f9600e8361182f565b9150612504826124c5565b602082019050919050565b5f6020820190508181035f830152612526816124ed565b9050919050565b7f4e487b71000000000000000000000000000000000000000000000000000000005f52603160045260245ffdfea264697066735822122034169e17b8cdcf8bf199c2fcf97d8d87a61cd847b22b86098f23b575584ee9a564736f6c63430008160033",
					"opcodes": "PUSH1 0x80 PUSH1 0x40 MSTORE CALLVALUE DUP1 ISZERO PUSH2 0xF JUMPI PUSH0 DUP1 REVERT JUMPDEST POP CALLER PUSH0 DUP1 PUSH2 0x100 EXP DUP2 SLOAD DUP2 PUSH20 0xFFFFFFFFFFFFFFFFFFFFFFFFFFFFFFFFFFFFFFFF MUL NOT AND SWAP1 DUP4 PUSH20 0xFFFFFFFFFFFFFFFFFFFFFFFFFFFFFFFFFFFFFFFF AND MUL OR SWAP1 SSTORE POP PUSH2 0x2590 DUP1 PUSH2 0x5C PUSH0 CODECOPY PUSH0 RETURN INVALID PUSH1 0x80 PUSH1 0x40 MSTORE PUSH1 0x4 CALLDATASIZE LT PUSH2 0xF6 JUMPI PUSH0 CALLDATALOAD PUSH1 0xE0 SHR DUP1 PUSH4 0x6D1DBC48 GT PUSH2 0x89 JUMPI DUP1 PUSH4 0xC003A3A4 GT PUSH2 0x58 JUMPI DUP1 PUSH4 0xC003A3A4 EQ PUSH2 0x434 JUMPI DUP1 PUSH4 0xC3A8962C EQ PUSH2 0x45C JUMPI DUP1 PUSH4 0xD8265846 EQ PUSH2 0x498 JUMPI DUP1 PUSH4 0xD8F3790F EQ PUSH2 0x4C0 JUMPI PUSH2 0x1D3 JUMP JUMPDEST DUP1 PUSH4 0x6D1DBC48 EQ PUSH2 0x36A JUMPI DUP1 PUSH4 0x81473C64 EQ PUSH2 0x3A6 JUMPI DUP1 PUSH4 0x8DA5CB5B EQ PUSH2 0x3E2 JUMPI DUP1 PUSH4 0xB108D36D EQ PUSH2 0x40C JUMPI PUSH2 0x1D3 JUMP JUMPDEST DUP1 PUSH4 0x4782F779 GT PUSH2 0xC5 JUMPI DUP1 PUSH4 0x4782F779 EQ PUSH2 0x2B6 JUMPI DUP1 PUSH4 0x483F96BE EQ PUSH2 0x2DE JUMPI DUP1 PUSH4 0x4D2301CC EQ PUSH2 0x306 JUMPI DUP1 PUSH4 0x6CD533D8 EQ PUSH2 0x342 JUMPI PUSH2 0x1D3 JUMP JUMPDEST DUP1 PUSH4 0x1A1D4011 EQ PUSH2 0x1D7 JUMPI DUP1 PUSH4 0x2DCCF71C EQ PUSH2 0x1FF JUMPI DUP1 PUSH4 0x32A93EFB EQ PUSH2 0x23C JUMPI DUP1 PUSH4 0x36393627 EQ PUSH2 0x279 JUMPI PUSH2 0x1D3 JUMP JUMPDEST CALLDATASIZE PUSH2 0x1D3 JUMPI CALLVALUE PUSH1 0x6 PUSH0 CALLER PUSH20 0xFFFFFFFFFFFFFFFFFFFFFFFFFFFFFFFFFFFFFFFF AND PUSH20 0xFFFFFFFFFFFFFFFFFFFFFFFFFFFFFFFFFFFFFFFF AND DUP2 MSTORE PUSH1 0x20 ADD SWAP1 DUP2 MSTORE PUSH1 0x20 ADD PUSH0 KECCAK256 PUSH0 DUP3 DUP3 SLOAD PUSH2 0x147 SWAP2 SWAP1 PUSH2 0x17AB JUMP JUMPDEST SWAP3 POP POP DUP2 SWAP1 SSTORE POP PUSH1 0x1 DUP1 PUSH0 DUP3 DUP3 SLOAD PUSH2 0x15F SWAP2 SWAP1 PUSH2 0x17AB JUMP JUMPDEST SWAP3 POP POP DUP2 SWAP1 SSTORE POP PUSH0 PUSH20 0xFFFFFFFFFFFFFFFFFFFFFFFFFFFFFFFFFFFFFFFF AND CALLER PUSH20 0xFFFFFFFFFFFFFFFFFFFFFFFFFFFFFFFFFFFFFFFF AND PUSH32 0xD470274636139438AA953EB5783FDE481A87A2312194BD215B7D10558D19B43B CALLVALUE PUSH0 PUSH1 0x1 SLOAD PUSH1 0x40 MLOAD PUSH2 0x1C9 SWAP4 SWAP3 SWAP2 SWAP1 PUSH2 0x1889 JUMP JUMPDEST PUSH1 0x40 MLOAD DUP1 SWAP2 SUB SWAP1 LOG3 STOP JUMPDEST PUSH0 DUP1 REVERT JUMPDEST CALLVALUE DUP1 ISZERO PUSH2 0x1E2 JUMPI PUSH0 DUP1 REVERT JUMPDEST POP PUSH2 0x1FD PUSH1 0x4 DUP1 CALLDATASIZE SUB DUP2 ADD SWAP1 PUSH2 0x1F8 SWAP2 SWAP1 PUSH2 0x195C JUMP JUMPDEST PUSH2 0x4FC JUMP JUMPDEST STOP JUMPDEST CALLVALUE DUP1 ISZERO PUSH2 0x20A JUMPI PUSH0 DUP1 REVERT JUMPDEST POP PUSH2 0x225 PUSH1 0x4 DUP1 CALLDATASIZE SUB DUP2 ADD SWAP1 PUSH2 0x220 SWAP2 SWAP1 PUSH2 0x1A13 JUMP JUMPDEST PUSH2 0x6A0 JUMP JUMPDEST PUSH1 0x40 MLOAD PUSH2 0x233 SWAP3 SWAP2 SWAP1 PUSH2 0x1A80 JUMP JUMPDEST PUSH1 0x40 MLOAD DUP1 SWAP2 SUB SWAP1 RETURN JUMPDEST CALLVALUE DUP1 ISZERO PUSH2 0x247 JUMPI PUSH0 DUP1 REVERT JUMPDEST POP PUSH2 0x262 PUSH1 0x4 DUP1 CALLDATASIZE SUB DUP2 ADD SWAP1 PUSH2 0x25D SWAP2 SWAP1 PUSH2 0x1A13 JUMP JUMPDEST PUSH2 0x747 JUMP JUMPDEST PUSH1 0x40 MLOAD PUSH2 0x270 SWAP3 SWAP2 SWAP1 PUSH2 0x1AC1 JUMP JUMPDEST PUSH1 0x40 MLOAD DUP1 SWAP2 SUB SWAP1 RETURN JUMPDEST CALLVALUE DUP1 ISZERO PUSH2 0x284 JUMPI PUSH0 DUP1 REVERT JUMPDEST POP PUSH2 0x29F PUSH1 0x4 DUP1 CALLDATASIZE SUB DUP2 ADD SWAP1 PUSH2 0x29A SWAP2 SWAP1 PUSH2 0x1A13 JUMP JUMPDEST PUSH2 0x774 JUMP JUMPDEST PUSH1 0x40 MLOAD PUSH2 0x2AD SWAP3 SWAP2 SWAP1 PUSH2 0x1A80 JUMP JUMPDEST PUSH1 0x40 MLOAD DUP1 SWAP2 SUB SWAP1 RETURN JUMPDEST CALLVALUE DUP1 ISZERO PUSH2 0x2C1 JUMPI PUSH0 DUP1 REVERT JUMPDEST POP PUSH2 0x2DC PUSH1 0x4 DUP1 CALLDATASIZE SUB DUP2 ADD SWAP1 PUSH2 0x2D7 SWAP2 SWAP1 PUSH2 0x1B4D JUMP JUMPDEST PUSH2 0x7AF JUMP JUMPDEST STOP JUMPDEST CALLVALUE DUP1 ISZERO PUSH2 0x2E9 JUMPI PUSH0 DUP1 REVERT JUMPDEST POP PUSH2 0x304 PUSH1 0x4 DUP1 CALLDATASIZE SUB DUP2 ADD SWAP1 PUSH2 0x2FF SWAP2 SWAP1 PUSH2 0x1BB5 JUMP JUMPDEST PUSH2 0x947 JUMP JUMPDEST STOP JUMPDEST CALLVALUE DUP1 ISZERO PUSH2 0x311 JUMPI PUSH0 DUP1 REVERT JUMPDEST POP PUSH2 0x32C PUSH1 0x4 DUP1 CALLDATASIZE SUB DUP2 ADD SWAP1 PUSH2 0x327 SWAP2 SWAP1 PUSH2 0x1A13 JUMP JUMPDEST PUSH2 0x94C JUMP JUMPDEST PUSH1 0x40 MLOAD PUSH2 0x339 SWAP2 SWAP1 PUSH2 0x1C05 JUMP JUMPDEST PUSH1 0x40 MLOAD DUP1 SWAP2 SUB SWAP1 RETURN JUMPDEST CALLVALUE DUP1 ISZERO PUSH2 0x34D JUMPI PUSH0 DUP1 REVERT JUMPDEST POP PUSH2 0x368 PUSH1 0x4 DUP1 CALLDATASIZE SUB DUP2 ADD SWAP1 PUSH2 0x363 SWAP2 SWAP1 PUSH2 0x1C1E JUMP JUMPDEST PUSH2 0x992 JUMP JUMPDEST STOP JUMPDEST CALLVALUE DUP1 ISZERO PUSH2 0x375 JUMPI PUSH0 DUP1 REVERT JUMPDEST POP PUSH2 0x390 PUSH1 0x4 DUP1 CALLDATASIZE SUB DUP2 ADD SWAP1 PUSH2 0x38B SWAP2 SWAP1 PUSH2 0x1C6E JUMP JUMPDEST PUSH2 0xC26 JUMP JUMPDEST PUSH1 0x40 MLOAD PUSH2 0x39D SWAP2 SWAP1 PUSH2 0x1D63 JUMP JUMPDEST PUSH1 0x40 MLOAD DUP1 SWAP2 SUB SWAP1 RETURN JUMPDEST CALLVALUE DUP1 ISZERO PUSH2 0x3B1 JUMPI PUSH0 DUP1 REVERT JUMPDEST POP PUSH2 0x3CC PUSH1 0x4 DUP1 CALLDATASIZE SUB DUP2 ADD SWAP1 PUSH2 0x3C7 SWAP2 SWAP1 PUSH2 0x1C1E JUMP JUMPDEST PUSH2 0xCF5 JUMP JUMPDEST PUSH1 0x40 MLOAD PUSH2 0x3D9 SWAP2 SWAP1 PUSH2 0x1D83 JUMP JUMPDEST PUSH1 0x40 MLOAD DUP1 SWAP2 SUB SWAP1 RETURN JUMPDEST CALLVALUE DUP1 ISZERO PUSH2 0x3ED JUMPI PUSH0 DUP1 REVERT JUMPDEST POP PUSH2 0x3F6 PUSH2 0xE0F JUMP JUMPDEST PUSH1 0x40 MLOAD PUSH2 0x403 SWAP2 SWAP1 PUSH2 0x1DAB JUMP JUMPDEST PUSH1 0x40 MLOAD DUP1 SWAP2 SUB SWAP1 RETURN JUMPDEST CALLVALUE DUP1 ISZERO PUSH2 0x417 JUMPI PUSH0 DUP1 REVERT JUMPDEST POP PUSH2 0x432 PUSH1 0x4 DUP1 CALLDATASIZE SUB DUP2 ADD SWAP1 PUSH2 0x42D SWAP2 SWAP1 PUSH2 0x1DC4 JUMP JUMPDEST PUSH2 0xE32 JUMP JUMPDEST STOP JUMPDEST CALLVALUE DUP1 ISZERO PUSH2 0x43F JUMPI PUSH0 DUP1 REVERT JUMPDEST POP PUSH2 0x45A PUSH1 0x4 DUP1 CALLDATASIZE SUB DUP2 ADD SWAP1 PUSH2 0x455 SWAP2 SWAP1 PUSH2 0x1DC4 JUMP JUMPDEST PUSH2 0x1003 JUMP JUMPDEST STOP JUMPDEST CALLVALUE DUP1 ISZERO PUSH2 0x467 JUMPI PUSH0 DUP1 REVERT JUMPDEST POP PUSH2 0x482 PUSH1 0x4 DUP1 CALLDATASIZE SUB DUP2 ADD SWAP1 PUSH2 0x47D SWAP2 SWAP1 PUSH2 0x1C6E JUMP JUMPDEST PUSH2 0x11DB JUMP JUMPDEST PUSH1 0x40 MLOAD PUSH2 0x48F SWAP2 SWAP1 PUSH2 0x1C05 JUMP JUMPDEST PUSH1 0x40 MLOAD DUP1 SWAP2 SUB SWAP1 RETURN JUMPDEST CALLVALUE DUP1 ISZERO PUSH2 0x4A3 JUMPI PUSH0 DUP1 REVERT JUMPDEST POP PUSH2 0x4BE PUSH1 0x4 DUP1 CALLDATASIZE SUB DUP2 ADD SWAP1 PUSH2 0x4B9 SWAP2 SWAP1 PUSH2 0x1C1E JUMP JUMPDEST PUSH2 0x125D JUMP JUMPDEST STOP JUMPDEST CALLVALUE DUP1 ISZERO PUSH2 0x4CB JUMPI PUSH0 DUP1 REVERT JUMPDEST POP PUSH2 0x4E6 PUSH1 0x4 DUP1 CALLDATASIZE SUB DUP2 ADD SWAP1 PUSH2 0x4E1 SWAP2 SWAP1 PUSH2 0x1A13 JUMP JUMPDEST PUSH2 0x15FD JUMP JUMPDEST PUSH1 0x40 MLOAD PUSH2 0x4F3 SWAP2 SWAP1 PUSH2 0x1C05 JUMP JUMPDEST PUSH1 0x40 MLOAD DUP1 SWAP2 SUB SWAP1 RETURN JUMPDEST PUSH0 DUP1 SLOAD SWAP1 PUSH2 0x100 EXP SWAP1 DIV PUSH20 0xFFFFFFFFFFFFFFFFFFFFFFFFFFFFFFFFFFFFFFFF AND PUSH20 0xFFFFFFFFFFFFFFFFFFFFFFFFFFFFFFFFFFFFFFFF AND CALLER PUSH20 0xFFFFFFFFFFFFFFFFFFFFFFFFFFFFFFFFFFFFFFFF AND EQ PUSH2 0x589 JUMPI PUSH1 0x40 MLOAD PUSH32 0x8C379A000000000000000000000000000000000000000000000000000000000 DUP2 MSTORE PUSH1 0x4 ADD PUSH2 0x580 SWAP1 PUSH2 0x1E4C JUMP JUMPDEST PUSH1 0x40 MLOAD DUP1 SWAP2 SUB SWAP1 REVERT JUMPDEST PUSH0 JUMPDEST DUP4 DUP4 SWAP1 POP DUP2 LT ISZERO PUSH2 0x617 JUMPI DUP2 PUSH1 0x4 PUSH0 DUP7 DUP7 DUP6 DUP2 DUP2 LT PUSH2 0x5AD JUMPI PUSH2 0x5AC PUSH2 0x1E6A JUMP JUMPDEST JUMPDEST SWAP1 POP PUSH1 0x20 MUL ADD PUSH1 0x20 DUP2 ADD SWAP1 PUSH2 0x5C2 SWAP2 SWAP1 PUSH2 0x1A13 JUMP JUMPDEST PUSH20 0xFFFFFFFFFFFFFFFFFFFFFFFFFFFFFFFFFFFFFFFF AND PUSH20 0xFFFFFFFFFFFFFFFFFFFFFFFFFFFFFFFFFFFFFFFF AND DUP2 MSTORE PUSH1 0x20 ADD SWAP1 DUP2 MSTORE PUSH1 0x20 ADD PUSH0 KECCAK256 DUP2 DUP2 PUSH2 0x607 SWAP2 SWAP1 PUSH2 0x204B JUMP JUMPDEST SWAP1 POP POP DUP1 DUP1 PUSH1 0x1 ADD SWAP2 POP POP PUSH2 0x58B JUMP JUMPDEST POP PUSH1 0x1 PUSH1 0x2 PUSH0 DUP3 DUP3 SLOAD PUSH2 0x62A SWAP2 SWAP1 PUSH2 0x17AB JUMP JUMPDEST SWAP3 POP POP DUP2 SWAP1 SSTORE POP DUP3 DUP3 PUSH1 0x40 MLOAD PUSH2 0x641 SWAP3 SWAP2 SWAP1 PUSH2 0x210F JUMP JUMPDEST PUSH1 0x40 MLOAD DUP1 SWAP2 SUB SWAP1 KECCAK256 PUSH32 0x5C7813536A7E7B7F95EAF9FCFA83DA5CEEC6C6237454AD0BCC625FF3794FF619 DUP3 PUSH0 ADD CALLDATALOAD DUP4 PUSH1 0x20 ADD PUSH1 0x20 DUP2 ADD SWAP1 PUSH2 0x681 SWAP2 SWAP1 PUSH2 0x213B JUMP JUMPDEST PUSH1 0x2 SLOAD PUSH1 0x40 MLOAD PUSH2 0x693 SWAP4 SWAP3 SWAP2 SWAP1 PUSH2 0x2166 JUMP JUMPDEST PUSH1 0x40 MLOAD DUP1 SWAP2 SUB SWAP1 LOG2 POP POP POP JUMP JUMPDEST PUSH0 DUP1 PUSH1 0x4 PUSH0 DUP5 PUSH20 0xFFFFFFFFFFFFFFFFFFFFFFFFFFFFFFFFFFFFFFFF AND PUSH20 0xFFFFFFFFFFFFFFFFFFFFFFFFFFFFFFFFFFFFFFFF AND DUP2 MSTORE PUSH1 0x20 ADD SWAP1 DUP2 MSTORE PUSH1 0x20 ADD PUSH0 KECCAK256 PUSH0 ADD SLOAD PUSH1 0x4 PUSH0 DUP6 PUSH20 0xFFFFFFFFFFFFFFFFFFFFFFFFFFFFFFFFFFFFFFFF AND PUSH20 0xFFFFFFFFFFFFFFFFFFFFFFFFFFFFFFFFFFFFFFFF AND DUP2 MSTORE PUSH1 0x20 ADD SWAP1 DUP2 MSTORE PUSH1 0x20 ADD PUSH0 KECCAK256 PUSH1 0x1 ADD PUSH0 SWAP1 SLOAD SWAP1 PUSH2 0x100 EXP SWAP1 DIV PUSH16 0xFFFFFFFFFFFFFFFFFFFFFFFFFFFFFFFF AND SWAP2 POP SWAP2 POP SWAP2 POP SWAP2 JUMP JUMPDEST PUSH1 0x5 PUSH1 0x20 MSTORE DUP1 PUSH0 MSTORE PUSH1 0x40 PUSH0 KECCAK256 PUSH0 SWAP2 POP SWAP1 POP DUP1 PUSH1 0x3 ADD PUSH0 SWAP1 SLOAD SWAP1 PUSH2 0x100 EXP SWAP1 DIV PUSH1 0xFF AND SWAP1 DUP1 PUSH1 0x4 ADD SLOAD SWAP1 POP DUP3 JUMP JUMPDEST PUSH1 0x4 PUSH1 0x20 MSTORE DUP1 PUSH0 MSTORE PUSH1 0x40 PUSH0 KECCAK256 PUSH0 SWAP2 POP SWAP1 POP DUP1 PUSH0 ADD SLOAD SWAP1 DUP1 PUSH1 0x1 ADD PUSH0 SWAP1 SLOAD SWAP1 PUSH2 0x100 EXP SWAP1 DIV PUSH16 0xFFFFFFFFFFFFFFFFFFFFFFFFFFFFFFFF AND SWAP1 POP DUP3 JUMP JUMPDEST PUSH0 DUP1 SLOAD SWAP1 PUSH2 0x100 EXP SWAP1 DIV PUSH20 0xFFFFFFFFFFFFFFFFFFFFFFFFFFFFFFFFFFFFFFFF AND PUSH20 0xFFFFFFFFFFFFFFFFFFFFFFFFFFFFFFFFFFFFFFFF AND CALLER PUSH20 0xFFFFFFFFFFFFFFFFFFFFFFFFFFFFFFFFFFFFFFFF AND EQ PUSH2 0x83C JUMPI PUSH1 0x40 MLOAD PUSH32 0x8C379A000000000000000000000000000000000000000000000000000000000 DUP2 MSTORE PUSH1 0x4 ADD PUSH2 0x833 SWAP1 PUSH2 0x1E4C JUMP JUMPDEST PUSH1 0x40 MLOAD DUP1 SWAP2 SUB SWAP1 REVERT JUMPDEST SELFBALANCE DUP2 GT ISZERO PUSH2 0x87F JUMPI PUSH1 0x40 MLOAD PUSH32 0x8C379A000000000000000000000000000000000000000000000000000000000 DUP2 MSTORE PUSH1 0x4 ADD PUSH2 0x876 SWAP1 PUSH2 0x21E5 JUMP JUMPDEST PUSH1 0x40 MLOAD DUP1 SWAP2 SUB SWAP1 REVERT JUMPDEST PUSH1 0x6 PUSH0 DUP4 PUSH20 0xFFFFFFFFFFFFFFFFFFFFFFFFFFFFFFFFFFFFFFFF AND PUSH20 0xFFFFFFFFFFFFFFFFFFFFFFFFFFFFFFFFFFFFFFFF AND DUP2 MSTORE PUSH1 0x20 ADD SWAP1 DUP2 MSTORE PUSH1 0x20 ADD PUSH0 KECCAK256 SLOAD DUP2 GT ISZERO PUSH2 0x8FF JUMPI PUSH1 0x40 MLOAD PUSH32 0x8C379A000000000000000000000000000000000000000000000000000000000 DUP2 MSTORE PUSH1 0x4 ADD PUSH2 0x8F6 SWAP1 PUSH2 0x21E5 JUMP JUMPDEST PUSH1 0x40 MLOAD DUP1 SWAP2 SUB SWAP1 REVERT JUMPDEST DUP2 PUSH20 0xFFFFFFFFFFFFFFFFFFFFFFFFFFFFFFFFFFFFFFFF AND PUSH2 0x8FC DUP3 SWAP1 DUP2 ISZERO MUL SWAP1 PUSH1 0x40 MLOAD PUSH0 PUSH1 0x40 MLOAD DUP1 DUP4 SUB DUP2 DUP6 DUP9 DUP9 CALL SWAP4 POP POP POP POP ISZERO DUP1 ISZERO PUSH2 0x942 JUMPI RETURNDATASIZE PUSH0 DUP1 RETURNDATACOPY RETURNDATASIZE PUSH0 REVERT JUMPDEST POP POP POP JUMP JUMPDEST POP POP POP JUMP JUMPDEST PUSH0 PUSH1 0x6 PUSH0 DUP4 PUSH20 0xFFFFFFFFFFFFFFFFFFFFFFFFFFFFFFFFFFFFFFFF AND PUSH20 0xFFFFFFFFFFFFFFFFFFFFFFFFFFFFFFFFFFFFFFFF AND DUP2 MSTORE PUSH1 0x20 ADD SWAP1 DUP2 MSTORE PUSH1 0x20 ADD PUSH0 KECCAK256 SLOAD SWAP1 POP SWAP2 SWAP1 POP JUMP JUMPDEST PUSH0 DUP1 SLOAD SWAP1 PUSH2 0x100 EXP SWAP1 DIV PUSH20 0xFFFFFFFFFFFFFFFFFFFFFFFFFFFFFFFFFFFFFFFF AND PUSH20 0xFFFFFFFFFFFFFFFFFFFFFFFFFFFFFFFFFFFFFFFF AND CALLER PUSH20 0xFFFFFFFFFFFFFFFFFFFFFFFFFFFFFFFFFFFFFFFF AND EQ PUSH2 0xA1F JUMPI PUSH1 0x40 MLOAD PUSH32 0x8C379A000000000000000000000000000000000000000000000000000000000 DUP2 MSTORE PUSH1 0x4 ADD PUSH2 0xA16 SWAP1 PUSH2 0x1E4C JUMP JUMPDEST PUSH1 0x40 MLOAD DUP1 SWAP2 SUB SWAP1 REVERT JUMPDEST DUP1 PUSH1 0x7 PUSH0 DUP5 PUSH20 0xFFFFFFFFFFFFFFFFFFFFFFFFFFFFFFFFFFFFFFFF AND PUSH20 0xFFFFFFFFFFFFFFFFFFFFFFFFFFFFFFFFFFFFFFFF AND DUP2 MSTORE PUSH1 0x20 ADD SWAP1 DUP2 MSTORE PUSH1 0x20 ADD PUSH0 KECCAK256 PUSH0 DUP6 PUSH20 0xFFFFFFFFFFFFFFFFFFFFFFFFFFFFFFFFFFFFFFFF AND PUSH20 0xFFFFFFFFFFFFFFFFFFFFFFFFFFFFFFFFFFFFFFFF AND DUP2 MSTORE PUSH1 0x20 ADD SWAP1 DUP2 MSTORE PUSH1 0x20 ADD PUSH0 KECCAK256 SLOAD GT PUSH2 0xAD9 JUMPI PUSH1 0x40 MLOAD PUSH32 0x8C379A000000000000000000000000000000000000000000000000000000000 DUP2 MSTORE PUSH1 0x4 ADD PUSH2 0xAD0 SWAP1 PUSH2 0x21E5 JUMP JUMPDEST PUSH1 0x40 MLOAD DUP1 SWAP2 SUB SWAP1 REVERT JUMPDEST DUP3 PUSH20 0xFFFFFFFFFFFFFFFFFFFFFFFFFFFFFFFFFFFFFFFF AND PUSH4 0xA9059CBB DUP4 DUP4 PUSH1 0x40 MLOAD DUP4 PUSH4 0xFFFFFFFF AND PUSH1 0xE0 SHL DUP2 MSTORE PUSH1 0x4 ADD PUSH2 0xB14 SWAP3 SWAP2 SWAP1 PUSH2 0x2203 JUMP JUMPDEST PUSH1 0x20 PUSH1 0x40 MLOAD DUP1 DUP4 SUB DUP2 PUSH0 DUP8 GAS CALL ISZERO DUP1 ISZERO PUSH2 0xB30 JUMPI RETURNDATASIZE PUSH0 DUP1 RETURNDATACOPY RETURNDATASIZE PUSH0 REVERT JUMPDEST POP POP POP POP PUSH1 0x40 MLOAD RETURNDATASIZE PUSH1 0x1F NOT PUSH1 0x1F DUP3 ADD AND DUP3 ADD DUP1 PUSH1 0x40 MSTORE POP DUP2 ADD SWAP1 PUSH2 0xB54 SWAP2 SWAP1 PUSH2 0x223E JUMP JUMPDEST PUSH2 0xB93 JUMPI PUSH1 0x40 MLOAD PUSH32 0x8C379A000000000000000000000000000000000000000000000000000000000 DUP2 MSTORE PUSH1 0x4 ADD PUSH2 0xB8A SWAP1 PUSH2 0x22B3 JUMP JUMPDEST PUSH1 0x40 MLOAD DUP1 SWAP2 SUB SWAP1 REVERT JUMPDEST DUP1 PUSH1 0x7 PUSH0 DUP5 PUSH20 0xFFFFFFFFFFFFFFFFFFFFFFFFFFFFFFFFFFFFFFFF AND PUSH20 0xFFFFFFFFFFFFFFFFFFFFFFFFFFFFFFFFFFFFFFFF AND DUP2 MSTORE PUSH1 0x20 ADD SWAP1 DUP2 MSTORE PUSH1 0x20 ADD PUSH0 KECCAK256 PUSH0 DUP6 PUSH20 0xFFFFFFFFFFFFFFFFFFFFFFFFFFFFFFFFFFFFFFFF AND PUSH20 0xFFFFFFFFFFFFFFFFFFFFFFFFFFFFFFFFFFFFFFFF AND DUP2 MSTORE PUSH1 0x20 ADD SWAP1 DUP2 MSTORE PUSH1 0x20 ADD PUSH0 KECCAK256 PUSH0 DUP3 DUP3 SLOAD PUSH2 0xC1A SWAP2 SWAP1 PUSH2 0x22D1 JUMP JUMPDEST SWAP3 POP POP DUP2 SWAP1 SSTORE POP POP POP POP JUMP JUMPDEST PUSH1 0x60 PUSH1 0x8 PUSH0 DUP4 PUSH20 0xFFFFFFFFFFFFFFFFFFFFFFFFFFFFFFFFFFFFFFFF AND PUSH20 0xFFFFFFFFFFFFFFFFFFFFFFFFFFFFFFFFFFFFFFFF AND DUP2 MSTORE PUSH1 0x20 ADD SWAP1 DUP2 MSTORE PUSH1 0x20 ADD PUSH0 KECCAK256 PUSH0 DUP5 PUSH20 0xFFFFFFFFFFFFFFFFFFFFFFFFFFFFFFFFFFFFFFFF AND PUSH20 0xFFFFFFFFFFFFFFFFFFFFFFFFFFFFFFFFFFFFFFFF AND DUP2 MSTORE PUSH1 0x20 ADD SWAP1 DUP2 MSTORE PUSH1 0x20 ADD PUSH0 KECCAK256 DUP1 SLOAD DUP1 PUSH1 0x20 MUL PUSH1 0x20 ADD PUSH1 0x40 MLOAD SWAP1 DUP2 ADD PUSH1 0x40 MSTORE DUP1 SWAP3 SWAP2 SWAP1 DUP2 DUP2 MSTORE PUSH1 0x20 ADD DUP3 DUP1 SLOAD DUP1 ISZERO PUSH2 0xCE8 JUMPI PUSH1 0x20 MUL DUP3 ADD SWAP2 SWAP1 PUSH0 MSTORE PUSH1 0x20 PUSH0 KECCAK256 SWAP1 JUMPDEST DUP2 SLOAD DUP2 MSTORE PUSH1 0x20 ADD SWAP1 PUSH1 0x1 ADD SWAP1 DUP1 DUP4 GT PUSH2 0xCD4 JUMPI JUMPDEST POP POP POP POP POP SWAP1 POP SWAP3 SWAP2 POP POP JUMP JUMPDEST PUSH0 DUP1 PUSH1 0x8 PUSH0 DUP6 PUSH20 0xFFFFFFFFFFFFFFFFFFFFFFFFFFFFFFFFFFFFFFFF AND PUSH20 0xFFFFFFFFFFFFFFFFFFFFFFFFFFFFFFFFFFFFFFFF AND DUP2 MSTORE PUSH1 0x20 ADD SWAP1 DUP2 MSTORE PUSH1 0x20 ADD PUSH0 KECCAK256 PUSH0 DUP7 PUSH20 0xFFFFFFFFFFFFFFFFFFFFFFFFFFFFFFFFFFFFFFFF AND PUSH20 0xFFFFFFFFFFFFFFFFFFFFFFFFFFFFFFFFFFFFFFFF AND DUP2 MSTORE PUSH1 0x20 ADD SWAP1 DUP2 MSTORE PUSH1 0x20 ADD PUSH0 KECCAK256 DUP1 SLOAD DUP1 PUSH1 0x20 MUL PUSH1 0x20 ADD PUSH1 0x40 MLOAD SWAP1 DUP2 ADD PUSH1 0x40 MSTORE DUP1 SWAP3 SWAP2 SWAP1 DUP2 DUP2 MSTORE PUSH1 0x20 ADD DUP3 DUP1 SLOAD DUP1 ISZERO PUSH2 0xDB7 JUMPI PUSH1 0x20 MUL DUP3 ADD SWAP2 SWAP1 PUSH0 MSTORE PUSH1 0x20 PUSH0 KECCAK256 SWAP1 JUMPDEST DUP2 SLOAD DUP2 MSTORE PUSH1 0x20 ADD SWAP1 PUSH1 0x1 ADD SWAP1 DUP1 DUP4 GT PUSH2 0xDA3 JUMPI JUMPDEST POP POP POP POP POP SWAP1 POP PUSH0 JUMPDEST DUP2 MLOAD DUP2 LT ISZERO PUSH2 0xE02 JUMPI DUP2 DUP2 DUP2 MLOAD DUP2 LT PUSH2 0xDDC JUMPI PUSH2 0xDDB PUSH2 0x1E6A JUMP JUMPDEST JUMPDEST PUSH1 0x20 MUL PUSH1 0x20 ADD ADD MLOAD DUP5 SUB PUSH2 0xDF5 JUMPI PUSH1 0x1 SWAP3 POP POP POP PUSH2 0xE08 JUMP JUMPDEST DUP1 DUP1 PUSH1 0x1 ADD SWAP2 POP POP PUSH2 0xDC0 JUMP JUMPDEST POP PUSH0 SWAP2 POP POP JUMPDEST SWAP4 SWAP3 POP POP POP JUMP JUMPDEST PUSH0 DUP1 SLOAD SWAP1 PUSH2 0x100 EXP SWAP1 DIV PUSH20 0xFFFFFFFFFFFFFFFFFFFFFFFFFFFFFFFFFFFFFFFF AND DUP2 JUMP JUMPDEST DUP2 PUSH20 0xFFFFFFFFFFFFFFFFFFFFFFFFFFFFFFFFFFFFFFFF AND PUSH4 0x23B872DD CALLER ADDRESS DUP5 PUSH1 0x40 MLOAD DUP5 PUSH4 0xFFFFFFFF AND PUSH1 0xE0 SHL DUP2 MSTORE PUSH1 0x4 ADD PUSH2 0xE6F SWAP4 SWAP3 SWAP2 SWAP1 PUSH2 0x2304 JUMP JUMPDEST PUSH1 0x20 PUSH1 0x40 MLOAD DUP1 DUP4 SUB DUP2 PUSH0 DUP8 GAS CALL ISZERO DUP1 ISZERO PUSH2 0xE8B JUMPI RETURNDATASIZE PUSH0 DUP1 RETURNDATACOPY RETURNDATASIZE PUSH0 REVERT JUMPDEST POP POP POP POP PUSH1 0x40 MLOAD RETURNDATASIZE PUSH1 0x1F NOT PUSH1 0x1F DUP3 ADD AND DUP3 ADD DUP1 PUSH1 0x40 MSTORE POP DUP2 ADD SWAP1 PUSH2 0xEAF SWAP2 SWAP1 PUSH2 0x223E JUMP JUMPDEST PUSH2 0xEEE JUMPI PUSH1 0x40 MLOAD PUSH32 0x8C379A000000000000000000000000000000000000000000000000000000000 DUP2 MSTORE PUSH1 0x4 ADD PUSH2 0xEE5 SWAP1 PUSH2 0x22B3 JUMP JUMPDEST PUSH1 0x40 MLOAD DUP1 SWAP2 SUB SWAP1 REVERT JUMPDEST DUP1 PUSH1 0x7 PUSH0 CALLER PUSH20 0xFFFFFFFFFFFFFFFFFFFFFFFFFFFFFFFFFFFFFFFF AND PUSH20 0xFFFFFFFFFFFFFFFFFFFFFFFFFFFFFFFFFFFFFFFF AND DUP2 MSTORE PUSH1 0x20 ADD SWAP1 DUP2 MSTORE PUSH1 0x20 ADD PUSH0 KECCAK256 PUSH0 DUP5 PUSH20 0xFFFFFFFFFFFFFFFFFFFFFFFFFFFFFFFFFFFFFFFF AND PUSH20 0xFFFFFFFFFFFFFFFFFFFFFFFFFFFFFFFFFFFFFFFF AND DUP2 MSTORE PUSH1 0x20 ADD SWAP1 DUP2 MSTORE PUSH1 0x20 ADD PUSH0 KECCAK256 PUSH0 DUP3 DUP3 SLOAD PUSH2 0xF75 SWAP2 SWAP1 PUSH2 0x17AB JUMP JUMPDEST SWAP3 POP POP DUP2 SWAP1 SSTORE POP PUSH1 0x1 DUP1 PUSH0 DUP3 DUP3 SLOAD PUSH2 0xF8D SWAP2 SWAP1 PUSH2 0x17AB JUMP JUMPDEST SWAP3 POP POP DUP2 SWAP1 SSTORE POP DUP2 PUSH20 0xFFFFFFFFFFFFFFFFFFFFFFFFFFFFFFFFFFFFFFFF AND CALLER PUSH20 0xFFFFFFFFFFFFFFFFFFFFFFFFFFFFFFFFFFFFFFFF AND PUSH32 0xD470274636139438AA953EB5783FDE481A87A2312194BD215B7D10558D19B43B DUP4 PUSH0 PUSH1 0x1 SLOAD PUSH1 0x40 MLOAD PUSH2 0xFF7 SWAP4 SWAP3 SWAP2 SWAP1 PUSH2 0x2383 JUMP JUMPDEST PUSH1 0x40 MLOAD DUP1 SWAP2 SUB SWAP1 LOG3 POP POP JUMP JUMPDEST DUP2 PUSH20 0xFFFFFFFFFFFFFFFFFFFFFFFFFFFFFFFFFFFFFFFF AND PUSH4 0x42842E0E CALLER ADDRESS DUP5 PUSH1 0x40 MLOAD DUP5 PUSH4 0xFFFFFFFF AND PUSH1 0xE0 SHL DUP2 MSTORE PUSH1 0x4 ADD PUSH2 0x1040 SWAP4 SWAP3 SWAP2 SWAP1 PUSH2 0x2304 JUMP JUMPDEST PUSH0 PUSH1 0x40 MLOAD DUP1 DUP4 SUB DUP2 PUSH0 DUP8 DUP1 EXTCODESIZE ISZERO DUP1 ISZERO PUSH2 0x1057 JUMPI PUSH0 DUP1 REVERT JUMPDEST POP GAS CALL ISZERO DUP1 ISZERO PUSH2 0x1069 JUMPI RETURNDATASIZE PUSH0 DUP1 RETURNDATACOPY RETURNDATASIZE PUSH0 REVERT JUMPDEST POP POP POP POP PUSH2 0x1078 DUP3 CALLER DUP4 PUSH2 0xCF5 JUMP JUMPDEST ISZERO PUSH2 0x10B8 JUMPI PUSH1 0x40 MLOAD PUSH32 0x8C379A000000000000000000000000000000000000000000000000000000000 DUP2 MSTORE PUSH1 0x4 ADD PUSH2 0x10AF SWAP1 PUSH2 0x2415 JUMP JUMPDEST PUSH1 0x40 MLOAD DUP1 SWAP2 SUB SWAP1 REVERT JUMPDEST PUSH1 0x8 PUSH0 CALLER PUSH20 0xFFFFFFFFFFFFFFFFFFFFFFFFFFFFFFFFFFFFFFFF AND PUSH20 0xFFFFFFFFFFFFFFFFFFFFFFFFFFFFFFFFFFFFFFFF AND DUP2 MSTORE PUSH1 0x20 ADD SWAP1 DUP2 MSTORE PUSH1 0x20 ADD PUSH0 KECCAK256 PUSH0 DUP4 PUSH20 0xFFFFFFFFFFFFFFFFFFFFFFFFFFFFFFFFFFFFFFFF AND PUSH20 0xFFFFFFFFFFFFFFFFFFFFFFFFFFFFFFFFFFFFFFFF AND DUP2 MSTORE PUSH1 0x20 ADD SWAP1 DUP2 MSTORE PUSH1 0x20 ADD PUSH0 KECCAK256 DUP2 SWAP1 DUP1 PUSH1 0x1 DUP2 SLOAD ADD DUP1 DUP3 SSTORE DUP1 SWAP2 POP POP PUSH1 0x1 SWAP1 SUB SWAP1 PUSH0 MSTORE PUSH1 0x20 PUSH0 KECCAK256 ADD PUSH0 SWAP1 SWAP2 SWAP1 SWAP2 SWAP1 SWAP2 POP SSTORE PUSH1 0x1 DUP1 PUSH0 DUP3 DUP3 SLOAD PUSH2 0x1165 SWAP2 SWAP1 PUSH2 0x17AB JUMP JUMPDEST SWAP3 POP POP DUP2 SWAP1 SSTORE POP DUP2 PUSH20 0xFFFFFFFFFFFFFFFFFFFFFFFFFFFFFFFFFFFFFFFF AND CALLER PUSH20 0xFFFFFFFFFFFFFFFFFFFFFFFFFFFFFFFFFFFFFFFF AND PUSH32 0xD470274636139438AA953EB5783FDE481A87A2312194BD215B7D10558D19B43B PUSH0 DUP5 PUSH1 0x1 SLOAD PUSH1 0x40 MLOAD PUSH2 0x11CF SWAP4 SWAP3 SWAP2 SWAP1 PUSH2 0x247D JUMP JUMPDEST PUSH1 0x40 MLOAD DUP1 SWAP2 SUB SWAP1 LOG3 POP POP JUMP JUMPDEST PUSH0 PUSH1 0x7 PUSH0 DUP5 PUSH20 0xFFFFFFFFFFFFFFFFFFFFFFFFFFFFFFFFFFFFFFFF AND PUSH20 0xFFFFFFFFFFFFFFFFFFFFFFFFFFFFFFFFFFFFFFFF AND DUP2 MSTORE PUSH1 0x20 ADD SWAP1 DUP2 MSTORE PUSH1 0x20 ADD PUSH0 KECCAK256 PUSH0 DUP4 PUSH20 0xFFFFFFFFFFFFFFFFFFFFFFFFFFFFFFFFFFFFFFFF AND PUSH20 0xFFFFFFFFFFFFFFFFFFFFFFFFFFFFFFFFFFFFFFFF AND DUP2 MSTORE PUSH1 0x20 ADD SWAP1 DUP2 MSTORE PUSH1 0x20 ADD PUSH0 KECCAK256 SLOAD SWAP1 POP SWAP3 SWAP2 POP POP JUMP JUMPDEST PUSH0 DUP1 SLOAD SWAP1 PUSH2 0x100 EXP SWAP1 DIV PUSH20 0xFFFFFFFFFFFFFFFFFFFFFFFFFFFFFFFFFFFFFFFF AND PUSH20 0xFFFFFFFFFFFFFFFFFFFFFFFFFFFFFFFFFFFFFFFF AND CALLER PUSH20 0xFFFFFFFFFFFFFFFFFFFFFFFFFFFFFFFFFFFFFFFF AND EQ PUSH2 0x12EA JUMPI PUSH1 0x40 MLOAD PUSH32 0x8C379A000000000000000000000000000000000000000000000000000000000 DUP2 MSTORE PUSH1 0x4 ADD PUSH2 0x12E1 SWAP1 PUSH2 0x1E4C JUMP JUMPDEST PUSH1 0x40 MLOAD DUP1 SWAP2 SUB SWAP1 REVERT JUMPDEST PUSH2 0x12F5 DUP4 DUP4 DUP4 PUSH2 0xCF5 JUMP JUMPDEST PUSH2 0x1334 JUMPI PUSH1 0x40 MLOAD PUSH32 0x8C379A000000000000000000000000000000000000000000000000000000000 DUP2 MSTORE PUSH1 0x4 ADD PUSH2 0x132B SWAP1 PUSH2 0x250F JUMP JUMPDEST PUSH1 0x40 MLOAD DUP1 SWAP2 SUB SWAP1 REVERT JUMPDEST DUP3 PUSH20 0xFFFFFFFFFFFFFFFFFFFFFFFFFFFFFFFFFFFFFFFF AND PUSH4 0x42842E0E ADDRESS DUP5 DUP5 PUSH1 0x40 MLOAD DUP5 PUSH4 0xFFFFFFFF AND PUSH1 0xE0 SHL DUP2 MSTORE PUSH1 0x4 ADD PUSH2 0x1371 SWAP4 SWAP3 SWAP2 SWAP1 PUSH2 0x2304 JUMP JUMPDEST PUSH0 PUSH1 0x40 MLOAD DUP1 DUP4 SUB DUP2 PUSH0 DUP8 DUP1 EXTCODESIZE ISZERO DUP1 ISZERO PUSH2 0x1388 JUMPI PUSH0 DUP1 REVERT JUMPDEST POP GAS CALL ISZERO DUP1 ISZERO PUSH2 0x139A JUMPI RETURNDATASIZE PUSH0 DUP1 RETURNDATACOPY RETURNDATASIZE PUSH0 REVERT JUMPDEST POP POP POP POP PUSH0 PUSH2 0x13AA DUP5 DUP5 DUP5 PUSH2 0x1612 JUMP JUMPDEST SWAP1 POP PUSH1 0x8 PUSH0 DUP5 PUSH20 0xFFFFFFFFFFFFFFFFFFFFFFFFFFFFFFFFFFFFFFFF AND PUSH20 0xFFFFFFFFFFFFFFFFFFFFFFFFFFFFFFFFFFFFFFFF AND DUP2 MSTORE PUSH1 0x20 ADD SWAP1 DUP2 MSTORE PUSH1 0x20 ADD PUSH0 KECCAK256 PUSH0 DUP6 PUSH20 0xFFFFFFFFFFFFFFFFFFFFFFFFFFFFFFFFFFFFFFFF AND PUSH20 0xFFFFFFFFFFFFFFFFFFFFFFFFFFFFFFFFFFFFFFFF AND DUP2 MSTORE PUSH1 0x20 ADD SWAP1 DUP2 MSTORE PUSH1 0x20 ADD PUSH0 KECCAK256 PUSH1 0x1 PUSH1 0x8 PUSH0 DUP7 PUSH20 0xFFFFFFFFFFFFFFFFFFFFFFFFFFFFFFFFFFFFFFFF AND PUSH20 0xFFFFFFFFFFFFFFFFFFFFFFFFFFFFFFFFFFFFFFFF AND DUP2 MSTORE PUSH1 0x20 ADD SWAP1 DUP2 MSTORE PUSH1 0x20 ADD PUSH0 KECCAK256 PUSH0 DUP8 PUSH20 0xFFFFFFFFFFFFFFFFFFFFFFFFFFFFFFFFFFFFFFFF AND PUSH20 0xFFFFFFFFFFFFFFFFFFFFFFFFFFFFFFFFFFFFFFFF AND DUP2 MSTORE PUSH1 0x20 ADD SWAP1 DUP2 MSTORE PUSH1 0x20 ADD PUSH0 KECCAK256 DUP1 SLOAD SWAP1 POP PUSH2 0x14AC SWAP2 SWAP1 PUSH2 0x22D1 JUMP JUMPDEST DUP2 SLOAD DUP2 LT PUSH2 0x14BD JUMPI PUSH2 0x14BC PUSH2 0x1E6A JUMP JUMPDEST JUMPDEST SWAP1 PUSH0 MSTORE PUSH1 0x20 PUSH0 KECCAK256 ADD SLOAD PUSH1 0x8 PUSH0 DUP6 PUSH20 0xFFFFFFFFFFFFFFFFFFFFFFFFFFFFFFFFFFFFFFFF AND PUSH20 0xFFFFFFFFFFFFFFFFFFFFFFFFFFFFFFFFFFFFFFFF AND DUP2 MSTORE PUSH1 0x20 ADD SWAP1 DUP2 MSTORE PUSH1 0x20 ADD PUSH0 KECCAK256 PUSH0 DUP7 PUSH20 0xFFFFFFFFFFFFFFFFFFFFFFFFFFFFFFFFFFFFFFFF AND PUSH20 0xFFFFFFFFFFFFFFFFFFFFFFFFFFFFFFFFFFFFFFFF AND DUP2 MSTORE PUSH1 0x20 ADD SWAP1 DUP2 MSTORE PUSH1 0x20 ADD PUSH0 KECCAK256 DUP3 DUP2 SLOAD DUP2 LT PUSH2 0x1550 JUMPI PUSH2 0x154F PUSH2 0x1E6A JUMP JUMPDEST JUMPDEST SWAP1 PUSH0 MSTORE PUSH1 0x20 PUSH0 KECCAK256 ADD DUP2 SWAP1 SSTORE POP PUSH1 0x8 PUSH0 DUP5 PUSH20 0xFFFFFFFFFFFFFFFFFFFFFFFFFFFFFFFFFFFFFFFF AND PUSH20 0xFFFFFFFFFFFFFFFFFFFFFFFFFFFFFFFFFFFFFFFF AND DUP2 MSTORE PUSH1 0x20 ADD SWAP1 DUP2 MSTORE PUSH1 0x20 ADD PUSH0 KECCAK256 PUSH0 DUP6 PUSH20 0xFFFFFFFFFFFFFFFFFFFFFFFFFFFFFFFFFFFFFFFF AND PUSH20 0xFFFFFFFFFFFFFFFFFFFFFFFFFFFFFFFFFFFFFFFF AND DUP2 MSTORE PUSH1 0x20 ADD SWAP1 DUP2 MSTORE PUSH1 0x20 ADD PUSH0 KECCAK256 DUP1 SLOAD DUP1 PUSH2 0x15E4 JUMPI PUSH2 0x15E3 PUSH2 0x252D JUMP JUMPDEST JUMPDEST PUSH1 0x1 SWAP1 SUB DUP2 DUP2 SWAP1 PUSH0 MSTORE PUSH1 0x20 PUSH0 KECCAK256 ADD PUSH0 SWAP1 SSTORE SWAP1 SSTORE POP POP POP POP JUMP JUMPDEST PUSH1 0x6 PUSH1 0x20 MSTORE DUP1 PUSH0 MSTORE PUSH1 0x40 PUSH0 KECCAK256 PUSH0 SWAP2 POP SWAP1 POP SLOAD DUP2 JUMP JUMPDEST PUSH0 PUSH2 0x161E DUP5 DUP5 DUP5 PUSH2 0xCF5 JUMP JUMPDEST PUSH2 0x165D JUMPI PUSH1 0x40 MLOAD PUSH32 0x8C379A000000000000000000000000000000000000000000000000000000000 DUP2 MSTORE PUSH1 0x4 ADD PUSH2 0x1654 SWAP1 PUSH2 0x250F JUMP JUMPDEST PUSH1 0x40 MLOAD DUP1 SWAP2 SUB SWAP1 REVERT JUMPDEST PUSH0 PUSH1 0x8 PUSH0 DUP6 PUSH20 0xFFFFFFFFFFFFFFFFFFFFFFFFFFFFFFFFFFFFFFFF AND PUSH20 0xFFFFFFFFFFFFFFFFFFFFFFFFFFFFFFFFFFFFFFFF AND DUP2 MSTORE PUSH1 0x20 ADD SWAP1 DUP2 MSTORE PUSH1 0x20 ADD PUSH0 KECCAK256 PUSH0 DUP7 PUSH20 0xFFFFFFFFFFFFFFFFFFFFFFFFFFFFFFFFFFFFFFFF AND PUSH20 0xFFFFFFFFFFFFFFFFFFFFFFFFFFFFFFFFFFFFFFFF AND DUP2 MSTORE PUSH1 0x20 ADD SWAP1 DUP2 MSTORE PUSH1 0x20 ADD PUSH0 KECCAK256 DUP1 SLOAD DUP1 PUSH1 0x20 MUL PUSH1 0x20 ADD PUSH1 0x40 MLOAD SWAP1 DUP2 ADD PUSH1 0x40 MSTORE DUP1 SWAP3 SWAP2 SWAP1 DUP2 DUP2 MSTORE PUSH1 0x20 ADD DUP3 DUP1 SLOAD DUP1 ISZERO PUSH2 0x171E JUMPI PUSH1 0x20 MUL DUP3 ADD SWAP2 SWAP1 PUSH0 MSTORE PUSH1 0x20 PUSH0 KECCAK256 SWAP1 JUMPDEST DUP2 SLOAD DUP2 MSTORE PUSH1 0x20 ADD SWAP1 PUSH1 0x1 ADD SWAP1 DUP1 DUP4 GT PUSH2 0x170A JUMPI JUMPDEST POP POP POP POP POP SWAP1 POP PUSH0 JUMPDEST DUP2 MLOAD DUP2 LT ISZERO PUSH2 0x1768 JUMPI DUP2 DUP2 DUP2 MLOAD DUP2 LT PUSH2 0x1743 JUMPI PUSH2 0x1742 PUSH2 0x1E6A JUMP JUMPDEST JUMPDEST PUSH1 0x20 MUL PUSH1 0x20 ADD ADD MLOAD DUP5 SUB PUSH2 0x175B JUMPI DUP1 SWAP3 POP POP POP PUSH2 0x176E JUMP JUMPDEST DUP1 DUP1 PUSH1 0x1 ADD SWAP2 POP POP PUSH2 0x1727 JUMP JUMPDEST POP PUSH0 SWAP2 POP POP JUMPDEST SWAP4 SWAP3 POP POP POP JUMP JUMPDEST PUSH0 DUP2 SWAP1 POP SWAP2 SWAP1 POP JUMP JUMPDEST PUSH32 0x4E487B7100000000000000000000000000000000000000000000000000000000 PUSH0 MSTORE PUSH1 0x11 PUSH1 0x4 MSTORE PUSH1 0x24 PUSH0 REVERT JUMPDEST PUSH0 PUSH2 0x17B5 DUP3 PUSH2 0x1775 JUMP JUMPDEST SWAP2 POP PUSH2 0x17C0 DUP4 PUSH2 0x1775 JUMP JUMPDEST SWAP3 POP DUP3 DUP3 ADD SWAP1 POP DUP1 DUP3 GT ISZERO PUSH2 0x17D8 JUMPI PUSH2 0x17D7 PUSH2 0x177E JUMP JUMPDEST JUMPDEST SWAP3 SWAP2 POP POP JUMP JUMPDEST PUSH2 0x17E7 DUP2 PUSH2 0x1775 JUMP JUMPDEST DUP3 MSTORE POP POP JUMP JUMPDEST PUSH0 DUP2 SWAP1 POP SWAP2 SWAP1 POP JUMP JUMPDEST PUSH0 DUP2 SWAP1 POP SWAP2 SWAP1 POP JUMP JUMPDEST PUSH0 PUSH2 0x1819 PUSH2 0x1814 PUSH2 0x180F DUP5 PUSH2 0x17ED JUMP JUMPDEST PUSH2 0x17F6 JUMP JUMPDEST PUSH2 0x1775 JUMP JUMPDEST SWAP1 POP SWAP2 SWAP1 POP JUMP JUMPDEST PUSH2 0x1829 DUP2 PUSH2 0x17FF JUMP JUMPDEST DUP3 MSTORE POP POP JUMP JUMPDEST PUSH0 DUP3 DUP3 MSTORE PUSH1 0x20 DUP3 ADD SWAP1 POP SWAP3 SWAP2 POP POP JUMP JUMPDEST PUSH32 0x4554480000000000000000000000000000000000000000000000000000000000 PUSH0 DUP3 ADD MSTORE POP JUMP JUMPDEST PUSH0 PUSH2 0x1873 PUSH1 0x3 DUP4 PUSH2 0x182F JUMP JUMPDEST SWAP2 POP PUSH2 0x187E DUP3 PUSH2 0x183F JUMP JUMPDEST PUSH1 0x20 DUP3 ADD SWAP1 POP SWAP2 SWAP1 POP JUMP JUMPDEST PUSH0 PUSH1 0x80 DUP3 ADD SWAP1 POP PUSH2 0x189C PUSH0 DUP4 ADD DUP7 PUSH2 0x17DE JUMP JUMPDEST PUSH2 0x18A9 PUSH1 0x20 DUP4 ADD DUP6 PUSH2 0x1820 JUMP JUMPDEST DUP2 DUP2 SUB PUSH1 0x40 DUP4 ADD MSTORE PUSH2 0x18BA DUP2 PUSH2 0x1867 JUMP JUMPDEST SWAP1 POP PUSH2 0x18C9 PUSH1 0x60 DUP4 ADD DUP5 PUSH2 0x17DE JUMP JUMPDEST SWAP5 SWAP4 POP POP POP POP JUMP JUMPDEST PUSH0 DUP1 REVERT JUMPDEST PUSH0 DUP1 REVERT JUMPDEST PUSH0 DUP1 REVERT JUMPDEST PUSH0 DUP1 REVERT JUMPDEST PUSH0 DUP1 REVERT JUMPDEST PUSH0 DUP1 DUP4 PUSH1 0x1F DUP5 ADD SLT PUSH2 0x18FA JUMPI PUSH2 0x18F9 PUSH2 0x18D9 JUMP JUMPDEST JUMPDEST DUP3 CALLDATALOAD SWAP1 POP PUSH8 0xFFFFFFFFFFFFFFFF DUP2 GT ISZERO PUSH2 0x1917 JUMPI PUSH2 0x1916 PUSH2 0x18DD JUMP JUMPDEST JUMPDEST PUSH1 0x20 DUP4 ADD SWAP2 POP DUP4 PUSH1 0x20 DUP3 MUL DUP4 ADD GT ISZERO PUSH2 0x1933 JUMPI PUSH2 0x1932 PUSH2 0x18E1 JUMP JUMPDEST JUMPDEST SWAP3 POP SWAP3 SWAP1 POP JUMP JUMPDEST PUSH0 DUP1 REVERT JUMPDEST PUSH0 PUSH1 0x40 DUP3 DUP5 SUB SLT ISZERO PUSH2 0x1953 JUMPI PUSH2 0x1952 PUSH2 0x193A JUMP JUMPDEST JUMPDEST DUP2 SWAP1 POP SWAP3 SWAP2 POP POP JUMP JUMPDEST PUSH0 DUP1 PUSH0 PUSH1 0x60 DUP5 DUP7 SUB SLT ISZERO PUSH2 0x1973 JUMPI PUSH2 0x1972 PUSH2 0x18D1 JUMP JUMPDEST JUMPDEST PUSH0 DUP5 ADD CALLDATALOAD PUSH8 0xFFFFFFFFFFFFFFFF DUP2 GT ISZERO PUSH2 0x1990 JUMPI PUSH2 0x198F PUSH2 0x18D5 JUMP JUMPDEST JUMPDEST PUSH2 0x199C DUP7 DUP3 DUP8 ADD PUSH2 0x18E5 JUMP JUMPDEST SWAP4 POP SWAP4 POP POP PUSH1 0x20 PUSH2 0x19AF DUP7 DUP3 DUP8 ADD PUSH2 0x193E JUMP JUMPDEST SWAP2 POP POP SWAP3 POP SWAP3 POP SWAP3 JUMP JUMPDEST PUSH0 PUSH20 0xFFFFFFFFFFFFFFFFFFFFFFFFFFFFFFFFFFFFFFFF DUP3 AND SWAP1 POP SWAP2 SWAP1 POP JUMP JUMPDEST PUSH0 PUSH2 0x19E2 DUP3 PUSH2 0x19B9 JUMP JUMPDEST SWAP1 POP SWAP2 SWAP1 POP JUMP JUMPDEST PUSH2 0x19F2 DUP2 PUSH2 0x19D8 JUMP JUMPDEST DUP2 EQ PUSH2 0x19FC JUMPI PUSH0 DUP1 REVERT JUMPDEST POP JUMP JUMPDEST PUSH0 DUP2 CALLDATALOAD SWAP1 POP PUSH2 0x1A0D DUP2 PUSH2 0x19E9 JUMP JUMPDEST SWAP3 SWAP2 POP POP JUMP JUMPDEST PUSH0 PUSH1 0x20 DUP3 DUP5 SUB SLT ISZERO PUSH2 0x1A28 JUMPI PUSH2 0x1A27 PUSH2 0x18D1 JUMP JUMPDEST JUMPDEST PUSH0 PUSH2 0x1A35 DUP5 DUP3 DUP6 ADD PUSH2 0x19FF JUMP JUMPDEST SWAP2 POP POP SWAP3 SWAP2 POP POP JUMP JUMPDEST PUSH0 DUP2 SWAP1 POP SWAP2 SWAP1 POP JUMP JUMPDEST PUSH2 0x1A50 DUP2 PUSH2 0x1A3E JUMP JUMPDEST DUP3 MSTORE POP POP JUMP JUMPDEST PUSH0 PUSH16 0xFFFFFFFFFFFFFFFFFFFFFFFFFFFFFFFF DUP3 AND SWAP1 POP SWAP2 SWAP1 POP JUMP JUMPDEST PUSH2 0x1A7A DUP2 PUSH2 0x1A56 JUMP JUMPDEST DUP3 MSTORE POP POP JUMP JUMPDEST PUSH0 PUSH1 0x40 DUP3 ADD SWAP1 POP PUSH2 0x1A93 PUSH0 DUP4 ADD DUP6 PUSH2 0x1A47 JUMP JUMPDEST PUSH2 0x1AA0 PUSH1 0x20 DUP4 ADD DUP5 PUSH2 0x1A71 JUMP JUMPDEST SWAP4 SWAP3 POP POP POP JUMP JUMPDEST PUSH0 DUP2 ISZERO ISZERO SWAP1 POP SWAP2 SWAP1 POP JUMP JUMPDEST PUSH2 0x1ABB DUP2 PUSH2 0x1AA7 JUMP JUMPDEST DUP3 MSTORE POP POP JUMP JUMPDEST PUSH0 PUSH1 0x40 DUP3 ADD SWAP1 POP PUSH2 0x1AD4 PUSH0 DUP4 ADD DUP6 PUSH2 0x1AB2 JUMP JUMPDEST PUSH2 0x1AE1 PUSH1 0x20 DUP4 ADD DUP5 PUSH2 0x17DE JUMP JUMPDEST SWAP4 SWAP3 POP POP POP JUMP JUMPDEST PUSH0 PUSH2 0x1AF2 DUP3 PUSH2 0x19B9 JUMP JUMPDEST SWAP1 POP SWAP2 SWAP1 POP JUMP JUMPDEST PUSH2 0x1B02 DUP2 PUSH2 0x1AE8 JUMP JUMPDEST DUP2 EQ PUSH2 0x1B0C JUMPI PUSH0 DUP1 REVERT JUMPDEST POP JUMP JUMPDEST PUSH0 DUP2 CALLDATALOAD SWAP1 POP PUSH2 0x1B1D DUP2 PUSH2 0x1AF9 JUMP JUMPDEST SWAP3 SWAP2 POP POP JUMP JUMPDEST PUSH2 0x1B2C DUP2 PUSH2 0x1775 JUMP JUMPDEST DUP2 EQ PUSH2 0x1B36 JUMPI PUSH0 DUP1 REVERT JUMPDEST POP JUMP JUMPDEST PUSH0 DUP2 CALLDATALOAD SWAP1 POP PUSH2 0x1B47 DUP2 PUSH2 0x1B23 JUMP JUMPDEST SWAP3 SWAP2 POP POP JUMP JUMPDEST PUSH0 DUP1 PUSH1 0x40 DUP4 DUP6 SUB SLT ISZERO PUSH2 0x1B63 JUMPI PUSH2 0x1B62 PUSH2 0x18D1 JUMP JUMPDEST JUMPDEST PUSH0 PUSH2 0x1B70 DUP6 DUP3 DUP7 ADD PUSH2 0x1B0F JUMP JUMPDEST SWAP3 POP POP PUSH1 0x20 PUSH2 0x1B81 DUP6 DUP3 DUP7 ADD PUSH2 0x1B39 JUMP JUMPDEST SWAP2 POP POP SWAP3 POP SWAP3 SWAP1 POP JUMP JUMPDEST PUSH2 0x1B94 DUP2 PUSH2 0x1AA7 JUMP JUMPDEST DUP2 EQ PUSH2 0x1B9E JUMPI PUSH0 DUP1 REVERT JUMPDEST POP JUMP JUMPDEST PUSH0 DUP2 CALLDATALOAD SWAP1 POP PUSH2 0x1BAF DUP2 PUSH2 0x1B8B JUMP JUMPDEST SWAP3 SWAP2 POP POP JUMP JUMPDEST PUSH0 DUP1 PUSH0 PUSH1 0x80 DUP5 DUP7 SUB SLT ISZERO PUSH2 0x1BCC JUMPI PUSH2 0x1BCB PUSH2 0x18D1 JUMP JUMPDEST JUMPDEST PUSH0 PUSH2 0x1BD9 DUP7 DUP3 DUP8 ADD PUSH2 0x19FF JUMP JUMPDEST SWAP4 POP POP PUSH1 0x20 PUSH2 0x1BEA DUP7 DUP3 DUP8 ADD PUSH2 0x1BA1 JUMP JUMPDEST SWAP3 POP POP PUSH1 0x40 PUSH2 0x1BFB DUP7 DUP3 DUP8 ADD PUSH2 0x193E JUMP JUMPDEST SWAP2 POP POP SWAP3 POP SWAP3 POP SWAP3 JUMP JUMPDEST PUSH0 PUSH1 0x20 DUP3 ADD SWAP1 POP PUSH2 0x1C18 PUSH0 DUP4 ADD DUP5 PUSH2 0x17DE JUMP JUMPDEST SWAP3 SWAP2 POP POP JUMP JUMPDEST PUSH0 DUP1 PUSH0 PUSH1 0x60 DUP5 DUP7 SUB SLT ISZERO PUSH2 0x1C35 JUMPI PUSH2 0x1C34 PUSH2 0x18D1 JUMP JUMPDEST JUMPDEST PUSH0 PUSH2 0x1C42 DUP7 DUP3 DUP8 ADD PUSH2 0x19FF JUMP JUMPDEST SWAP4 POP POP PUSH1 0x20 PUSH2 0x1C53 DUP7 DUP3 DUP8 ADD PUSH2 0x19FF JUMP JUMPDEST SWAP3 POP POP PUSH1 0x40 PUSH2 0x1C64 DUP7 DUP3 DUP8 ADD PUSH2 0x1B39 JUMP JUMPDEST SWAP2 POP POP SWAP3 POP SWAP3 POP SWAP3 JUMP JUMPDEST PUSH0 DUP1 PUSH1 0x40 DUP4 DUP6 SUB SLT ISZERO PUSH2 0x1C84 JUMPI PUSH2 0x1C83 PUSH2 0x18D1 JUMP JUMPDEST JUMPDEST PUSH0 PUSH2 0x1C91 DUP6 DUP3 DUP7 ADD PUSH2 0x19FF JUMP JUMPDEST SWAP3 POP POP PUSH1 0x20 PUSH2 0x1CA2 DUP6 DUP3 DUP7 ADD PUSH2 0x19FF JUMP JUMPDEST SWAP2 POP POP SWAP3 POP SWAP3 SWAP1 POP JUMP JUMPDEST PUSH0 DUP2 MLOAD SWAP1 POP SWAP2 SWAP1 POP JUMP JUMPDEST PUSH0 DUP3 DUP3 MSTORE PUSH1 0x20 DUP3 ADD SWAP1 POP SWAP3 SWAP2 POP POP JUMP JUMPDEST PUSH0 DUP2 SWAP1 POP PUSH1 0x20 DUP3 ADD SWAP1 POP SWAP2 SWAP1 POP JUMP JUMPDEST PUSH2 0x1CDE DUP2 PUSH2 0x1775 JUMP JUMPDEST DUP3 MSTORE POP POP JUMP JUMPDEST PUSH0 PUSH2 0x1CEF DUP4 DUP4 PUSH2 0x1CD5 JUMP JUMPDEST PUSH1 0x20 DUP4 ADD SWAP1 POP SWAP3 SWAP2 POP POP JUMP JUMPDEST PUSH0 PUSH1 0x20 DUP3 ADD SWAP1 POP SWAP2 SWAP1 POP JUMP JUMPDEST PUSH0 PUSH2 0x1D11 DUP3 PUSH2 0x1CAC JUMP JUMPDEST PUSH2 0x1D1B DUP2 DUP6 PUSH2 0x1CB6 JUMP JUMPDEST SWAP4 POP PUSH2 0x1D26 DUP4 PUSH2 0x1CC6 JUMP JUMPDEST DUP1 PUSH0 JUMPDEST DUP4 DUP2 LT ISZERO PUSH2 0x1D56 JUMPI DUP2 MLOAD PUSH2 0x1D3D DUP9 DUP3 PUSH2 0x1CE4 JUMP JUMPDEST SWAP8 POP PUSH2 0x1D48 DUP4 PUSH2 0x1CFB JUMP JUMPDEST SWAP3 POP POP PUSH1 0x1 DUP2 ADD SWAP1 POP PUSH2 0x1D29 JUMP JUMPDEST POP DUP6 SWAP4 POP POP POP POP SWAP3 SWAP2 POP POP JUMP JUMPDEST PUSH0 PUSH1 0x20 DUP3 ADD SWAP1 POP DUP2 DUP2 SUB PUSH0 DUP4 ADD MSTORE PUSH2 0x1D7B DUP2 DUP5 PUSH2 0x1D07 JUMP JUMPDEST SWAP1 POP SWAP3 SWAP2 POP POP JUMP JUMPDEST PUSH0 PUSH1 0x20 DUP3 ADD SWAP1 POP PUSH2 0x1D96 PUSH0 DUP4 ADD DUP5 PUSH2 0x1AB2 JUMP JUMPDEST SWAP3 SWAP2 POP POP JUMP JUMPDEST PUSH2 0x1DA5 DUP2 PUSH2 0x19D8 JUMP JUMPDEST DUP3 MSTORE POP POP JUMP JUMPDEST PUSH0 PUSH1 0x20 DUP3 ADD SWAP1 POP PUSH2 0x1DBE PUSH0 DUP4 ADD DUP5 PUSH2 0x1D9C JUMP JUMPDEST SWAP3 SWAP2 POP POP JUMP JUMPDEST PUSH0 DUP1 PUSH1 0x40 DUP4 DUP6 SUB SLT ISZERO PUSH2 0x1DDA JUMPI PUSH2 0x1DD9 PUSH2 0x18D1 JUMP JUMPDEST JUMPDEST PUSH0 PUSH2 0x1DE7 DUP6 DUP3 DUP7 ADD PUSH2 0x19FF JUMP JUMPDEST SWAP3 POP POP PUSH1 0x20 PUSH2 0x1DF8 DUP6 DUP3 DUP7 ADD PUSH2 0x1B39 JUMP JUMPDEST SWAP2 POP POP SWAP3 POP SWAP3 SWAP1 POP JUMP JUMPDEST PUSH32 0x4E6F7420746865206F776E657200000000000000000000000000000000000000 PUSH0 DUP3 ADD MSTORE POP JUMP JUMPDEST PUSH0 PUSH2 0x1E36 PUSH1 0xD DUP4 PUSH2 0x182F JUMP JUMPDEST SWAP2 POP PUSH2 0x1E41 DUP3 PUSH2 0x1E02 JUMP JUMPDEST PUSH1 0x20 DUP3 ADD SWAP1 POP SWAP2 SWAP1 POP JUMP JUMPDEST PUSH0 PUSH1 0x20 DUP3 ADD SWAP1 POP DUP2 DUP2 SUB PUSH0 DUP4 ADD MSTORE PUSH2 0x1E63 DUP2 PUSH2 0x1E2A JUMP JUMPDEST SWAP1 POP SWAP2 SWAP1 POP JUMP JUMPDEST PUSH32 0x4E487B7100000000000000000000000000000000000000000000000000000000 PUSH0 MSTORE PUSH1 0x32 PUSH1 0x4 MSTORE PUSH1 0x24 PUSH0 REVERT JUMPDEST PUSH2 0x1EA0 DUP2 PUSH2 0x1A3E JUMP JUMPDEST DUP2 EQ PUSH2 0x1EAA JUMPI PUSH0 DUP1 REVERT JUMPDEST POP JUMP JUMPDEST PUSH0 DUP2 CALLDATALOAD PUSH2 0x1EB9 DUP2 PUSH2 0x1E97 JUMP JUMPDEST DUP1 SWAP2 POP POP SWAP2 SWAP1 POP JUMP JUMPDEST PUSH0 DUP2 PUSH0 SHL SWAP1 POP SWAP2 SWAP1 POP JUMP JUMPDEST PUSH0 PUSH32 0xFFFFFFFFFFFFFFFFFFFFFFFFFFFFFFFFFFFFFFFFFFFFFFFFFFFFFFFFFFFFFFFF PUSH2 0x1EF8 DUP5 PUSH2 0x1EC2 JUMP JUMPDEST SWAP4 POP DUP1 NOT DUP4 AND SWAP3 POP DUP1 DUP5 AND DUP4 OR SWAP2 POP POP SWAP3 SWAP2 POP POP JUMP JUMPDEST PUSH0 PUSH2 0x1F18 DUP3 PUSH2 0x1A3E JUMP JUMPDEST SWAP1 POP SWAP2 SWAP1 POP JUMP JUMPDEST PUSH0 DUP2 PUSH0 SHR SWAP1 POP SWAP2 SWAP1 POP JUMP JUMPDEST PUSH0 PUSH2 0x1F34 DUP3 PUSH2 0x1F1F JUMP JUMPDEST SWAP1 POP SWAP2 SWAP1 POP JUMP JUMPDEST PUSH2 0x1F44 DUP3 PUSH2 0x1F0E JUMP JUMPDEST PUSH2 0x1F57 PUSH2 0x1F50 DUP3 PUSH2 0x1F2A JUMP JUMPDEST DUP4 SLOAD PUSH2 0x1ECD JUMP JUMPDEST DUP3 SSTORE POP POP POP JUMP JUMPDEST PUSH2 0x1F67 DUP2 PUSH2 0x1A56 JUMP JUMPDEST DUP2 EQ PUSH2 0x1F71 JUMPI PUSH0 DUP1 REVERT JUMPDEST POP JUMP JUMPDEST PUSH0 DUP2 CALLDATALOAD PUSH2 0x1F80 DUP2 PUSH2 0x1F5E JUMP JUMPDEST DUP1 SWAP2 POP POP SWAP2 SWAP1 POP JUMP JUMPDEST PUSH0 PUSH16 0xFFFFFFFFFFFFFFFFFFFFFFFFFFFFFFFF PUSH2 0x1FA4 DUP5 PUSH2 0x1EC2 JUMP JUMPDEST SWAP4 POP DUP1 NOT DUP4 AND SWAP3 POP DUP1 DUP5 AND DUP4 OR SWAP2 POP POP SWAP3 SWAP2 POP POP JUMP JUMPDEST PUSH0 PUSH2 0x1FD4 PUSH2 0x1FCF PUSH2 0x1FCA DUP5 PUSH2 0x1A56 JUMP JUMPDEST PUSH2 0x17F6 JUMP JUMPDEST PUSH2 0x1A56 JUMP JUMPDEST SWAP1 POP SWAP2 SWAP1 POP JUMP JUMPDEST PUSH0 DUP2 SWAP1 POP SWAP2 SWAP1 POP JUMP JUMPDEST PUSH2 0x1FED DUP3 PUSH2 0x1FBA JUMP JUMPDEST PUSH2 0x2000 PUSH2 0x1FF9 DUP3 PUSH2 0x1FDB JUMP JUMPDEST DUP4 SLOAD PUSH2 0x1F89 JUMP JUMPDEST DUP3 SSTORE POP POP POP JUMP JUMPDEST PUSH0 DUP2 ADD PUSH0 DUP4 ADD DUP1 PUSH2 0x2017 DUP2 PUSH2 0x1EAD JUMP JUMPDEST SWAP1 POP PUSH2 0x2023 DUP2 DUP5 PUSH2 0x1F3B JUMP JUMPDEST POP POP POP PUSH1 0x1 DUP2 ADD PUSH1 0x20 DUP4 ADD DUP1 PUSH2 0x2038 DUP2 PUSH2 0x1F74 JUMP JUMPDEST SWAP1 POP PUSH2 0x2044 DUP2 DUP5 PUSH2 0x1FE4 JUMP JUMPDEST POP POP POP POP POP JUMP JUMPDEST PUSH2 0x2055 DUP3 DUP3 PUSH2 0x2007 JUMP JUMPDEST POP POP JUMP JUMPDEST PUSH0 DUP2 SWAP1 POP SWAP3 SWAP2 POP POP JUMP JUMPDEST PUSH0 DUP2 SWAP1 POP SWAP2 SWAP1 POP JUMP JUMPDEST PUSH2 0x2075 DUP2 PUSH2 0x19D8 JUMP JUMPDEST DUP3 MSTORE POP POP JUMP JUMPDEST PUSH0 PUSH2 0x2086 DUP4 DUP4 PUSH2 0x206C JUMP JUMPDEST PUSH1 0x20 DUP4 ADD SWAP1 POP SWAP3 SWAP2 POP POP JUMP JUMPDEST PUSH0 PUSH2 0x20A0 PUSH1 0x20 DUP5 ADD DUP5 PUSH2 0x19FF JUMP JUMPDEST SWAP1 POP SWAP3 SWAP2 POP POP JUMP JUMPDEST PUSH0 PUSH1 0x20 DUP3 ADD SWAP1 POP SWAP2 SWAP1 POP JUMP JUMPDEST PUSH0 PUSH2 0x20BF DUP4 DUP6 PUSH2 0x2059 JUMP JUMPDEST SWAP4 POP PUSH2 0x20CA DUP3 PUSH2 0x2063 JUMP JUMPDEST DUP1 PUSH0 JUMPDEST DUP6 DUP2 LT ISZERO PUSH2 0x2102 JUMPI PUSH2 0x20DF DUP3 DUP5 PUSH2 0x2092 JUMP JUMPDEST PUSH2 0x20E9 DUP9 DUP3 PUSH2 0x207B JUMP JUMPDEST SWAP8 POP PUSH2 0x20F4 DUP4 PUSH2 0x20A8 JUMP JUMPDEST SWAP3 POP POP PUSH1 0x1 DUP2 ADD SWAP1 POP PUSH2 0x20CD JUMP JUMPDEST POP DUP6 SWAP3 POP POP POP SWAP4 SWAP3 POP POP POP JUMP JUMPDEST PUSH0 PUSH2 0x211B DUP3 DUP5 DUP7 PUSH2 0x20B4 JUMP JUMPDEST SWAP2 POP DUP2 SWAP1 POP SWAP4 SWAP3 POP POP POP JUMP JUMPDEST PUSH0 DUP2 CALLDATALOAD SWAP1 POP PUSH2 0x2135 DUP2 PUSH2 0x1F5E JUMP JUMPDEST SWAP3 SWAP2 POP POP JUMP JUMPDEST PUSH0 PUSH1 0x20 DUP3 DUP5 SUB SLT ISZERO PUSH2 0x2150 JUMPI PUSH2 0x214F PUSH2 0x18D1 JUMP JUMPDEST JUMPDEST PUSH0 PUSH2 0x215D DUP5 DUP3 DUP6 ADD PUSH2 0x2127 JUMP JUMPDEST SWAP2 POP POP SWAP3 SWAP2 POP POP JUMP JUMPDEST PUSH0 PUSH1 0x60 DUP3 ADD SWAP1 POP PUSH2 0x2179 PUSH0 DUP4 ADD DUP7 PUSH2 0x1A47 JUMP JUMPDEST PUSH2 0x2186 PUSH1 0x20 DUP4 ADD DUP6 PUSH2 0x1A71 JUMP JUMPDEST PUSH2 0x2193 PUSH1 0x40 DUP4 ADD DUP5 PUSH2 0x17DE JUMP JUMPDEST SWAP5 SWAP4 POP POP POP POP JUMP JUMPDEST PUSH32 0x496E73756666696369656E742062616C616E6365000000000000000000000000 PUSH0 DUP3 ADD MSTORE POP JUMP JUMPDEST PUSH0 PUSH2 0x21CF PUSH1 0x14 DUP4 PUSH2 0x182F JUMP JUMPDEST SWAP2 POP PUSH2 0x21DA DUP3 PUSH2 0x219B JUMP JUMPDEST PUSH1 0x20 DUP3 ADD SWAP1 POP SWAP2 SWAP1 POP JUMP JUMPDEST PUSH0 PUSH1 0x20 DUP3 ADD SWAP1 POP DUP2 DUP2 SUB PUSH0 DUP4 ADD MSTORE PUSH2 0x21FC DUP2 PUSH2 0x21C3 JUMP JUMPDEST SWAP1 POP SWAP2 SWAP1 POP JUMP JUMPDEST PUSH0 PUSH1 0x40 DUP3 ADD SWAP1 POP PUSH2 0x2216 PUSH0 DUP4 ADD DUP6 PUSH2 0x1D9C JUMP JUMPDEST PUSH2 0x2223 PUSH1 0x20 DUP4 ADD DUP5 PUSH2 0x17DE JUMP JUMPDEST SWAP4 SWAP3 POP POP POP JUMP JUMPDEST PUSH0 DUP2 MLOAD SWAP1 POP PUSH2 0x2238 DUP2 PUSH2 0x1B8B JUMP JUMPDEST SWAP3 SWAP2 POP POP JUMP JUMPDEST PUSH0 PUSH1 0x20 DUP3 DUP5 SUB SLT ISZERO PUSH2 0x2253 JUMPI PUSH2 0x2252 PUSH2 0x18D1 JUMP JUMPDEST JUMPDEST PUSH0 PUSH2 0x2260 DUP5 DUP3 DUP6 ADD PUSH2 0x222A JUMP JUMPDEST SWAP2 POP POP SWAP3 SWAP2 POP POP JUMP JUMPDEST PUSH32 0x5472616E73666572206661696C65640000000000000000000000000000000000 PUSH0 DUP3 ADD MSTORE POP JUMP JUMPDEST PUSH0 PUSH2 0x229D PUSH1 0xF DUP4 PUSH2 0x182F JUMP JUMPDEST SWAP2 POP PUSH2 0x22A8 DUP3 PUSH2 0x2269 JUMP JUMPDEST PUSH1 0x20 DUP3 ADD SWAP1 POP SWAP2 SWAP1 POP JUMP JUMPDEST PUSH0 PUSH1 0x20 DUP3 ADD SWAP1 POP DUP2 DUP2 SUB PUSH0 DUP4 ADD MSTORE PUSH2 0x22CA DUP2 PUSH2 0x2291 JUMP JUMPDEST SWAP1 POP SWAP2 SWAP1 POP JUMP JUMPDEST PUSH0 PUSH2 0x22DB DUP3 PUSH2 0x1775 JUMP JUMPDEST SWAP2 POP PUSH2 0x22E6 DUP4 PUSH2 0x1775 JUMP JUMPDEST SWAP3 POP DUP3 DUP3 SUB SWAP1 POP DUP2 DUP2 GT ISZERO PUSH2 0x22FE JUMPI PUSH2 0x22FD PUSH2 0x177E JUMP JUMPDEST JUMPDEST SWAP3 SWAP2 POP POP JUMP JUMPDEST PUSH0 PUSH1 0x60 DUP3 ADD SWAP1 POP PUSH2 0x2317 PUSH0 DUP4 ADD DUP7 PUSH2 0x1D9C JUMP JUMPDEST PUSH2 0x2324 PUSH1 0x20 DUP4 ADD DUP6 PUSH2 0x1D9C JUMP JUMPDEST PUSH2 0x2331 PUSH1 0x40 DUP4 ADD DUP5 PUSH2 0x17DE JUMP JUMPDEST SWAP5 SWAP4 POP POP POP POP JUMP JUMPDEST PUSH32 0x4552432D32300000000000000000000000000000000000000000000000000000 PUSH0 DUP3 ADD MSTORE POP JUMP JUMPDEST PUSH0 PUSH2 0x236D PUSH1 0x6 DUP4 PUSH2 0x182F JUMP JUMPDEST SWAP2 POP PUSH2 0x2378 DUP3 PUSH2 0x2339 JUMP JUMPDEST PUSH1 0x20 DUP3 ADD SWAP1 POP SWAP2 SWAP1 POP JUMP JUMPDEST PUSH0 PUSH1 0x80 DUP3 ADD SWAP1 POP PUSH2 0x2396 PUSH0 DUP4 ADD DUP7 PUSH2 0x17DE JUMP JUMPDEST PUSH2 0x23A3 PUSH1 0x20 DUP4 ADD DUP6 PUSH2 0x1820 JUMP JUMPDEST DUP2 DUP2 SUB PUSH1 0x40 DUP4 ADD MSTORE PUSH2 0x23B4 DUP2 PUSH2 0x2361 JUMP JUMPDEST SWAP1 POP PUSH2 0x23C3 PUSH1 0x60 DUP4 ADD DUP5 PUSH2 0x17DE JUMP JUMPDEST SWAP5 SWAP4 POP POP POP POP JUMP JUMPDEST PUSH32 0x4E465420616C72656164792073746F7265640000000000000000000000000000 PUSH0 DUP3 ADD MSTORE POP JUMP JUMPDEST PUSH0 PUSH2 0x23FF PUSH1 0x12 DUP4 PUSH2 0x182F JUMP JUMPDEST SWAP2 POP PUSH2 0x240A DUP3 PUSH2 0x23CB JUMP JUMPDEST PUSH1 0x20 DUP3 ADD SWAP1 POP SWAP2 SWAP1 POP JUMP JUMPDEST PUSH0 PUSH1 0x20 DUP3 ADD SWAP1 POP DUP2 DUP2 SUB PUSH0 DUP4 ADD MSTORE PUSH2 0x242C DUP2 PUSH2 0x23F3 JUMP JUMPDEST SWAP1 POP SWAP2 SWAP1 POP JUMP JUMPDEST PUSH32 0x4552432D37323100000000000000000000000000000000000000000000000000 PUSH0 DUP3 ADD MSTORE POP JUMP JUMPDEST PUSH0 PUSH2 0x2467 PUSH1 0x7 DUP4 PUSH2 0x182F JUMP JUMPDEST SWAP2 POP PUSH2 0x2472 DUP3 PUSH2 0x2433 JUMP JUMPDEST PUSH1 0x20 DUP3 ADD SWAP1 POP SWAP2 SWAP1 POP JUMP JUMPDEST PUSH0 PUSH1 0x80 DUP3 ADD SWAP1 POP PUSH2 0x2490 PUSH0 DUP4 ADD DUP7 PUSH2 0x1820 JUMP JUMPDEST PUSH2 0x249D PUSH1 0x20 DUP4 ADD DUP6 PUSH2 0x17DE JUMP JUMPDEST DUP2 DUP2 SUB PUSH1 0x40 DUP4 ADD MSTORE PUSH2 0x24AE DUP2 PUSH2 0x245B JUMP JUMPDEST SWAP1 POP PUSH2 0x24BD PUSH1 0x60 DUP4 ADD DUP5 PUSH2 0x17DE JUMP JUMPDEST SWAP5 SWAP4 POP POP POP POP JUMP JUMPDEST PUSH32 0x4E4654206E6F742073746F726564000000000000000000000000000000000000 PUSH0 DUP3 ADD MSTORE POP JUMP JUMPDEST PUSH0 PUSH2 0x24F9 PUSH1 0xE DUP4 PUSH2 0x182F JUMP JUMPDEST SWAP2 POP PUSH2 0x2504 DUP3 PUSH2 0x24C5 JUMP JUMPDEST PUSH1 0x20 DUP3 ADD SWAP1 POP SWAP2 SWAP1 POP JUMP JUMPDEST PUSH0 PUSH1 0x20 DUP3 ADD SWAP1 POP DUP2 DUP2 SUB PUSH0 DUP4 ADD MSTORE PUSH2 0x2526 DUP2 PUSH2 0x24ED JUMP JUMPDEST SWAP1 POP SWAP2 SWAP1 POP JUMP JUMPDEST PUSH32 0x4E487B7100000000000000000000000000000000000000000000000000000000 PUSH0 MSTORE PUSH1 0x31 PUSH1 0x4 MSTORE PUSH1 0x24 PUSH0 REVERT INVALID LOG2 PUSH5 0x6970667358 0x22 SLT KECCAK256 CALLVALUE AND SWAP15 OR 0xB8 0xCD 0xCF DUP12 CALL SWAP10 0xC2 0xFC 0xF9 PUSH30 0x8D87A61CD847B22B86098F23B575584EE9A564736F6C6343000816003300 "
				},
				"gasEstimates": {
					"creation": {
						"codeDepositCost": "1923200",
						"executionCost": "26296",
						"totalCost": "1949496"
					},
					"external": {
						"ERC721AlreadyStored(address,address,uint256)": "infinite",
						"blobIndices(address)": "5157",
						"ethBalance(address)": "2890",
						"getBlobIndex(address)": "5225",
						"getERC20Balance(address,address)": "infinite",
						"getERC721Holdings(address,address)": "infinite",
						"getEthBalance(address)": "2896",
						"owner()": "2572",
						"quorums(address)": "5136",
						"releaseERC20(address,address,uint256)": "infinite",
						"releaseERC721(address,address,uint256)": "infinite",
						"settleBlobIndex(address[],(bytes32,uint128))": "infinite",
						"storeERC20(address,uint256)": "infinite",
						"storeERC721(address,uint256)": "infinite",
						"voteOnBlobIndex(address,bool,(bytes32,uint128))": "773",
						"withdrawETH(address,uint256)": "infinite"
					},
					"internal": {
						"getNFTIndex(address,address,uint256)": "infinite"
					}
				},
				"methodIdentifiers": {
					"ERC721AlreadyStored(address,address,uint256)": "81473c64",
					"blobIndices(address)": "36393627",
					"ethBalance(address)": "d8f3790f",
					"getBlobIndex(address)": "2dccf71c",
					"getERC20Balance(address,address)": "c3a8962c",
					"getERC721Holdings(address,address)": "6d1dbc48",
					"getEthBalance(address)": "4d2301cc",
					"owner()": "8da5cb5b",
					"quorums(address)": "32a93efb",
					"releaseERC20(address,address,uint256)": "6cd533d8",
					"releaseERC721(address,address,uint256)": "d8265846",
					"settleBlobIndex(address[],(bytes32,uint128))": "1a1d4011",
					"storeERC20(address,uint256)": "b108d36d",
					"storeERC721(address,uint256)": "c003a3a4",
					"voteOnBlobIndex(address,bool,(bytes32,uint128))": "483f96be",
					"withdrawETH(address,uint256)": "4782f779"
				}
			},
			"storageLayout": {
				"storage": [
					{
						"astId": 50,
						"contract": "contracts/1_ExecutableOracle.sol:ExecutableOracle",
						"label": "owner",
						"offset": 0,
						"slot": "0",
						"type": "t_address"
					},
					{
						"astId": 52,
						"contract": "contracts/1_ExecutableOracle.sol:ExecutableOracle",
						"label": "bridgeCounter",
						"offset": 0,
						"slot": "1",
						"type": "t_uint256"
					},
					{
						"astId": 54,
						"contract": "contracts/1_ExecutableOracle.sol:ExecutableOracle",
						"label": "settlementCounter",
						"offset": 0,
						"slot": "2",
						"type": "t_uint256"
					},
					{
						"astId": 85,
						"contract": "contracts/1_ExecutableOracle.sol:ExecutableOracle",
						"label": "pendingBlobIndices",
						"offset": 0,
						"slot": "3",
						"type": "t_mapping(t_address,t_struct(BlobIndex)80_storage)"
					},
					{
						"astId": 90,
						"contract": "contracts/1_ExecutableOracle.sol:ExecutableOracle",
						"label": "blobIndices",
						"offset": 0,
						"slot": "4",
						"type": "t_mapping(t_address,t_struct(BlobIndex)80_storage)"
					},
					{
						"astId": 95,
						"contract": "contracts/1_ExecutableOracle.sol:ExecutableOracle",
						"label": "quorums",
						"offset": 0,
						"slot": "5",
						"type": "t_mapping(t_address,t_struct(Quorum)75_storage)"
					},
					{
						"astId": 99,
						"contract": "contracts/1_ExecutableOracle.sol:ExecutableOracle",
						"label": "ethBalance",
						"offset": 0,
						"slot": "6",
						"type": "t_mapping(t_address,t_uint256)"
					},
					{
						"astId": 105,
						"contract": "contracts/1_ExecutableOracle.sol:ExecutableOracle",
						"label": "ERC20Balance",
						"offset": 0,
						"slot": "7",
						"type": "t_mapping(t_address,t_mapping(t_address,t_uint256))"
					},
					{
						"astId": 112,
						"contract": "contracts/1_ExecutableOracle.sol:ExecutableOracle",
						"label": "ERC721Holdings",
						"offset": 0,
						"slot": "8",
						"type": "t_mapping(t_address,t_mapping(t_address,t_array(t_uint256)dyn_storage))"
					}
				],
				"types": {
					"t_address": {
						"encoding": "inplace",
						"label": "address",
						"numberOfBytes": "20"
					},
					"t_array(t_uint256)dyn_storage": {
						"base": "t_uint256",
						"encoding": "dynamic_array",
						"label": "uint256[]",
						"numberOfBytes": "32"
					},
					"t_bool": {
						"encoding": "inplace",
						"label": "bool",
						"numberOfBytes": "1"
					},
					"t_bytes32": {
						"encoding": "inplace",
						"label": "bytes32",
						"numberOfBytes": "32"
					},
					"t_mapping(t_address,t_array(t_uint256)dyn_storage)": {
						"encoding": "mapping",
						"key": "t_address",
						"label": "mapping(address => uint256[])",
						"numberOfBytes": "32",
						"value": "t_array(t_uint256)dyn_storage"
					},
					"t_mapping(t_address,t_bool)": {
						"encoding": "mapping",
						"key": "t_address",
						"label": "mapping(address => bool)",
						"numberOfBytes": "32",
						"value": "t_bool"
					},
					"t_mapping(t_address,t_mapping(t_address,t_array(t_uint256)dyn_storage))": {
						"encoding": "mapping",
						"key": "t_address",
						"label": "mapping(address => mapping(address => uint256[]))",
						"numberOfBytes": "32",
						"value": "t_mapping(t_address,t_array(t_uint256)dyn_storage)"
					},
					"t_mapping(t_address,t_mapping(t_address,t_uint256))": {
						"encoding": "mapping",
						"key": "t_address",
						"label": "mapping(address => mapping(address => uint256))",
						"numberOfBytes": "32",
						"value": "t_mapping(t_address,t_uint256)"
					},
					"t_mapping(t_address,t_struct(BlobIndex)80_storage)": {
						"encoding": "mapping",
						"key": "t_address",
						"label": "mapping(address => struct ExecutableOracle.BlobIndex)",
						"numberOfBytes": "32",
						"value": "t_struct(BlobIndex)80_storage"
					},
					"t_mapping(t_address,t_struct(Quorum)75_storage)": {
						"encoding": "mapping",
						"key": "t_address",
						"label": "mapping(address => struct ExecutableOracle.Quorum)",
						"numberOfBytes": "32",
						"value": "t_struct(Quorum)75_storage"
					},
					"t_mapping(t_address,t_uint256)": {
						"encoding": "mapping",
						"key": "t_address",
						"label": "mapping(address => uint256)",
						"numberOfBytes": "32",
						"value": "t_uint256"
					},
					"t_mapping(t_bool,t_uint256)": {
						"encoding": "mapping",
						"key": "t_bool",
						"label": "mapping(bool => uint256)",
						"numberOfBytes": "32",
						"value": "t_uint256"
					},
					"t_mapping(t_string_memory_ptr,t_mapping(t_address,t_bool))": {
						"encoding": "mapping",
						"key": "t_string_memory_ptr",
						"label": "mapping(string => mapping(address => bool))",
						"numberOfBytes": "32",
						"value": "t_mapping(t_address,t_bool)"
					},
					"t_mapping(t_string_memory_ptr,t_mapping(t_bool,t_uint256))": {
						"encoding": "mapping",
						"key": "t_string_memory_ptr",
						"label": "mapping(string => mapping(bool => uint256))",
						"numberOfBytes": "32",
						"value": "t_mapping(t_bool,t_uint256)"
					},
					"t_string_memory_ptr": {
						"encoding": "bytes",
						"label": "string",
						"numberOfBytes": "32"
					},
					"t_struct(BlobIndex)80_storage": {
						"encoding": "inplace",
						"label": "struct ExecutableOracle.BlobIndex",
						"members": [
							{
								"astId": 77,
								"contract": "contracts/1_ExecutableOracle.sol:ExecutableOracle",
								"label": "batchHeaderHash",
								"offset": 0,
								"slot": "0",
								"type": "t_bytes32"
							},
							{
								"astId": 79,
								"contract": "contracts/1_ExecutableOracle.sol:ExecutableOracle",
								"label": "blobIndex",
								"offset": 0,
								"slot": "1",
								"type": "t_uint128"
							}
						],
						"numberOfBytes": "64"
					},
					"t_struct(Quorum)75_storage": {
						"encoding": "inplace",
						"label": "struct ExecutableOracle.Quorum",
						"members": [
							{
								"astId": 58,
								"contract": "contracts/1_ExecutableOracle.sol:ExecutableOracle",
								"label": "quorumMembers",
								"offset": 0,
								"slot": "0",
								"type": "t_mapping(t_address,t_bool)"
							},
							{
								"astId": 64,
								"contract": "contracts/1_ExecutableOracle.sol:ExecutableOracle",
								"label": "votes",
								"offset": 0,
								"slot": "1",
								"type": "t_mapping(t_string_memory_ptr,t_mapping(t_address,t_bool))"
							},
							{
								"astId": 70,
								"contract": "contracts/1_ExecutableOracle.sol:ExecutableOracle",
								"label": "voteCount",
								"offset": 0,
								"slot": "2",
								"type": "t_mapping(t_string_memory_ptr,t_mapping(t_bool,t_uint256))"
							},
							{
								"astId": 72,
								"contract": "contracts/1_ExecutableOracle.sol:ExecutableOracle",
								"label": "isActive",
								"offset": 0,
								"slot": "3",
								"type": "t_bool"
							},
							{
								"astId": 74,
								"contract": "contracts/1_ExecutableOracle.sol:ExecutableOracle",
								"label": "memberCount",
								"offset": 0,
								"slot": "4",
								"type": "t_uint256"
							}
						],
						"numberOfBytes": "160"
					},
					"t_uint128": {
						"encoding": "inplace",
						"label": "uint128",
						"numberOfBytes": "16"
					},
					"t_uint256": {
						"encoding": "inplace",
						"label": "uint256",
						"numberOfBytes": "32"
					}
				}
			},
			"userdoc": {
				"kind": "user",
				"methods": {},
				"version": 1
			}
		}
	}
}